:0400000011EF00F00C
:100008005282D9CF4AF0DACF4BF059EC7FF04BC08F
:0E001800DAFF4AC0D9FF529211002AEF7FF0A2
:10400000FFFFFFFFFFFFFFFFFFFFFFFFFFFFFFFFC0
:10401000FFFFFFFFFFFFFFFFFFFFFFFFFFFFFFFFB0
:10402000FFFFFFFFFFFFFFFFFFFFFFFFFFFFFFFFA0
:10403000FFFFFFFFFFFFFFFFFFFFFFFFFFFFFFFF90
:0240400000007E
:10FD330007010403020506000189888B8A8B802151
:10FD43000E0F01256F120085808A9089928994890C
:10FD530096000EDDEC7EF01200D598F00ED516D687
:10FD6300501F0B6009D66ED698D650F00B0609D6F5
:10FD73006ED58E0E01CA91C28B12000E01D8518F1F
:10FD83000B6009D86F050EDE6FF00ED81700F00078
:10FD9300F000F000F000F000F000F000F000F000E0
:10FDA300F00E01DAA9D8EF7EF0DAEF7EF0D2EF7E23
:10FDB300F0010E3A6E12004C6E4CA0E3EF7EF0E5BC
:10FDC300EF7EF0E8EF7EF08482E9EF7EF084924CE0
:10FDD300A2EEEF7EF0F0EF7EF0F3EF7EF08484F49A
:10FDE300EF7EF084944CA4F9EF7EF0FBEF7EF0FEFF
:10FDF300EF7EF08486FFEF7EF084961200000E0FF4
:10FE030001116F000E196F000E216F000E266FBFD8
:10FE1300EC7EF0AEEC7EF0A5EC7EF09EEC7EF0F294
:10FE23008E04002A5007E1140E295CD8B01CEF7F22
:10FE3300F01EEF7FF023EF7FF0060EDDEC7EF01275
:10FE4300EF7FF0030EDDEC7EF012EF7FF011EF0099
:10FE5300F0330EF66EFD0EF76E000EF86E00EE40F8
:10FE6300F010EE09F00900F5CFEEFFE550E150FA8E
:10FE7300E102EE00F011EE00F0EE6AE550E150FC15
:10FE8300E1E250FAE101EE00F011EE00F0EE6AE576
:10FE930050E150FCE1E250FAE100EE01F03F0EEEDA
:10FEA3006AE806FDE152905292000100EF7FF09D57
:10FEB300A45EEF7FF060EF7FF063EF7FF09950FF78
:10FEC300EF7FF09DA268EF7FF06AEF7FF06EEF7F28
:10FED300F09D989D88FFEF7FF00E01CDAB74EF7F0F
:10FEE300F076EF7FF091EF7FF0000E2724D96E01BB
:10FEF3000E2820DA6E99CFDFFF274A282A000E2723
:10FF03005C010E2858D8A089EF7FF08BEF7FF08F2C
:10FF1300EF7FF0000E286E000E276E1F4A202ACABC
:10FF2300AB96EF7FF098EF7FF0FFEF7FF0CA9B3D3A
:10FF33002A180E3D64A0EF7FF0A2EF7FF0D6EF7F8B
:10FF4300F0000E3D6E010E3C6E2B4A2C2A100E2B38
:10FF53005C270E2C58D8A0B1EF7FF0B3EF7FF0B73A
:10FF6300EF7FF0270E2C6E100E2B6E1D501E10D837
:10FF7300B4BEEF7FF0C0EF7FF0C3EF7FF01D06D874
:10FF8300A01E06294A2A2A2A5009E1280E295CD8EC
:10FF9300A0CEEF7FF0D0EF7FF0D6EF7FF0000E2AF8
:10FFA3006E000E296E010E3B6E392A630E3964DD35
:10FFB300EF7FF0DFEF7FF0ECEF7FF0000E396E386C
:10FFC3002A130E3864E8EF7FF0EAEF7FF0ECEF7F5F
:10FFD300F0000E386E1B4A1C2AD10E1B5C030E1C4C
:10FFE30058D8A0F7EF7FF0F9EF7FF0FFEF7FF00035
:0DFFF3000E1C6E000E1B6E010E316E120012
:020000040020DA
:10000000FFFFFFFFFFFFFFFFFFFFFFFFFFFFFFFF00
:020000040030CA
:0C000000DCFF3CEFEBC7F0EFFFFFFFFF61
:00000001FF
