:0400000011EF00F00C
:100008005282D9CF30F0DACF31F0FAEC79F031C042
:0E001800DAFF30C0D9FF5292110015EF79F0D7
:10400000FFFFFFFFFFFFFFFFFFFFFFFFFFFFFFFFC0
:10401000FFFFFFFFFFFFFFFFFFFFFFFFFFFFFFFFB0
:10402000FFFFFFFFFFFFFFFFFFFFFFFFFFFFFFFFA0
:10403000FFFFFFFFFFFFFFFFFFFFFFFFFFFFFFFF90
:104040000000AA55AA55AA55AA5562636465666719
:0640500066646362FF00DC
:10EBB2000101858812008598120089888B8A8B80D2
:10EBC200210E0F01256F12008DBAEAEF75F0ECEFFE
:10EBD20075F0E5EF75F0120085908A90899289941C
:10EBE2008996000E3DEC77F012008FAAFBEF75F0CC
:10EBF200FDEF75F000EF76F0010E01EF76F0000EFA
:10EC02001200838888988396889688828394889451
:10EC1200200E0F01106F888A12000F01339B339967
:10EC22003351F30B0809336F33911F0E346F338F57
:10EC320012008A9C090E0E01FD6F8A8E170EB56FA7
:10EC42008A8A85988A9886948B941200326E32044E
:10EC5200D8A42EEF76F030EF76F033EF76F086849C
:10EC620034EF76F08694120000F000F000F000F02D
:10EC720000F000F000F000F000F000F000F000F012
:10EC820000F000F000F000F01200D598F00ED5165A
:10EC9200D6501F0B6009D66ED698D650F00B0609D7
:10ECA200D66ED58E0E01CA91C28B12000F01318F22
:10ECB200319B31993151F30B0409316FFC0E31173D
:10ECC20031AD66EF76F068EF76F061EF76F0120024
:10ECD200000EE8EC76F0020EE8EC76F0060EE8ECB8
:10ECE20076F0010EE8EC76F0020EE8EC76F0020E19
:10ECF200E8EC76F01200819C819E32C07EFF32C029
:10ED020034F033C035F0D89035323432D8903532C1
:10ED120034323450030B7F6E8180805012009E8EFD
:10ED22009E9C9E989E969E849E8A9D9C9D9A9D885E
:10ED32009D969F989F869F90440E9B6E9D8EF28C0F
:10ED420099500E01C58B1200000E0F01116F000EBB
:10ED5200196F000E216F000E266F60983F0E576FDD
:10ED62005899FC0E58173E0E5F6F6084000E5C6F60
:10ED7200608E1200000102030405060708090A0B4F
:10ED82000C0D0E0F101112130701040302050600E9
:10ED9200FFFFFFFFFFFFFFFFFFFFFFFFFFFFFFFF81
:10EDA200356E35EC76F0839835EC76F0355055ECCF
:10EDB20078F0E5EC75F0CFEC77F02E6ECFEC77F0D3
:10EDC2002D6E35EC76F0838835EC76F01200326EDB
:10EDD200ECEF76F004009EA2F1EF76F0F3EF76F01E
:10EDE200EBEF76F0F6EF76F00400F6EC75F0E8065D
:10EDF200D8B4FEEF76F000EF77F0F5EF76F032C0A0
:10EE02009AFF12000E01D8518F0B5009D86FF00EE5
:10EE1200D81700F000F000F000F000F000F000F071
:10EE220000F000F000F00E01DAA91AEF77F01CEF03
:10EE320077F014EF77F0000E1C6E12000E01D8511D
:10EE42008F0B6009D86F050EDE6FF00ED81700F039
:10EE520000F000F000F000F000F000F000F000F030
:10EE620000F00E01DAA938EF77F03AEF77F032EFDF
:10EE720077F0010E1C6E1200326E32A043EF77F073
:10EE820045EF77F048EF77F0848249EF77F084928C
:10EE920032A24EEF77F050EF77F053EF77F08484A1
:10EEA20054EF77F0849432A459EF77F05BEF77F068
:10EEB2005EEF77F084865FEF77F084961200819C94
:10EEC200819E32C07EFF32C035F033C036F0D8901A
:10EED20036323532D890363235323550030B7F6EAA
:10EEE20034C080FF8184F29E550E826EAA0E826E1D
:10EEF200818281B27FEF77F081EF77F07AEF77F05E
:10EF0200F28E8194120083948398000E366E000E66
:10EF1200356E354A362AF40E355C010E3658D8A0C5
:10EF220095EF77F097EF77F08AEF77F0230E55ECB5
:10EF320078F0CFEC77F02C6ECFEC77F02B6ECFEC35
:10EF420077F02A6ECFEC77F0296E838812008394D3
:10EF52008398060E55EC78F0000E366E000E356E74
:10EF6200354A362AF40E355C010E3658D8A0BCEF6D
:10EF720077F0BEEF77F0B1EF77F0430E55EC78F013
:10EF82003A0E55EC78F0000E55EC78F0880E55EC00
:10EF920078F0000E55EC78F08388120035EC76F0AC
:10EFA2008394000E336E800E346E000E326E35EC9A
:10EFB20076F0838635EC76F08DA2E2EF77F0E4EF1F
:10EFC20077F0E7EF77F033503410336ED890343067
:10EFD200346E35EC76F0839635EC76F0322A070EF5
:10EFE2003264F6EF77F0F8EF77F0D8EF77F033503E
:10EFF2001200000EE8EC76F0180EE8EC76F0020E45
:10F00200E8EC76F0000EE8EC76F0080EE8EC76F02C
:10F01200000EE8EC76F0000EE8EC76F0140EE8EC68
:10F0220076F0000E336E600E3324D96EDA6A000E6B
:10F03200DA22DF50E8EC76F0332A130E336424EF41
:10F0420078F026EF78F014EF78F01200000E376EA9
:10F05200000E366E980E3624D96E000E3720DA6E08
:10F0620036C032F037C033F07CEC76F0DF6E900EB3
:10F072003624D96E000E3720DA6E080E3624326E30
:10F08200000E3720336E7CEC76F0DF6E364A372A7C
:10F09200375009E1080E365CD8A052EF78F054EFF1
:10F0A20078F02BEF78F01200326E800E346E000E84
:10F0B200336E35EC76F0325034143418D8A464EF41
:10F0C20078F066EF78F069EF78F083846AEF78F091
:10F0D200839435EC76F08386D8903430346E35ECF8
:10F0E20076F0839635EC76F0332A070E33647CEFA4
:10F0F20078F07EEF78F05AEF78F035EC76F0839482
:10F1020035EC76F0120009500B1809E10A500C1880
:10F11200D8B48EEF78F090EF78F0B2EF78F00E017D
:10F12200C29B000E0924D96E020E0A20DA6EDF504D
:10F13200426E094A0A2A000E095C010E0A58D8A03A
:10F14200A5EF78F0A7EF78F0ABEF78F0000E0A6E3B
:10F15200000E096E0706D8A00806C28B42505CEC6E
:10F1620079F01200376E000E3DEC77F037C032F0C6
:10F17200336A2DC034F060EC77F0080E3724326E1B
:10F18200336A000E33222EC034F060EC77F0980E12
:10F192003724D96EDA6A000EDA222DC0DFFF900E14
:10F1A2003724D96EDA6A000EDA222EC0DFFF000E93
:10F1B200186E000E176E000E166E640E156E37C0B6
:10F1C20028F01200838C889C1C50D8A4EBEF78F0B6
:10F1D200EDEF78F0FBEF78F0000E326E00F0322A9D
:10F1E200090E3264F7EF78F0F9EF78F0EFEF78F08C
:10F1F20007EF79F0000E326E00F0322AC70E326449
:10F2020005EF79F007EF79F0FDEF78F08EA80CEFBB
:10F2120079F00EEF79F012EF79F0888C010E14EF8D
:10F2220079F0888C000E1200760EF66EED0EF76EF7
:10F23200000EF86E00EEA4F010EE2CF00900F5CFEF
:10F24200EEFFE550E150FAE1B20EF66EEB0EF76E0C
:10F25200000EF86E0900F5CF50F00900F5CF51F01D
:10F2620003EE00F011EE00F0EE6AE550E150FCE131
:10F27200E250FAE102EE00F011EE00F0EE6AE55023
:10F28200E150FCE1E250FAE101EE00F03C0EEE6AE0
:10F29200E806FDE100EE60F0440EEE6AE806FDE1EC
:10F2A20000EE01F02E0EEE6AE806FDE15290529257
:10F2B2000001C5EF7DF0416E5004D8A463EF79F0F0
:10F2C20065EF79F070EF79F0800E4118D8A46CEFF9
:10F2D20079F06EEF79F0F9EF79F0000E506E13507D
:10F2E2001410D8A477EF79F079EF79F07FEF79F005
:10F2F20041C001F0134A142AF9EF79F013041410F3
:10F30200D8A486EF79F088EF79F08CEF79F041C0DC
:10F3120002F07BEF79F0020E13181410D8A494EFC8
:10F3220079F096EF79F09AEF79F041C003F07BEF34
:10F3320079F0030E13181410D8A4A2EF79F0A4EFF9
:10F3420079F0C0EF79F041C004F002C011F0126A06
:10F3520011501210D8A4B0EF79F0B2EF79F07BEF30
:10F3620079F003C038F004C039F001502AEC7CF087
:10F37200226E000E146E000E136EF9EF79F0145027
:10F3820009E1040E135CD8A0C9EF79F0CBEF79F054
:10F39200F9EF79F0030E11243F6E000E1220406E39
:10F3A20013503F1807E114504018D8A4DBEF79F04E
:10F3B200DDEF79F0EFEF79F0FC0E1324D96E000E39
:10F3C2001420DA6E41C0DFFF03C038F004C039F008
:10F3D20001502AEC7CF0226EBAEF79F0FC0E132475
:10F3E200D96E000E1420DA6E41C0DFFF7BEF79F098
:10F3F20012009DA4FFEF79F001EF7AF004EF7AF0AA
:10F402009950A0EF7AF09DA209EF7AF00BEF7AF013
:10F412000FEF7AF09D989D88A0EF7AF00E01CDABA8
:10F4220015EF7AF017EF7AF032EF7AF0000E0B2434
:10F43200D96E020E0C20DA6E99CFDFFF0B4A0C2A2E
:10F44200000E0B5C010E0C58D8A02AEF7AF02CEFBC
:10F452007AF030EF7AF0000E0C6E000E0B6E074A57
:10F46200082ACAAB37EF7AF039EF7AF0A0EF7AF0D8
:10F47200CA9B1E2A180E1E6441EF7AF043EF7AF0FF
:10F4820077EF7AF0000E1E6E010E1D6E174A182AD3
:10F49200100E175C270E1858D8A052EF7AF054EFCE
:10F4A2007AF058EF7AF0270E186E100E176E15507C
:10F4B2001610D8B45FEF7AF061EF7AF064EF7AF069
:10F4C2001506D8A016060D4A0E2A0E5009E1050EA1
:10F4D2000D5CD8A06FEF7AF071EF7AF077EF7AF0E7
:10F4E200000E0E6E000E0D6E010E266E1B2A630EAE
:10F4F2001B647EEF7AF080EF7AF08DEF7AF0000EE7
:10F502001B6E1A2A130E1A6489EF7AF08BEF7AF0C7
:10F512008DEF7AF0000E1A6E054A062AD10E055CAE
:10F52200030E0658D8A098EF7AF09AEF7AF0A0EF7F
:10F532007AF0000E066E000E056E010E196E1200B4
:10F54200F4EF7BF0185009E1150E175CD8A0ACEF70
:10F552007AF0AEEF7AF029EF7CF0010E516E29EFCE
:10F562007CF0010E506E8684010E27EC76F0000EC0
:10F57200186E000E176E020E516E29EF7CF01850B5
:10F5820009E1290E175CD8A0C9EF7AF0CBEF7AF027
:10F5920029EF7CF0000E516E000E186E000E176EF1
:10F5A2008694000E27EC76F029EF7CF069EC76F079
:10F5B200040E516E000E186E000E176E29EF7CF0CD
:10F5C200185009E1150E175CD8A0EAEF7AF0ECEFBB
:10F5D2007AF029EF7CF0080E516E29EF7CF018507A
:10F5E20009E1C90E175CD8A0F9EF7AF0FBEF7AF0C7
:10F5F20029EF7CF0ECEF7AF0185009E1C90E175CA4
:10F60200D8A006EF7BF008EF7BF029EF7CF0ECEF5F
:10F612007AF02604D8A410EF7BF012EF7BF0D2EF41
:10F622007BF0000E266E080ED1EC76F0CEC0CFF045
:10F63200C6C0C7F0CDC0CEF0C5C0C6F0CCC0CDF0BC
:10F64200C4C0C5F0CBC0CCF0C3C0C4F0CAC0CBF0BC
:10F65200C2C0C3F0C9C0CAF0C1C0C2F0C8C0C9F0BC
:10F66200C0C0C1F02DC0C8F02EC0C0F0202A2704AF
:10F67200D8A43EEF7BF040EF7BF0D2EF7BF0000EA0
:10F68200186E000E176E070E0001606FC0C061F0A9
:10F69200C8C062F0C1C063F0C9C064F0C2C065F006
:10F6A200CAC066F0C3C067F0CBC068F0C4C069F0DE
:10F6B200CCC06AF0C5C06BF0CDC06CF0C6C06DF0B6
:10F6C200CEC06EF0C7C06FF0CFC070F00FC071F047
:10F6D2009BEF7BF025C072F024C073F0BDEF7BF08E
:10F6E20023C072F0010E736FBDEF7BF04F50726F4B
:10F6F2004EC073F0BDEF7BF04D50726F4CC073F093
:10F70200BDEF7BF04B50726F4AC073F0BDEF7BF0E0
:10F71200900E0F24D96E000E1020DA6EDF50726F39
:10F72200980E0F24D96E000E1020DA6EDF50736F20
:10F73200BDEF7BF00FC036F010C037F03750000A33
:10F74200D8B4A6EF7BF089EF7BF03650080AD8B424
:10F752006BEF7BF0010AD8B471EF7BF0030AD8B4E7
:10F7620077EF7BF0010AD8B47DEF7BF0070AD8B4BB
:10F7720083EF7BF089EF7BF00F4A102A105009E1EA
:10F782000D0E0F5CD8A0C8EF7BF0CAEF7BF0CEEF76
:10F792007BF0000E106E000E0F6EFAEC77F0000E8A
:10F7A200276E185009E1C90E175CD8A0DBEF7BF079
:10F7B200DDEF7BF029EF7CF0ECEF7AF08694000E1F
:10F7C20027EC76F0090E516EDBEF7AF0185009E162
:10F7D200020E175CD8A0F0EF7BF0F2EF7BF029EF7E
:10F7E2007CF0AEEF7AF05150366E376A3750000A2D
:10F7F200D8B4FEEF7BF029EF7CF03650000AD8B483
:10F80200A3EF7AF0010AD8B4B2EF7AF0030AD8B4BF
:10F81200C0EF7AF0010AD8B4D7EF7AF0070AD8B469
:10F82200E1EF7AF0010AD8B4F0EF7AF0030AD8B423
:10F83200FDEF7AF0010AD8B40AEF7BF00F0AD8B4D0
:10F84200DFEF7BF0010AD8B4E7EF7BF029EF7CF021
:10F8520012003C6E3C50D8A431EF7CF033EF7CF0C8
:10F8620049EF7CF0020E3818D8A43AEF7CF03CEF56
:10F872007CF049EF7CF03950D8A442EF7CF044EFA1
:10F882007CF049EF7CF0010E276E010EC4EF7DF093
:10F892003C50D8A44FEF7CF051EF7CF06DEF7CF040
:10F8A200060E3818D8A458EF7CF05AEF7CF06DEFB2
:10F8B2007CF03904D8A460EF7CF062EF7CF06DEF4D
:10F8C2007CF0050E516E010E276E000E186E000EB2
:10F8D200176E020EC4EF7DF0800E3C18D8A474EFB0
:10F8E2007CF076EF7CF08CEF7CF03850D8A47CEF83
:10F8F2007CF07EEF7CF08CEF7CF0060E3918D8A4F9
:10F9020085EF7CF087EF7CF08CEF7CF0010E276EA8
:10F91200030EC4EF7DF0800E3C18D8A493EF7CF068
:10F9220095EF7CF0AAEF7CF03850D8A49BEF7CF0E6
:10F932009DEF7CF0AAEF7CF03950D8A4A3EF7CF0C5
:10F94200A5EF7CF0AAEF7CF0030E516E040EC4EF1B
:10F952007DF0800E3C18D8A4B1EF7CF0B3EF7CF0C0
:10F9620063EF7DF0020E3818D8A4BAEF7CF0BCEF3A
:10F972007CF063EF7DF03950D8A4C2EF7CF0C4EF85
:10F982007CF063EF7DF0050E3E6E000E3D6E070EBD
:10F992003D24D96EDA6A010EDA22740E3D24E16E3C
:10F9A200E26A000EE222DFCFE7FF3D2A130E3D643A
:10F9B200DDEF7CF0DFEF7CF0C8EF7CF0010E3D6EF6
:10F9C200740E3D24D96EDA6A000EDA22DF503A6EE6
:10F9D200410E3D24F66EF76A400EF722F86A000ED9
:10F9E200F8220800F5503A18D8B4FAEF7CF0FCEF90
:10F9F2007CF0FFEF7CF0000EC4EF7DF03D2A130E89
:10FA02003D6406EF7DF008EF7DF0E1EF7CF032EF30
:10FA12007DF0000EB3EC78F060EF7DF0010EB3ECF8
:10FA220078F060EF7DF0020EB3EC78F060EF7DF0DD
:10FA3200030EB3EC78F060EF7DF0040EB3EC78F0D7
:10FA420060EF7DF0050EB3EC78F060EF7DF0060E0E
:10FA5200B3EC78F060EF7DF0070EB3EC78F060EF76
:10FA62007DF0000174513A6E3B6A3B50000AD8B4F3
:10FA72003DEF7DF060EF7DF03A50F10AD8B40AEF25
:10FA82007DF0030AD8B40FEF7DF0010AD8B414EF69
:10FA92007DF0070AD8B419EF7DF0010AD8B41EEF41
:10FAA2007DF0030AD8B423EF7DF0010AD8B428EF21
:10FAB2007DF00F0AD8B42DEF7DF060EF7DF03E505F
:10FAC200C4EF7DF0800E3C18D8A46AEF7DF06CEF95
:10FAD2007DF083EF7DF0020E3818D8A473EF7DF02D
:10FAE20075EF7DF083EF7DF0020E3918D8A47CEF1C
:10FAF2007DF07EEF7DF083EF7DF0070E516E060EF6
:10FB0200C4EF7DF0800E3C18D8A48AEF7DF08CEF14
:10FB12007DF0A6EF7DF0030E3818D8A493EF7DF0A8
:10FB220095EF7DF0A6EF7DF03950D8A49BEF7DF0E4
:10FB32009DEF7DF0A6EF7DF0060E516E000E186E61
:10FB4200000E176E070EC4EF7DF0800E3C18D8A48D
:10FB5200ADEF7DF0AFEF7DF0FCEF7CF0030E3818D7
:10FB6200D8A4B6EF7DF0B8EF7DF0FCEF7CF0040E88
:10FB72003918D8A4BFEF7DF0C1EF7DF0FCEF7CF027
:10FB8200080E516E080E1200000E0001D16F000E19
:10FB9200D06F000ED36F000ED26F000ED56F000E25
:10FBA200D46F000E0F01116F000E196F000E216F3E
:10FBB200000E266FEDEC75F0DEEC75F01AEC76F0C7
:10FBC200550E0001DC19D8A4E9EF7DF0EBEF7DF0D2
:10FBD200F4EF7DF0AA0EDB19D8B4F2EF7DF0F4EF6A
:10FBE2007DF004EF7EF0000E4F6E000E4E6E000EA2
:10FBF2004D6E000E4C6E000E4B6E000E4A6E550E90
:10FC0200DC6FAA0EDB6FE3EC78F0E806D8A40CEF09
:10FC12007EF00EEF7EF0F3EF7EF0BD8EBD508F0BC7
:10FC22005009BD6EF00EBD16BF50F00B0409BF6E39
:10FC320090AA1EEF7EF020EF7EF08DEF7EF086948C
:10FC4200000E0001D96F000ED86F04000001D84BDE
:10FC5200D92BF40ED85D010ED959D8A033EF7EF01E
:10FC620035EF7EF026EF7EF08684859087908C902B
:10FC72008888888688828884000E0F01106F888A9F
:10FC8200D59E9E9A9D9E000E3DEC77F00400E3EC1B
:10FC920078F00009D8A450EF7EF052EF7EF054EFD6
:10FCA2007EF052EF7EF090AA59EF7EF05BEF7EF08D
:10FCB20089EF7EF00E01CEA361EF7EF063EF7EF05E
:10FCC20047EF7EF0CE930001D04BD12B600ED05D7A
:10FCD200090ED159D8A070EF7EF072EF7EF047EF97
:10FCE2007EF0000ED16F000ED06F4C4A4D2AE90E05
:10FCF2004C5CFD0E4D58D8A081EF7EF083EF7EF074
:10FD02008BEF7EF0FD0E4D6EE80E4C6E47EF7EF0EF
:10FD120089EF7EF047EF7EF00400858090A094EF9B
:10FD22007EF096EF7EF0A7EF7EF0020E3DEC77F0CC
:10FD3200000E4F6E000E4E6E000E4D6E000E4C6E9B
:10FD4200000E4B6E000E4A6ED8EF7EF0010E3DECB7
:10FD520077F00E01CEA3B0EF7EF0B2EF7EF0D8EFD7
:10FD62007EF0CE930001D24BD32BD35109E1F00E9A
:10FD7200D25DD8A0BFEF7EF0C1EF7EF0D8EF7EF06B
:10FD8200000ED36F000ED26F4E4A4F2AE90E4E5C20
:10FD9200FD0E4F58D8A0D0EF7EF0D2EF7EF0D8EF14
:10FDA2007EF0FD0E4F6EE80E4E6ED8EF7EF090AAFA
:10FDB200DDEF7EF0DFEF7EF0E4EF7EF0000E3DEC53
:10FDC20077F0E2EF7EF0E3EC78F00009D8A4ECEFF4
:10FDD2007EF0EEEF7EF08DEF7EF0000E3DEC77F0E0
:10FDE200F1EF7EF01C04D8B4F9EF7EF0FBEF7EF069
:10FDF200FFEF7EF0010E1C6E1FEC77F0858087808E
:10FE02008C9057EC76F00EEC76F0A5EC76F002ECE6
:10FE120076F046EC76F090EC76F0A8EC77F027ECF2
:10FE220078F084EC77F03A0E2C18D8A41BEF7FF010
:10FE32001DEF7FF036EF7FF02B50D8A423EF7FF039
:10FE420025EF7FF036EF7FF0880E2A18D8A42CEF2A
:10FE52007FF02EEF7FF036EF7FF02950D8B434EFE9
:10FE62007FF036EF7FF039EF7FF0030E3DEC77F055
:10FE7200000E0001DA6F080ED1EC76F00001DA2BE9
:10FE8200090EDA6547EF7FF049EF7FF03CEF7FF034
:10FE92002DC024F02EC025F0F28E86848580E3ECFE
:10FEA20078F0E806D8A458EF7FF05AEF7FF06AEFB7
:10FEB2007FF0000E3DEC77F08590F29E020ED1ECC1
:10FEC20076F0609E0F01339F319F03EC77F068EF6D
:10FED2007FF0085009E1810E075CD8A073EF7FF034
:10FEE20075EF7FF079EF7FF0DAEC75F07BEF7FF062
:10FEF200DCEC75F084EC78F0A1EC7AF004001904E3
:10FF0200D8A486EF7FF088EF7FF0C9EF7FF0000E74
:10FF1200196E60B08FEF7FF091EF7FF0A6EF7FF068
:10FF220063CFD6F064CFD7F0D6C048F0D7C049F03F
:10FF3200D89049324832D8904932483248C0D6F037
:10FF420049C0D7F0D6C023F060800001D44BD52B36
:10FF5200D55109E13C0ED45DD8A0B2EF7FF0B4EFE9
:10FF62007FF0C9EF7FF0000ED56F000ED46F4A4AC2
:10FF72004B2AE80E4A5CFD0E4B58D8A0C3EF7FF027
:10FF8200C5EF7FF0C9EF7FF0FD0E4B6EE80E4A6EB3
:10FF920015501610D8B4D0EF7FF0D2EF7FF0DDEF1E
:10FFA2007FF0B80E2824D96EDA6A000EDA22DF500A
:10FFB2003DEC77F04FEF7FF0130E1A18D8A4E4EF60
:10FFC2007FF0E6EF7FF0F9EF7FF0070E5118D8A42B
:10FFD200EDEF7FF0EFEF7FF0F4EF7FF0020E3DECFC
:10FFE20077F04FEF7FF0040E3DEC77F04FEF7FF0AC
:0EFFF200000E3DEC77F04FEF7FF011EF00F0C6
:020000040020DA
:10000000FFFFFFFFFFFFFFFFFFFFFFFFFFFFFFFF00
:020000040030CA
:0C000000DCFF3CEFEBC7F0EFFFFFFFFF61
:00000001FF
