:0400000011EF00F00C
:100008005C82D9CF42F0DACF43F06EEC2DF043C0DA
:0E001800DAFF42C0D9FF5C92110018EF2EF003
:10400000FFFFFFFFFFFFFFFFFFFFFFFFFFFFFFFFC0
:10401000FFFFFFFFFFFFFFFFFFFFFFFFFFFFFFFFB0
:10402000FFFFFFFFFFFFFFFFFFFFFFFFFFFFFFFFA0
:10403000FFFFFFFFFFFFFFFFFFFFFFFFFFFFFFFF90
:10500000AA55AA55AA55AA5562636465666766647F
:105010006362FF004E6E4E50D8A411EF28F013EFDC
:1050200028F02AEF28F0020E4A18D8A41AEF28F028
:105030001CEF28F02AEF28F04B50D8A422EF28F0DC
:1050400024EF28F02AEF28F0010E0001C66F010EB0
:10505000A7EF29F04E50D8A430EF28F032EF28F017
:105060004FEF28F0060E4A18D8A439EF28F03BEF8E
:1050700028F04FEF28F04B04D8A441EF28F043EF7D
:1050800028F04FEF28F0050E5B6E010E0001C66F91
:10509000000E586E000E576E020EA7EF29F0800E1C
:1050A0004E18D8A456EF28F058EF28F06FEF28F0EC
:1050B0004A50D8A45EEF28F060EF28F06FEF28F098
:1050C000060E4B18D8A467EF28F069EF28F06FEFB1
:1050D00028F0010E0001C66F030EA7EF29F0800E25
:1050E0004E18D8A476EF28F078EF28F08DEF28F04E
:1050F0004A50D8A47EEF28F080EF28F08DEF28F0FA
:105100004B50D8A486EF28F088EF28F08DEF28F0D8
:10511000030E5B6E040EA7EF29F0800E4E18D8A484
:1051200094EF28F096EF28F046EF29F0020E4A1887
:10513000D8A49DEF28F09FEF28F046EF29F04B50C0
:10514000D8A4A5EF28F0A7EF28F046EF29F0050E28
:10515000506E000E4F6E070E4F24D96EDA6A030EA2
:10516000DA22740E4F24E16EE26A000EE222DFCFF3
:10517000E7FF4F2A130E4F64C0EF28F0C2EF28F06C
:10518000ABEF28F0010E4F6E740E4F24D96EDA6A21
:10519000000EDA22DF504C6EFF0E4F24F66EF76AD7
:1051A0004F0EF722F86A000EF8220800F5504C184E
:1051B000D8B4DDEF28F0DFEF28F0E2EF28F0000EA2
:1051C000A7EF29F04F2A130E4F64E9EF28F0EBEF19
:1051D00028F0C4EF28F015EF29F0000ED5EC2EF0E2
:1051E00043EF29F0010ED5EC2EF043EF29F0020E2B
:1051F000D5EC2EF043EF29F0030ED5EC2EF043EF63
:1052000029F0040ED5EC2EF043EF29F0050ED5EC75
:105210002EF043EF29F0060ED5EC2EF043EF29F0E7
:10522000070ED5EC2EF043EF29F0000174514C6EBF
:105230004D6A4D50000AD8B420EF29F043EF29F011
:105240004C50F10AD8B4EDEF28F0030AD8B4F2EFCD
:1052500028F0010AD8B4F7EF28F0070AD8B4FCEF19
:1052600028F0010AD8B401EF29F0030AD8B406EFF8
:1052700029F0010AD8B40BEF29F00F0AD8B410EFC7
:1052800029F043EF29F05050A7EF29F0800E4E1877
:10529000D8A44DEF29F04FEF29F066EF29F0020E68
:1052A0004A18D8A456EF29F058EF29F066EF29F0F4
:1052B000020E4B18D8A45FEF29F061EF29F066EFDA
:1052C00029F0070E5B6E060EA7EF29F0800E4E1830
:1052D000D8A46DEF29F06FEF29F089EF29F0030EC4
:1052E0004A18D8A476EF29F078EF29F089EF29F051
:1052F0004B50D8A47EEF29F080EF29F089EF29F0F8
:10530000060E5B6E000E586E000E576E070EA7EF6E
:1053100029F0800E4E18D8A490EF29F092EF29F0D2
:10532000DFEF28F0030E4A18D8A499EF29F09BEF7D
:1053300029F0DFEF28F0040E4B18D8A4A2EF29F0D3
:10534000A4EF29F0DFEF28F0080E5B6E080E1200C4
:10535000010E006E000E0F01116F000E196F000E8E
:10536000216F000E266F9BEC31F0ACEC31F053EC6A
:1053700031F070EC2EF0E806D8A4C1EF29F0C3EFAD
:1053800029F052EF2AF0BD8EBD508F0B5009BD6E33
:10539000F00EBD16BF50F00B0409BF6E90AAD3EFFC
:1053A00029F0D5EF29F01DEF2AF08694000E0001B8
:1053B000EF6F000EEE6F04000001EE4BEF2BF40ECA
:1053C000EE5D010EEF59D8A0E8EF29F0EAEF29F0E1
:1053D000DBEF29F08684859087908C90888888867A
:1053E00088828884000E0F01106F888AD59E9E9A4D
:1053F0009D9E000E2EEC30F0040070EC2EF00009A3
:10540000D8A405EF2AF007EF2AF009EF2AF007EFFA
:105410002AF090AA0EEF2AF010EF2AF01BEF2AF0E4
:105420000E01CEA316EF2AF018EF2AF0FCEF29F0B8
:10543000CE93FCEF29F01BEF2AF00400858090A0AA
:1054400024EF2AF026EF2AF02BEF2AF0020E2EECA2
:1054500030F037EF2AF0010E2EEC30F00E01CEA323
:1054600034EF2AF036EF2AF037EF2AF0CE9390AAE5
:105470003CEF2AF03EEF2AF043EF2AF0000E2EEC2C
:1054800030F041EF2AF070EC2EF00009D8A44BEF79
:105490002AF04DEF2AF01DEF2AF0000E2EEC30F02E
:1054A00050EF2AF00001BB05D8B459EF2AF05BEFAA
:1054B0002AF05FEF2AF0010EBB6F51EC30F08580CF
:1054C00087808C9011EC31F06DEC31F0BFEC30F056
:1054D00079EC31F023EC31F0D5EC30F0E3EC2FF047
:1054E00035EC2FF0BBEC2FF03A0E0001CB19D8A40D
:1054F0007CEF2AF07EEF2AF097EF2AF0CA51D8A469
:1055000084EF2AF086EF2AF097EF2AF0880EC91967
:10551000D8A48DEF2AF08FEF2AF097EF2AF0C85128
:10552000D8B495EF2AF097EF2AF09AEF2AF0030EFD
:105530002EEC30F0000E0001F06F080EA8EC30F0F9
:105540000001F02B090EF065A8EF2AF0AAEF2AF06F
:105550009DEF2AF059C0C3F05AC0C4F0F28E868481
:10556000858070EC2EF0E806D8A4B9EF2AF0BBEFE6
:105570002AF0CBEF2AF0000E2EEC30F08590F29E50
:10558000020EA8EC30F0609E0F01339F319F70EC4B
:1055900030F0C9EF2AF00001A75109E1810EA65DA4
:1055A000D8A0D5EF2AF0D7EF2AF0DBEF2AF0B5EC40
:1055B00031F0DDEF2AF0B3EC31F0A3EC2EF040EC4B
:1055C0002BF004000001B805D8A4E9EF2AF0EBEFB6
:1055D0002AF009EF2BF0000EB86F60B0F2EF2AF05E
:1055E000F4EF2AF009EF2BF063CFECF064CFEDF08D
:1055F000ECC0EAF0EDC0EBF0D890EB33EA33D89092
:10560000EB33EA33EAC0ECF0EBC0EDF0ECC0C2F0F3
:105610006080B651B711D8B410EF2BF012EF2BF019
:105620001DEF2BF0CC0EC725D96EDA6A000EDA22F8
:10563000DF502EEC30F0B0EF2AF0130EB919D8A4D9
:1056400024EF2BF026EF2BF039EF2BF0070E5B1831
:10565000D8A42DEF2BF02FEF2BF034EF2BF0020E10
:105660002EEC30F0B0EF2AF0040E2EEC30F0B0EF5C
:105670002AF0000E2EEC30F0B0EF2AF011EF00F01F
:105680008AEF2CF0585009E1150E575CD8A04BEF6B
:105690002BF04DEF2BF0BFEF2CF0010E5B6EBFEF48
:1056A0002CF0010E0001E46F8684010E45EC31F010
:1056B000000E586E000E576E020E5B6EBFEF2CF0A0
:1056C000585009E1290E575CD8A069EF2BF06BEF19
:1056D0002BF0BFEF2CF0000E5B6E000E586E000E2C
:1056E000576E8694000E45EC31F0BFEF2CF0FEECC7
:1056F00030F0040E5B6E000E586E000E576EBFEF5A
:105700002CF0585009E1150E575CD8A08AEF2BF009
:105710008CEF2BF0BFEF2CF0080E5B6EBFEF2CF080
:10572000585009E1C90E575CD8A099EF2BF09BEFB8
:105730002BF0BFEF2CF08CEF2BF0585009E1C90E85
:10574000575CD8A0A6EF2BF0A8EF2BF0BFEF2CF002
:105750008CEF2BF00001C505D8A4B1EF2BF0B3EF0F
:105760002BF068EF2CF0000EC56F080EA8EC30F09F
:10577000E2C0E3F0DAC0DBF0E1C0E2F0D9C0DAF079
:10578000E0C0E1F0D8C0D9F0DFC0E0F0D7C0D8F079
:10579000DEC0DFF0D6C0D7F0DDC0DEF0D5C0D6F079
:1057A000DCC0DDF0D4C0D5F059C0DCF05AC0D4F074
:1057B0000001BF2BC605D8A4E0EF2BF0E2EF2BF0E1
:1057C00068EF2CF0000E586E000E576E070E606FDB
:1057D000D4C061F0DCC062F0D5C063F0DDC064F01D
:1057E000D6C065F0DEC066F0D7C067F0DFC068F0F5
:1057F000D8C069F0E0C06AF0D9C06BF0E1C06CF0CD
:10580000DAC06DF0E2C06EF0DBC06FF0E3C070F0A4
:10581000B2C071F030EF2CF0C4C072F0C3C073F0AE
:1058200052EF2CF0C2C072F0010E736F52EF2CF0E9
:10583000000E726F000E736F52EF2CF0900EB225B7
:10584000D96E000EB321DA6EDF50726F980EB2255A
:10585000D96E000EB321DA6EDF50736F52EF2CF069
:10586000B2C048F0B3C049F04950000AD8B43BEF89
:105870002CF01EEF2CF04850080AD8B40CEF2CF096
:10588000010AD8B412EF2CF0030AD8B418EF2CF0A8
:10589000010AD8B418EF2CF0070AD8B418EF2CF08E
:1058A0001EEF2CF0B24BB32BB35109E10D0EB25DDC
:1058B000D8A05DEF2CF05FEF2CF063EF2CF0000E22
:1058C000B36F000EB26F63EC2FF0000E0001C66FD5
:1058D000585009E1C90E575CD8A071EF2CF073EF56
:1058E0002CF0BFEF2CF08CEF2BF08694000E45ECE3
:1058F00031F0090E5B6E7BEF2BF0585009E1020E80
:10590000575CD8A086EF2CF088EF2CF0BFEF2CF07E
:105910004DEF2BF05B50486E496A4950000AD8B4ED
:1059200094EF2CF0BFEF2CF04850000AD8B442EFAF
:105930002BF0010AD8B451EF2BF0030AD8B460EF72
:105940002BF0010AD8B477EF2BF0070AD8B481EF17
:105950002BF0010AD8B490EF2BF0030AD8B49DEFD6
:105960002BF0010AD8B4AAEF2BF00F0AD8B475EFC8
:105970002CF0010AD8B47DEF2CF0BFEF2CF0120010
:10598000536E0001E405D8A4C8EF2CF0CAEF2CF048
:10599000D5EF2CF0800E5318D8A4D1EF2CF0D3EF14
:1059A0002CF06DEF2DF0000EE46F55505610D8A47A
:1059B000DCEF2CF0DEEF2CF0E4EF2CF053C0A0F085
:1059C000554A562A6DEF2DF055045610D8A4EBEF2A
:1059D0002CF0EDEF2CF0F1EF2CF053C0A1F0E0EF44
:1059E0002CF0020E55185610D8A4F9EF2CF0FBEF4E
:1059F0002CF0FFEF2CF053C0A2F0E0EF2CF0030EE0
:105A000055185610D8A407EF2DF009EF2DF026EF0A
:105A10002DF053C0A3F0A1C0B4F0B56BB451B511D3
:105A2000D8A415EF2DF017EF2DF0E0EF2CF0A2C069
:105A30004AF0A3C04BF0A0510AEC28F00001C16F5E
:105A4000000E566E000E556E6DEF2DF0565009E1AA
:105A5000040E555CD8A02FEF2DF031EF2DF06DEF37
:105A60002DF0030EB425516E000EB521526E555027
:105A7000511807E156505218D8A441EF2DF043EFCA
:105A80002DF056EF2DF0FC0E5524D96E020E562047
:105A9000DA6E53C0DFFFA2C04AF0A3C04BF0A051A2
:105AA0000AEC28F00001C16F20EF2DF0FC0E552408
:105AB000D96E020E5620DA6E53C0DFFF554A562AC1
:105AC000565008E15528D8A068EF2DF06AEF2DF068
:105AD0006DEF2DF0000E566E556812009DA473EF09
:105AE0002DF075EF2DF078EF2DF0995017EF2EF087
:105AF0009DA27DEF2DF07FEF2DF083EF2DF09D988F
:105B00009D8817EF2EF00E01CDAB89EF2DF08BEFB6
:105B10002DF0A7EF2DF0000E0001AE25D96E020E7C
:105B2000AF21DA6E99CFDFFFAE4BAF2B000EAE5D2B
:105B3000010EAF59D8A09FEF2DF0A1EF2DF0A5EFEA
:105B40002DF0000EAF6F000EAE6FA64BA72B0E010F
:105B5000CAABADEF2DF0AFEF2DF017EF2EF0CA9BD3
:105B60000001BD2B180EBD65B8EF2DF0BAEF2DF07A
:105B7000EEEF2DF0000EBD6F010EBC6F574A582A94
:105B8000100E575C270E5858D8A0C9EF2DF0CBEF58
:105B90002DF0CFEF2DF0270E586E100E576EB65128
:105BA000B711D8B4D6EF2DF0D8EF2DF0DBEF2DF0F4
:105BB000B607D8A0B707B04BB12BB15109E1050E1C
:105BC000B05DD8A0E6EF2DF0E8EF2DF0EEEF2DF070
:105BD000000EB16F000EB06F010EC56FBA2B630ED1
:105BE000BA65F5EF2DF0F7EF2DF004EF2EF0000E73
:105BF000BA6FB92B130EB96500EF2EF002EF2EF03D
:105C000004EF2EF0000EB96FA44BA52BD10EA45DAE
:105C1000030EA559D8A00FEF2EF011EF2EF017EFBD
:105C20002EF0000EA56F000EA46F010EB86F1200CB
:105C3000220EF66E630EF76E000EF86E01EE00F0A7
:105C400010EE14F00900F5CFEEFFE550E150FAE157
:105C5000C00EF66E620EF76E000EF86E00EECCF01F
:105C600010EE19F00900F5CFEEFFE550E150FAE132
:105C70006E0EF66E630EF76E000EF86E0900F5CF2D
:105C80005BF004EE00F011EE00F0EE6AE550E1503A
:105C9000FCE1E250FAE103EE00F011EE00F0EE6AF2
:105CA000E550E150FCE1E250FAE102EE00F011EEC5
:105CB00000F0EE6AE550E150FCE1E250FAE100EE5E
:105CC00060F06C0EEE6AE806FDE15A6A596A586A9D
:105CD000576A566A556A5C905C920001A8EF29F0F9
:105CE000838C889C0001BB51D8A479EF2EF07BEF08
:105CF0002EF089EF2EF0000E446E00F0442A090EBB
:105D0000446485EF2EF087EF2EF07DEF2EF095EFB7
:105D10002EF0000E446E00F0442AC70E446493EF48
:105D20002EF095EF2EF08BEF2EF08EA89AEF2EF03E
:105D30009CEF2EF0A0EF2EF0888C010EA2EF2EF03B
:105D4000888C000E12000001AC51AE1909E1AD5172
:105D5000AF19D8B4AEEF2EF0B0EF2EF0D4EF2EF096
:105D60000E01C29B000E0001AC25D96E020EAD21C2
:105D7000DA6EDF50546EAC4BAD2B000EAC5D010EF5
:105D8000AD59D8A0C6EF2EF0C8EF2EF0CCEF2EF014
:105D9000000EAD6F000EAC6FA607D8A0A7070E01CE
:105DA000C28B5450C0EC2CF01200496E000E2EEC49
:105DB00030F049C044F0456A59C046F00AEC30F072
:105DC000080E4924446E456A000E45225AC046F02A
:105DD0000AEC30F0980E4924D96EDA6A000EDA2205
:105DE00059C0DFFF900E4924D96EDA6A000EDA221C
:105DF0005AC0DFFF000E586E000E576E000E0001F5
:105E0000B76F640EB66F49C0C7F01200446E800EC3
:105E1000466E000E456E34EC31F044504614461880
:105E2000D8A415EF2FF017EF2FF01AEF2FF083847F
:105E30001BEF2FF0839434EC31F08386D8904630FA
:105E4000466E34EC31F0839634EC31F0452A070E7F
:105E500045642DEF2FF02FEF2FF00BEF2FF034ECE8
:105E600031F0839434EC31F01200000E496E000ED4
:105E7000486E980E4824D96E000E4920DA6E48C04C
:105E800044F049C045F0EAEC30F0DF6E900E482453
:105E9000D96E000E4920DA6E080E4824446E000EBA
:105EA0004920456EEAEC30F0DF6E484A492A4950F5
:105EB00009E1080E485CD8A060EF2FF062EF2FF0E8
:105EC00039EF2FF01200000E8DEC30F0180E8DEC33
:105ED00030F0020E8DEC30F0000E8DEC30F0080E3C
:105EE0008DEC30F0000E8DEC30F0000E8DEC30F0CB
:105EF000140E8DEC30F0000E456E600E4524D96E08
:105F0000DA6A000EDA22DF508DEC30F0452A130EEB
:105F100045648DEF2FF08FEF2FF07DEF2FF0120003
:105F200034EC31F08394000E456E800E466E000E08
:105F3000446E34EC31F0838634EC31F08DA2A3EF63
:105F40002FF0A5EF2FF0A8EF2FF045504610456E2B
:105F5000D8904630466E34EC31F0839634EC31F014
:105F6000442A070E4464B7EF2FF0B9EF2FF099EFF2
:105F70002FF04550120083948398000E486E000E57
:105F8000476E474A482AF40E475C010E4858D8A08D
:105F9000CCEF2FF0CEEF2FF0C1EF2FF0230E06EC59
:105FA0002FF090EC2FF00001CB6F90EC2FF0000160
:105FB000CA6F90EC2FF00001C96F90EC2FF0000138
:105FC000C86F8388120083948398060E06EC2FF026
:105FD000000E486E000E476E474A482AF40E475C92
:105FE000010E4858D8A0F7EF2FF0F9EF2FF0ECEFA3
:105FF0002FF0430E06EC2FF03A0E06EC2FF0000EB9
:1060000006EC2FF0880E06EC2FF0000E06EC2FF0B9
:1060100083881200819C819E44C07EFF44C047F06B
:1060200045C048F0D89048324732D890483247327D
:106030004750030B7F6E46C080FF8184F29E550E51
:10604000826EAA0E826E818281B229EF30F02BEF30
:1060500030F024EF30F0F28E81941200446E44A0B0
:1060600034EF30F036EF30F039EF30F084823AEF31
:1060700030F0849244A23FEF30F041EF30F044EF33
:1060800030F0848445EF30F0849444A44AEF30F03B
:106090004CEF30F04FEF30F0848650EF30F08496C4
:1060A00012000E01D8518F0B6009D86F050EDE6FFC
:1060B000F00ED81700F000F000F000F000F000F053
:1060C00000F000F000F000F00E01DAA96AEF30F005
:1060D0006CEF30F064EF30F0010E0001BB6F120086
:1060E0000E01D8518F0B5009D86FF00ED81700F061
:1060F00000F000F000F000F000F000F000F000F020
:1061000000F00E01DAA987EF30F089EF30F081EF6F
:1061100030F0000E0001BB6F1200446E91EF30F0C2
:1061200004009EA296EF30F098EF30F090EF30F040
:106130009BEF30F0040085EC31F0E806D8B4A3EF13
:1061400030F0A5EF30F09AEF30F044C09AFF120023
:10615000476E34EC31F0839834EC31F0475006EC64
:106160002FF0A4EC31F090EC2FF05A6E90EC2FF061
:10617000596E34EC31F0838834EC31F01200000EAB
:106180000F01116F000E196F000E216F000E266FA8
:1061900060983F0E576F5899FC0E58173E0E5F6F70
:1061A0006084000E5C6F608E12009E8E9E9C9E9896
:1061B0009E969E849E8A9D9C9D9A9D889D969F9862
:1061C0009F869F90440E9B6E9D8EF28C99500E017F
:1061D000C58B1200819C819E44C07EFF44C046F066
:1061E00045C047F0D89047324632D89047324632C1
:1061F0004650030B7F6E818080501200000E8DECA4
:1062000030F0020E8DEC30F0060E8DEC30F0010E09
:106210008DEC30F0020E8DEC30F0020E8DEC30F093
:1062200012000F01318F319B31993151F30B040969
:10623000316FFC0E311731AD20EF31F022EF31F02C
:106240001BEF31F01200D598F00ED516D6501F0B6B
:106250006009D66ED698D650F00B0609D66ED58E4C
:106260000E01CA91C28B120000F000F000F000F0A5
:1062700000F000F000F000F000F000F000F000F09E
:1062800000F000F000F000F01200446E4404D8A4C6
:106290004CEF31F04EEF31F051EF31F0868452EF98
:1062A00031F0869412008A9C090E0E01FD6F8A8ED1
:1062B000170EB56F8A8A85988A9886948B941200F7
:1062C0000701040302050600FFFFFFFFFFFFFFFFBA
:0962D000FFFFFFFFFFFFFFFF01CC
:1062DA000F01339B33993351F30B0809336F339111
:1062EA001F0E346F338F120083888898839688969E
:1062FA00888283948894200E0F01106F888A120076
:10630A008FAA8AEF31F08CEF31F08FEF31F0010E66
:10631A0090EF31F0000E1200000102030405060797
:10632A0008090A0B0C0D0E0F1011121385908A9092
:10633A00899289948996000E2EEC30F012008DBA5B
:10634A00A9EF31F0ABEF31F0A4EF31F012008988F8
:10635A008B8A8B80210E0F01256F120085981200FF
:05636A0085881200010E
:02FFFE00010000
:020000040020DA
:10000000FFFFFFFFFFFFFFFFFFFFFFFFFFFFFFFF00
:020000040030CA
:0C000000DCFF3CEFEBC7F0EFFFFFFFFF61
:00000001FF
