:020000040000fa
:080000000004040000000000f0
:020000040000fa
:100800006fe220000e7f24000e018800000000002f
:100810000c00070020d82000010020001100070074
:10082000000020000000e000020032000000020092
:1008300000000000ce0c0200000000000040da00c2
:100840000000fe004440a900600020000000e0001d
:100850000300320000002000a00188004440a800ee
:100860000000060091018800800078000000eb0085
:1008700015003700e280400032a0b4009101ba00b8
:10088000e280400032a0b4009102ba00e280400051
:1008900032a0b4000002eb00472bde00f507b200e7
:1008a000602ce10004003a000059eb008301e900ec
:1008b000fdff3e00040037006128e1000100320026
:1008c0000082eb00040007001101ba000200e00002
:1008d000e8ff3a00000006003159ba008301e90040
:1008e0000c0032002159ba008301e90008003200ef
:1008f0000400e00003003a00e280400032a0b400af
:10090000f5ff370011d9ba008301e900faff3a0078
:100910008100e800e180400032a0b4000000060041
:080920000040da000000fe00b7
:020000040000fa
:020000040005f5
:0457f800ae7a000085
:020000040000fa
:020000040005f5
:0457fc00791f000011
:020000040000fa
:1000080004200000082000000c2000001020000040
:1000180014200000182000001c20000020200000f0
:1000280024200000282000002c20000030200000a0
:1000380034200000382000003c2000004020000050
:1000480044200000482000004c2000005020000000
:1000580054200000582000005c20000060200000b0
:1000680064200000682000006c2000007020000060
:1000780074200000782000007c2000008020000010
:1000880084200000882000008c20000090200000c0
:1000980094200000982000009c200000a020000070
:1000a800a4200000a8200000ac200000b020000020
:1000b800b4200000b8200000bc200000c0200000d0
:1000c800c4200000c8200000cc200000d020000080
:1000d800d4200000d8200000dc200000e020000030
:1000e800e4200000e8200000ec200000f0200000e0
:1000f800f4200000f8200000fc200000002100008f
:1001080004210000082100000c210000102100003b
:1001180014210000182100001c21000020210000eb
:1001280024210000282100002c210000302100009b
:1001380034210000382100003c210000402100004b
:1001480044210000482100004c21000050210000fb
:1001580054210000582100005c21000060210000ab
:1001680064210000682100006c210000702100005b
:1001780074210000782100007c210000802100000b
:1001880084210000882100008c21000090210000bb
:1001980094210000982100009c210000a02100006b
:1001a800a4210000a8210000ac210000b02100001b
:1001b800b4210000b8210000bc210000c0210000cb
:1001c800c4210000c8210000cc210000d02100007b
:1001d800d4210000d8210000dc210000e02100002b
:1001e800e4210000e8210000ec210000f0210000db
:0801f800f4210000f8210000d1
:020000040000fa
:1002080004220000082200000c2200001022000036
:1002180014220000182200001c22000020220000e6
:1002280024220000282200002c2200003022000096
:1002380034220000382200003c2200004022000046
:1002480044220000482200004c22000050220000f6
:1002580054220000582200005c22000060220000a6
:1002680064220000682200006c2200007022000056
:1002780074220000782200007c2200008022000006
:1002880084220000882200008c22000090220000b6
:1002980094220000982200009c220000a022000066
:1002a800a4220000a8220000ac220000b022000016
:1002b800b4220000b8220000bc220000c0220000c6
:1002c800c4220000c8220000cc220000d022000076
:1002d800d4220000d8220000dc220000e022000026
:1002e800e4220000e8220000ec220000f0220000d6
:1002f800f4220000f8220000fc2200000023000085
:1003080004230000082300000c2300001023000031
:1003180014230000182300001c23000020230000e1
:1003280024230000282300002c2300003023000091
:1003380034230000382300003c2300004023000041
:1003480044230000482300004c23000050230000f1
:1003580054230000582300005c23000060230000a1
:1003680064230000682300006c2300007023000051
:1003780074230000782300007c2300008023000001
:1003880084230000882300008c23000090230000b1
:1003980094230000982300009c230000a023000061
:1003a800a4230000a8230000ac230000b023000011
:1003b800b4230000b8230000bc230000c0230000c1
:1003c800c4230000c8230000cc230000d023000071
:1003d800d4230000d8230000dc230000e023000021
:1003e800e4230000e8230000ec230000f0230000d1
:0803f800f4230000f8230000cb
:020000040000fa
:0c092800f00000000000000001010000d1
:020000040000fa
:100934001600fa00000f9800120f9800230f980079
:100944000000eb00100798000000eb00000f780097
:100954004d0037001e007800800078000e089000db
:100964000080400010407800404798009e007800c6
:100974000e089000008040000000e800104078005d
:10098400504798009e0078000e08900000804000b8
:100994000080e80010407800604798000040eb00b9
:1009a400704798001e007800630f40002e009000ee
:1009b4003e0190009e0890002e0a9000800178006d
:1009c40004007800340407001e089000ae0890006c
:1009d4007f0160006000b800030020000200700086
:1009e400838070008201200003002000820f5000e9
:1009f400838f580008003a001e089000ae0890004b
:100a040040079800510798002e009000be00900007
:100a140060079800710798001e0090000000e00035
:100a2400100032001e0090000000e80080007800f2
:100a3400f0032000008060000000e00009003a009c
:100a44006e0090007e019000ce0090005e02900047
:100a540080017800040078000f04070010002400cf
:100a6400020407001e089000ae08900062004000d7
:100a7400e0804800100f9800210f98001e0090009d
:100a84000000e800100798009e009000f01f20006e
:100a9400808f5000afff34000080fa000000060091
:100aa4001000fa0050079800620798007307980036
:100ab4000000eb001007980010002000000f7800e1
:100ac4000000eb00200798002a003700ee00900099
:100ad4007e009000f4030700300798004107980057
:100ae4006e4190009e0090005e00900000804000e7
:100af40010407800804f510010003a007e41900071
:100b04009e0090005e009000008040000000e8001d
:100b140010407800804f510008003a000e499000c0
:100b24009e0090005e009000008040000080e8007d
:100b340010407800804f5100020032000000eb00aa
:100b4400000f78001e00900063004000100798001a
:100b54006e009000fe00900062004000e0804800bb
:100b640060079800710798002e0090000000e800cc
:100b740020079800ae009000f01f2000808f5000e6
:100b8400d2ff36001e0078000080fb000080fa00cf
:100b9400000006000400fa0017cebf000080fb002e
:100ba400010020004a09dd00c600de00810071005a
:100bb4004a00dd00008fbe009e0078001e009000f9
:100bc40022042400bf0307001e01be006081200030
:100bd40057ff07001e01be0060812000b0ff070020
:100be4000080fb000080fa00000006000200fa000a
:100bf400004f7800b3c2bf00614060000004e00011
:100c0400fcff32001e80fb00a01588000080fa0063
:100c1400000006000200fa00004f780000cfb30085
:100c2400f2ff07000040eb00f0ff07000040eb007c
:100c3400eeff07000040eb00ecff070010c0b3001c
:100c4400eaff070010c0b300e8ff07001e40780069
:100c5400e6ff070070cfb300e4ff07000080fa004e
:100c6400000006000000fa000040eb00e9ff070066
:100c7400e422a9000000370085c0bf006140600085
:100c84000004e000fcff32008500a900b402070064
:100c940040c0b30018eeb70025020700f6ff370086
:100ca4000800fa002007980031079800ae00900071
:100cb4003e0090007c030700008fbe001e407800b9
:100cc4000080fb000080fa00000006001c00fa000f
:100cd400b2c2bf00614060000004e00012023200b2
:100ce400b015800010579800b2c2bf006240600087
:100cf4000004e00001003200b222a9001e5090005e
:100d0400e24f4000080232000bc8bf000080fb0025
:100d1400500f98005e089000e10f50000700320069
:100d2400de089000e28f5000430032005e0890001d
:100d34000000e00007003200fb0137001e50900065
:100d4400e94f4000f8013a000040eb000be8b7001f
:100d5400f50137001e509000f04f400005003a00a6
:100d64001e5090000fe8b7000040eb000ee8b700fb
:100d7400ed0137000ec8bf000040e8000ee8b700e0
:100d84000ec8bf008080fb00f0802000008040007f
:100d94009e509000014878000ec8bf00e64f5000f6
:100da400e1013a0010c0b300005798000000eb00c6
:100db400700798000e003700fe009000f0802000bd
:100dc4000080400010417800fe0090004049280057
:100dd40061407800804f5100020032000040eb0077
:100de400005798007e0090000000e800700798000b
:100df4007e009000e50f5000efff36000e5090008b
:100e0400e14f500009003a0015c8bf0024eeb700b6
:100e14000000eb00604088000040eb0002e8b700ef
:100e240020c0b3000be8b700bf01370010c0b30007
:100e34000be8b700bc01370024cebf000080fb00e4
:100e4400400f98004e089000e30f5000510032000c
:100e5400ce089000e68f5000040032004e08900047
:100e6400e20f500041003200af01370000cfb30061
:100e74005eff07000040eb005cff07000040eb0052
:100e84005aff07000040eb0058ff070010c0b300f2
:100e940056ff070010c0b30054ff070070c0b30032
:100ea40052ff07000000200011002000100f9800de
:100eb400210f98001e089000ae08900078ff0700ec
:100ec400004f78001e04e000030035001e40780047
:100ed40046ff070002003700f0c3b30043ff0700da
:100ee4002000200011002000100f9800210f98000e
:100ef4001e089000ae08900069ff0700004f7800bc
:100f04001e04e000030035001e40780037ff070090
:100f140002003700f0c3b30034ff07004000200094
:100f240011002000100f9800210f98001e08900057
:100f3400ae0890005aff0700004f78001e04e0003e
:100f4400030035001e40780028ff07000200370028
:100f5400f0c3b30025ff070070cfb30023ff0700e1
:100f64000040eb000be8b7006f01370085c0bf00fd
:100f7400614060000004e000fcff32008500a9002d
:100f8400f701070010c0b30018eeb70068010700ae
:100f9400f6ff37001e509000e94f4000fa003a0077
:100fa4006140800060602000808f5000f3003a00b0
:100fb40008c8bf000080fb00c400dd0007c8bf00f4
:100fc4000080fb0000804000c400dd0006c8bf00b4
:100fd4000080fb0000804000c400dd0005c8bf00a5
:100fe4000080fb0000804000004088000ac8bf0069
:100ff4000080fb004400dd008040780009c8bf0089
:1010040000c0400017eeb70017cebf000080fb0001
:10101400600798000000eb00700798000b00370091
:10102400fe009000608120000080400010407800a5
:101034008080fb006e009000010040006007980073
:101044007e0090000000e80070079800fe00900009
:10105400f05f2000808f5000f1ff360001408000d7
:101064006e009000810f500001003200fdfe070069
:101074000000eb00700798000b0037007e01900021
:10108400fe009000608120000080400090407800c5
:101094006081200000004100014878007e0090003b
:1010a4000000e80070079800fe009000f05f200048
:1010b400808f5000f1ff360017cebf000004e0001f
:1010c4009e003a0080c0b30017eeb700f00720007e
:1010d40050079800c00f2000400798000000eb0064
:1010e40070079800430037005e0090006300b90069
:1010f400300798004e0090006300b9002007980064
:10110400be00900060812000008040009040780084
:10111400314798003e0090008000e8006081200084
:101124000080400090407800214798003e009000e5
:101134008080e800608120000080400090407800ba
:1011440011479800ae0090006081200000804000ac
:10115400be409000014878002e0090008000e80016
:101164006081200000804000ae409000014878007b
:101174002e0090008080e800608120008080400084
:1011840040c0b300804878002e009000e300400087
:1011940060812000008040009e409000014878005b
:1011a4002e009000e4004000608120008080400018
:1011b4000040eb00804878002e009000e5004000dd
:1011c40060812000808040000040eb00804878006f
:1011d4005e0090000000e900500798004e00900067
:1011e4000080e900400798007e0090000000e800bd
:1011f40070079800fe009000d0072000808f5000f8
:10120400b9ff3600f00f200050079800c01f2000df
:10121400400798000000eb00700798004300370077
:101224005e0090006300b900300798004e00900003
:101234006300b90020079800be0090006081200080
:101244000080400090407800314798003e009000b4
:101254008000e80060812000008040009040780019
:10126400214798003e0090008080e80060812000c3
:10127400008040009040780011479800ae00900034
:101284006081200000804000be409000014878004a
:101294002e0090008000e800608120000080400063
:1012a400ae409000014878002e0090008080e80055
:1012b400608120008080400040c0b30080487800f6
:1012c4002e009000e3004000608120000080400078
:1012d4009e409000014878002e009000e4004000f9
:1012e40060812000808040000040eb00804878004e
:1012f4002e009000e50040006081200080804000c6
:101304000040eb00804878005e0090000000e90097
:10131400500798004e0090000080e90040079800b4
:101324007e0090000000e80070079800fe00900026
:10133400d0072000808f5000b9ff360017cebf00c1
:101344000004e0000400320017cebf00e74f500055
:1013540001003e0043fe07000efe0700e14f50006f
:10136400010032003ffe070010c0b30029fe070051
:101374000040eb0018eeb7000100370039fe07000b
:101384000040eb000be8b70060408000300f98008d
:10139400be089000e28f5000220032003e08900008
:1013a400e20f500007003e00be0890000100e0007c
:1013b4000e0032003e089000e10f5000120032008f
:1013c40036003700be089000e48f5000230032003e
:1013d4003e089000e40f500019003900be08900048
:1013e400e58f5000240032002c0037001e5090007e
:1013f4006f4060000ae8b700604080000000e80029
:1014040060408800480037001e5090006f40600024
:1014140009e8b700604080000000e80060408800f0
:10142400410037001e5090006f40600008e8b7008c
:10143400604080000000e800604088003a00370007
:101444001e5090006f40600007e8b70060408000c5
:101454000000e80060408800330037001e50900010
:101464006f40600006e8b700604080000000e800bc
:10147400604088002c0037001e5090006f406000d0
:1014840005e8b70010c0b30004e8b700604080006e
:101494000000e800604088002300370004c8bf0053
:1014a400e14f500007003a000040eb0004e8b700a9
:1014b4001e5090006f4060004400dd0003e8b70058
:1014c4001900370010c0b30004e8b70002c8bf0019
:1014d4000004e00013003a00604080006601500000
:1014e4001e509000ef40600003c8bf0080c0700031
:1014f40060812000000041000148780060408000c5
:101504000000e800604088006140800060602000c6
:10151400808f500004003a0010c0b30002e8b70006
:1015240001003700cffd07000080fa00000006002c
:101534000200fa0018cebf000080fb00000f780004
:101544001e007800e20f5000430032001e007800b5
:10155400e20f500007003c001e0078000000e0008d
:101564000b0032001e007800e10f50002100320011
:10157400790037001e007800e30f50004a00320063
:101584001e007800e40f5000610032007200370042
:10159400e07080000000e00014003200e070800081
:1015a4000000e800e0708800e1708000703e2000d8
:1015b400808f5000680036000000eb00e070880067
:1015c4001ecebf000004e00004003a0010c0b300c7
:1015d4001eeeb700e422a8005f0037000040eb00d5
:1015e4001eeeb700e422a9005b003700e422a90044
:1015f40059003700e07080000000e0001400320061
:10160400e07080000000e800e0708800e170800075
:10161400703e2000808f50004f0036000000eb0029
:10162400e07088001ecebf000004e00004003a0011
:1016340010c0b3001eeeb700e422a8004600370035
:101644000040eb001eeeb700e422a9004200370080
:10165400e422a80040003700e07080000000e800a9
:10166400e0708800e1708000703e2000808f5000a0
:10167400390036000000eb00e07088001ecebf0089
:101684000004e00004003a0010c0b3001eeeb700ee
:10169400e422a800300037000040eb001eeeb70043
:1016a400e422a9002c003700e07080000000e8006c
:1016b400e0708800e1708000703e2000808f500050
:1016c400250036000000eb00e0708800d070800038
:1016d4000000e0000b003200d07080006100600068
:1016e4000004e00002003200e422a90001003700f7
:1016f400e422a800d07080000000e900d0708800c7
:101704001500370010c0b30018eeb7001200370000
:10171400e07080000000e800e0708800e070800065
:10172400fd0f50000c0036000000eb00e070880054
:101734001ecebf000004e00004003a0010c0b30055
:101744001eeeb700e422a800030037000040eb00bf
:101754001eeeb700e422a9000080fa000000060093
:101764000200fa0000718000000f78001e0078006b
:10177400e10f5000140032001e007800e10f500009
:10178400070039001e007800e20f500017003200f5
:101794001e007800e30f50002500320033003700ac
:1017a400107180000000e00004003200107180001d
:1017b4000000e900107188002c00370010002000a0
:1017c4000071880029003700e2c2bf000042b20065
:1017d4000004e0002500320040062000107188005b
:1017e400200020000071880020003700e2c2bf0002
:1017f4000042b2000004e0000a00320010718000d0
:101804000000e00004003200107180000000e900d4
:101814001071880015003700300020000071880026
:101824001200370010002000007188000f003700fc
:10183400e2c2bf000042b2000004e00009003a0026
:10184400107180000000e00004003200107180007c
:101854000000e9001071880004003700e482a90048
:101864000200370020032000107188000080fa0075
:10187400000006000000fa00b1e2a900b1a2a9002c
:10188400b182a900b162a900112b20009140780017
:10189400c0cfb30000c06000b1e2b700b0e2a9005d
:1018a400b0c2a900b0a2a900b082a900b062a90088
:1018b400012b20009140780090cfb30000c060005d
:1018c400b0e2b700b002a90090002000c015880063
:1018d400b3e2a900b3c2a900b3a2a800b362a900ed
:1018e400b342a800b322a900b302a900b2c2bf0048
:1018f400f043b200b2e2b700b2a2a900b282a900da
:10190400b262a900b242a900b222a900b202a9009f
:101914008f20a9009f20a9008f00a9009f00a90083
:10192400b1e2a800b342a8000080fa00000006005b
:101934000000fa000000eb00500888007038210015
:10194400700888008500a9009500a90013e1a8008b
:101954000080fa00000006000400fa001007980056
:101964000000eb00000f78000600370085c0bf00c0
:10197400614060000004e000fcff32008500a90023
:101984001e0fe8001e0090009e0f1000f7ff3900a4
:101994000080fa00000006000000fa00e2c2bf0066
:1019a4000044b2000004e0000100320042000700dd
:1019b400e0012000d016880010702000c0168800b6
:1019c4001000200010178800000e20000017880067
:1019d40020002000203588003000200030358800a9
:1019e4000040200010358800b0002000b035880089
:1019f40030502000b0368800c0e12100c036880095
:101a04000080eb0060198800300020005019880025
:101a1400e482a800e402a800c5ff070095ff0700c0
:101a2400a0002000ccff0700e462a90020002000f1
:101a3400c9ff0700e462a80000003700a3fc070008
:101a440085c0bf00614060000004e000fbff32007d
:101a54008500a90042ff0700b5fe0700f7ff370025
:101a6400900188008100780000000600003b880097
:101a740050052000303b8800a00a2000303b88003d
:101a840061e7a800000000000000000061e7af006b
:101a9400feff370000000600900188008308bb00a9
:101aa4008288bb0000000600900188001100ba0083
:101ab4009180ba000000060000200400000000002d
:101ac400000006003200f800023b88009001880004
:101ad4008108bb0050052000303b8800a00a20008c
:101ae400303b880061e7a80000000000000000000f
:101af40061e7af00feff37003200f9000000060086
:020000040000fa
:101b0400180e00000c00000002000000020000009b
:101b14000000000000000000006400000008000055
:101b24001806000000000000240e0000020000005f
:0c1b340002000000ff00000000000000a4
:00000001FF
