:020000040000fa
:0200000400807a
:080000000001040000000000f3
:020000040000fa
:0200000400807a
:04000800c40500002b
:020000040000fa
:0200000400807a
:04000c00c405000027
:020000040000fa
:0200000400807a
:04001000c405000023
:020000040000fa
:0200000400807a
:04001400c40500001f
:020000040000fa
:0200000400807a
:04001800c40500001b
:020000040000fa
:0200000400807a
:04001c00c405000017
:020000040000fa
:0200000400807a
:04002000c405000013
:020000040000fa
:0200000400807a
:04002400c40500000f
:020000040000fa
:0200000400807a
:04002800c40500000b
:020000040000fa
:0200000400807a
:04002c00c405000007
:020000040000fa
:0200000400807a
:04003000c405000003
:020000040000fa
:0200000400807a
:040034004404000080
:020000040000fa
:0200000400807a
:04003800c4050000fb
:020000040000fa
:0200000400807a
:04003c00c4050000f7
:020000040000fa
:0200000400807a
:04004000c4050000f3
:020000040000fa
:0200000400807a
:04004400c4050000ef
:020000040000fa
:0200000400807a
:04004800c4050000eb
:020000040000fa
:0200000400807a
:04004c00c4050000e7
:020000040000fa
:0200000400807a
:04005000c4050000e3
:020000040000fa
:0200000400807a
:040054002c05000077
:020000040000fa
:0200000400807a
:040058005e05000041
:020000040000fa
:0200000400807a
:04005c00c4050000d7
:020000040000fa
:0200000400807a
:04006000c4050000d3
:020000040000fa
:0200000400807a
:04006400c4050000cf
:020000040000fa
:0200000400807a
:04006800c4050000cb
:020000040000fa
:0200000400807a
:04006c00c4050000c7
:020000040000fa
:0200000400807a
:04007000c4050000c3
:020000040000fa
:0200000400807a
:04007400c4050000bf
:020000040000fa
:0200000400807a
:04007800c4050000bb
:020000040000fa
:0200000400807a
:04007c00c4050000b7
:020000040000fa
:0200000400807a
:04008000c4050000b3
:020000040000fa
:0200000400807a
:04008400c4050000af
:020000040000fa
:0200000400807a
:04008800c4050000ab
:020000040000fa
:0200000400807a
:04008c00c4050000a7
:020000040000fa
:0200000400807a
:04009000c4050000a3
:020000040000fa
:0200000400807a
:04009400c40500009f
:020000040000fa
:0200000400807a
:04009800c40500009b
:020000040000fa
:0200000400807a
:04009c00c405000097
:020000040000fa
:0200000400807a
:0400a000c405000093
:020000040000fa
:0200000400807a
:0400a400c40500008f
:020000040000fa
:0200000400807a
:0400a800c40500008b
:020000040000fa
:0200000400807a
:0400ac00c405000087
:020000040000fa
:0200000400807a
:0400b000c405000083
:020000040000fa
:0200000400807a
:0400b400c40500007f
:020000040000fa
:0200000400807a
:0400b800c40500007b
:020000040000fa
:0200000400807a
:0400bc00c405000077
:020000040000fa
:0200000400807a
:0400c000c405000073
:020000040000fa
:0200000400807a
:0400c400c40500006f
:020000040000fa
:0200000400807a
:0400c800c40500006b
:020000040000fa
:0200000400807a
:0400cc00c405000067
:020000040000fa
:0200000400807a
:0400d000c405000063
:020000040000fa
:0200000400807a
:0400d400c40500005f
:020000040000fa
:0200000400807a
:0400d800c40500005b
:020000040000fa
:0200000400807a
:0400dc00c405000057
:020000040000fa
:0200000400807a
:0400e000c405000053
:020000040000fa
:0200000400807a
:0400e400c40500004f
:020000040000fa
:0200000400807a
:0400e800c40500004b
:020000040000fa
:0200000400807a
:0400ec00c405000047
:020000040000fa
:0200000400807a
:0400f000c405000043
:020000040000fa
:0200000400807a
:0400f400c40500003f
:020000040000fa
:0200000400807a
:0400f800c40500003b
:020000040000fa
:0200000400807a
:0400fc00c405000037
:020000040000fa
:0200000400807a
:04010000c405000032
:020000040000fa
:0200000400807a
:04010400c40500002e
:020000040000fa
:0200000400807a
:04010800c40500002a
:020000040000fa
:0200000400807a
:04010c00c405000026
:020000040000fa
:0200000400807a
:04011000c405000022
:020000040000fa
:0200000400807a
:04011400c40500001e
:020000040000fa
:0200000400807a
:04011800c40500001a
:020000040000fa
:0200000400807a
:04011c00c405000016
:020000040000fa
:0200000400807a
:04012000c405000012
:020000040000fa
:0200000400807a
:04012400c40500000e
:020000040000fa
:0200000400807a
:04012800c40500000a
:020000040000fa
:0200000400807a
:04012c00c405000006
:020000040000fa
:0200000400807a
:04013000c405000002
:020000040000fa
:0200000400807a
:04013400c4050000fe
:020000040000fa
:0200000400807a
:04013800c4050000fa
:020000040000fa
:0200000400807a
:04013c00c4050000f6
:020000040000fa
:0200000400807a
:04014000c4050000f2
:020000040000fa
:0200000400807a
:04014400c4050000ee
:020000040000fa
:0200000400807a
:04014800c4050000ea
:020000040000fa
:0200000400807a
:04014c00c4050000e6
:020000040000fa
:0200000400807a
:04015000c4050000e2
:020000040000fa
:0200000400807a
:04015400c4050000de
:020000040000fa
:0200000400807a
:04015800c4050000da
:020000040000fa
:0200000400807a
:04015c00c4050000d6
:020000040000fa
:0200000400807a
:04016000c4050000d2
:020000040000fa
:0200000400807a
:04016400c4050000ce
:020000040000fa
:0200000400807a
:04016800c4050000ca
:020000040000fa
:0200000400807a
:04016c00c4050000c6
:020000040000fa
:0200000400807a
:04017000c4050000c2
:020000040000fa
:0200000400807a
:04017400c4050000be
:020000040000fa
:0200000400807a
:04017800c4050000ba
:020000040000fa
:0200000400807a
:04017c00c4050000b6
:020000040000fa
:0200000400807a
:04018000c4050000b2
:020000040000fa
:0200000400807a
:04018400c4050000ae
:020000040000fa
:0200000400807a
:04018800c4050000aa
:020000040000fa
:0200000400807a
:04018c00c4050000a6
:020000040000fa
:0200000400807a
:04019000c4050000a2
:020000040000fa
:0200000400807a
:04019400c40500009e
:020000040000fa
:0200000400807a
:04019800c40500009a
:020000040000fa
:0200000400807a
:04019c00c405000096
:020000040000fa
:0200000400807a
:0401a000c405000092
:020000040000fa
:0200000400807a
:0401a400c40500008e
:020000040000fa
:0200000400807a
:0401a800c40500008a
:020000040000fa
:0200000400807a
:0401ac00c405000086
:020000040000fa
:0200000400807a
:0401b000c405000082
:020000040000fa
:0200000400807a
:0401b400c40500007e
:020000040000fa
:0200000400807a
:0401b800c40500007a
:020000040000fa
:0200000400807a
:0401bc00c405000076
:020000040000fa
:0200000400807a
:0401c000c405000072
:020000040000fa
:0200000400807a
:0401c400c40500006e
:020000040000fa
:0200000400807a
:0401c800c40500006a
:020000040000fa
:0200000400807a
:0401cc00c405000066
:020000040000fa
:0200000400807a
:0401d000c405000062
:020000040000fa
:0200000400807a
:0401d400c40500005e
:020000040000fa
:0200000400807a
:0401d800c40500005a
:020000040000fa
:0200000400807a
:0401dc00c405000056
:020000040000fa
:0200000400807a
:0401e000c405000052
:020000040000fa
:0200000400807a
:0401e400c40500004e
:020000040000fa
:0200000400807a
:0401e800c40500004a
:020000040000fa
:0200000400807a
:0401ec00c405000046
:020000040000fa
:0200000400807a
:0401f000c405000042
:020000040000fa
:0200000400807a
:0401f400c40500003e
:020000040000fa
:0200000400807a
:0401f800c40500003a
:020000040000fa
:0200000400807a
:0401fc00c405000036
:020000040000fa
:0200000400807a
:10020000af1b22000eff27000e0188000000000037
:10021000000020000000e000020032000001200089
:100220002002880014000700590207000000e000c7
:1002300003003a00803e2f0001002000020037003a
:100240000000200001002000810f7000010032003a
:1002500014000700000020000000e000020032004f
:100260000000020000000000bec502000000000007
:100270000040da000000fe004440a900c04c270006
:100280000000e00003003200002020009001880000
:100290004440a800000006008a1f78008b1f7800e9
:1002a00000000600a1028800800478000000eb0036
:1002b0001f003700e284440054a0b4009905ba003e
:1002c000e284440054a0b4009906ba00e2844400d9
:1002d00054a0b4000006eb00476fde00fd07b2003b
:1002e000ae018800636ce10003003a00eaff0700fa
:1002f0000000eb000e003700606ce10008003a00df
:10030000004deb000a05e800020039003420ec0043
:100310000af0a0008b05e900f9ff3e000400370059
:100320006168e100010032000086eb000b0007006d
:1003300019c7ba001905ba000e04e00003003a001c
:100340000a00e000dbff3a0000000600fe07b200f2
:10035000ae0288008a047800f5ff37000cd0a300b5
:10036000e20f4d001c00390089027800354dba00bb
:100370000a05e800020039003420ec000af0a00071
:100380008b05e9000f003200254dba000a05e80090
:10039000020039003420ec000af0a0008b05e900cf
:1003a000080032000c00e0000600320015cdba0053
:1003b0000a05e800020039003420ec000af0a00031
:1003c0008b05e9008984e80054a0b4000b00e0002c
:1003d000e2ff3a00000006009902ba00055d7800cd
:1003e0008b05e900f7ff3200c82ade00055d7800c2
:1003f0008b05e900f3ff32000c00e000f1ff320052
:1004000019ddba00eeff3700029104000000000081
:100410000a91040000000000129104000000000096
:100420001a91040000000000229104000000000066
:100430002a91040000000000329104000000000036
:100440003a91040000000000429104000000000006
:100450004a910400000000005291040000000000d6
:100460005a910400000000006291040000000000a6
:100470006a91040000000000729104000000000076
:100480007a91040000000000829104000000000046
:100490008a91040000000000929104000000000016
:1004a0009a91040000000000a291040000000000e6
:1004b000aa91040000000000b291040000000000b6
:1004c000ba91040000000000c29104000000000086
:1004d000ca91040000000000d29104000000000056
:1004e000da91040000000000e29104000000000026
:1004f000ea91040000000000f291040000000000f6
:10050000fa910400000000000292040000000000c4
:100510000a92040000000000129204000000000093
:100520001a92040000000000229204000000000063
:100530002a92040000000000329204000000000033
:100540003a92040000000000429204000000000003
:100550004a920400000000005292040000000000d3
:100560005a920400000000006292040000000000a3
:100570006a92040000000000729204000000000073
:100580007a92040000000000829204000000000043
:100590008a9204000000000096920400000000000f
:1005a0009e92040000000000a692040000000000db
:1005b000ae92040000000000b692040000000000ab
:1005c000be92040000000000c6920400000000007b
:1005d000ce92040000000000d6920400000000004b
:1005e000de92040000000000e6920400000000001b
:1005f000ee92040000000000f692040000000000eb
:10060000fe920400000000000693040000000000b9
:100610000e93040000000000169304000000000088
:1006200022930400000000002e930400000000004c
:100630004e930400000000005693040000000000e8
:100640005e930400000000006693040000000000b8
:100650006e93040000000000769304000000000088
:100660007e93040000000000869304000000000058
:100670008e93040000000000969304000000000028
:100680009e93040000000000a693040000000000f8
:10069000ae93040000000000b693040000000000c8
:1006a000be93040000000000c69304000000000098
:1006b000ce93040000000000d69304000000000068
:1006c000de93040000000000e69304000000000038
:1006d000ee93040000000000f69304000000000008
:1006e000fe930400000000000694040000000000d7
:1006f0000e940400000000001694040000000000a6
:100700001e94040000000000269404000000000075
:100710002e94040000000000369404000000000045
:100720003e94040000000000469404000000000015
:100730004e940400000000005694040000000000e5
:100740005e940400000000006694040000000000b5
:100750006e94040000000000769404000000000085
:100760007e94040000000000869404000000000055
:1007700092940400000000009a940400000000001d
:10078000a294040000000000aa94040000000000ed
:10079000b294040000000000ba94040000000000bd
:1007a000c294040000000000ca940400000000008d
:1007b000d294040000000000da940400000000005d
:1007c000e294040000000000a69504000000000070
:1007d000ae95040000000000b69504000000000083
:1007e000be95040000000000129604000000000006
:1007f0001a960400000000009c960400000000000f
:1008000036970400000000003e970400000000003e
:100810002698040000000000c69a040000000000b2
:10082000ce9a040000000000d69a040000000000e8
:10083000de9a040000000000e69a040000000000b8
:10084000ee9a040000000000f69a04000000000088
:10085000a49b040000000000ac9b0400000000000a
:10086000b49b040000000000bc9b040000000000da
:10087000c49b040000000000cc9b040000000000aa
:10088000c2e1040000000000809fbe003200f800ba
:100890003400f80010002000a00188000020200093
:1008a000900188000000fa008860a9008044800060
:1008b0000000e00003003200804480000000e900f6
:1008c00080448800104180000000e800104188004a
:1008d0001141800010032000808f50005900340027
:1008e0002228ef0010c0b30024e8b700d0418000f8
:1008f0000000e800d0418800d1418000f070220063
:10090000808f50000200360000712200d041880024
:10091000f04280000000e00003003200f04280005e
:100920000000e900f042880021438000703e200072
:10093000808f500003003e00204380000000e8004c
:10094000204388008086200090007800703e2000c0
:10095000808f500005003e00808620001000780047
:100960008000e80080862000010878008086200052
:1009700090009000703e2000808f500005003e00e7
:1009800080862000100090008000e8008086200013
:100990001100980080862000a0009000703e20008a
:1009a000808f500005003e008086200020009000cf
:1009b0008000e800808620002100980080862000ca
:1009c000b0009000703e2000808f500005003e0077
:1009d00080862000300090008000e80080862000a3
:1009e00031009800904380000000e80090438800a8
:1009f00091438000f0c12100808f50000300360039
:100a00007228ef0010c0b30074e8b700b043800054
:100a10000000e800b0438800b1438000f0182000d7
:100a2000808f5000010036007628ef0030468000ad
:100a30000000e00003003200304680000000e900c2
:100a4000304688000080fa003400f9003200f900d6
:100a50004f00be00004006003600f800809fbe0038
:100a6000829fbe00849fbe00869fbe003200f800b9
:100a70003400f80010002000a001880000202000b1
:100a8000900188000000fa008960a900f01c800035
:100a900000407800ae6d07000080fa003400f900d5
:100aa0003200f9004f03be004f02be004f01be00ee
:100ab0004f00be003600f90000400600809fbe00d7
:100ac0003200f8003400f80010002000a001880077
:100ad00000202000900188000000fa008980a90011
:100ae0008141800090418000808f500017003a00c3
:100af0009980a9001f00370090418000e154210037
:100b0000614078000000fb00e01c880090418000fc
:100b10000000e8009041880091418000f07f2000b3
:100b2000808f5000010036003228ef0081418000a4
:100b300090418000808f500002003a009980a90007
:100b4000030037009980a800010037000000000072
:100b5000d11c800000202000008060000000e00028
:100b600004003a008141800090418000808f500055
:100b7000e1ff3a000080fa003400f9003200f90089
:100b80004f00be00004006000040da000000fe00fa
:100b9000000005006022b800060220000000d0001e
:100ba0008180d2000482d2008582d2000000a000a1
:100bb0000202520083825a00030031000202420006
:100bc00083824a000000a1000603e900f3ff3a0017
:100bd0000000060080007800010178003104e00088
:0c0be000fdff3a0000005100000006007c
:020000040000fa
:0200000400807a
:100bec00ffff0000ffff0000ffff0000ffff000001
:100bfc00ffff0000ffff0000ffff0000ffff0000f1
:100c0c00ffff0000ffff0000ffff0000ffff0000e0
:100c1c00ffff0000ffff0000ffff0000ffff0000d0
:100c2c00ffff0000ffff0000ffff0000ffff0000c0
:100c3c00ffff00005dff000078f60000b5ed00003e
:100c4c0032e50000d2ec0000d1ec0000d2ec000048
:100c5c00f2ec0000d1e40000d2ec0000d1e4000082
:100c6c00d2ec0000b1ec0000d1ec0000b2e40000ca
:100c7c00d2ec0000d2ec0000d1ec0000d1ec000072
:100c8c00d1ec000074ed00007df70000ffff0000c8
:100c9c00ffff0000ffff0000ffff0000ffff000050
:100cac00ffff0000ffff0000ffff0000bfff000080
:100cbc0096ed000091ec0000d2e40000d1ec0000b5
:100ccc00d1e40000d2e40000d2ec0000d1e400003a
:100cdc00d2ec0000d1ec0000d1e40000d1ec00001b
:100cec00d2ec0000d2ec0000b1ec000032ed0000c0
:100cfc001cf70000ffff0000ffff0000ffff0000db
:100d0c00ffff0000ffff0000ffff0000ffff0000df
:100d1c00deff000099f60000f2ec0000d1ec0000c0
:100d2c00d1ec0000d2ec0000d1ec0000d1e40000ca
:100d3c00d2ec0000d1ec0000d1ec0000d1ec0000b2
:100d4c00d1ec0000d2ec0000d2ec0000d2ec0000a0
:100d5c00d1e40000b2e40000b2ec0000d2ec0000e0
:100d6c00d2ec0000d1ec0000d2ec0000d2ec000080
:100d7c00f2ec0000baf60000dfff000038f60000cd
:100d8c00d1e40000d1ec0000d1ec0000d1ec00006b
:100d9c00d1ec0000d2ec0000d1f40000d2ec000049
:100dac00d2ec0000d2ec0000d1ec0000d1ec000041
:100dbc00b2e40000d2ec0000b2ec0000d1ec000078
:100dcc00d2e40000d1ec0000d1ec0000f2ec000009
:100ddc00d1ec0000b2ec0000b0e40000b9ee000071
:100dec00ffff0000ffff0000ffff0000ffff0000ff
:100dfc00ffff0000ffff0000ffff0000ffff0000ef
:100e0c00ffff0000ffff0000ffff0000ffff0000de
:100e1c00ffff0000ffff0000ffff0000ffff0000ce
:100e2c00ffff0000ffff0000ffff0000ffff0000be
:100e3c00ffff00005eff000079f6000095ed00005a
:100e4c0013ed0000d2ec0000b2ec0000d1ec00007d
:100e5c00f2ec0000d2ec0000d1ec0000d1ec000070
:100e6c00d1ec0000d2ec0000d1ec0000d2e4000088
:100e7c00b2ec0000d1ec0000d2ec0000b2ec0000af
:100e8c00d1e40000d2ec0000d1ec0000f1ec000049
:100e9c00d1ec0000b1ec0000d5e500009eff000095
:100eac00ffff0000ffff0000ffff0000ffff00003e
:100ebc00ffff0000ffff0000ffff0000beff00006f
:100ecc00d5ed0000b1e40000d1e40000d1ec00004d
:100edc00d1e40000d2ec0000d1ec0000d2ec000018
:100eec00d2e40000d1e40000d1ec0000d2ec000010
:100efc00d1ec0000d1ec0000b0e4000012ed0000d9
:100f0c003cff0000ffff0000ffff0000ffff0000a0
:100f1c00ffff0000ffff0000ffff0000ffff0000cd
:100f2c00dfff000058f60000d2ec0000d1ec00000e
:100f3c00d2ec0000d2ec0000d2ec0000d1ec0000ae
:100f4c00d1ec0000d2ec0000d1ec0000b0e40000c9
:100f5c0016ee0000dfff0000ffff0000ffff0000a7
:100f6c00ffff0000ffff0000dfff00001bff000081
:100f7c0053ed0000b1ec0000d2ec0000d1ec00000d
:100f8c00f1ec0000d1ec0000d1ec0000d1ec000041
:100f9c00d1ec0000d1ec000053e500007df700001f
:100fac00ffff0000ffff0000ffff0000dfff00005d
:100fbc001cff000017ee000074ed000012ed0000a5
:100fcc00d1e40000d1ec0000d2ec0000d2ec000027
:100fdc00d1e40000d2ec0000d1ec0000d2ec000017
:100fec00d2ec0000d1ec0000d1ec0000d2ec0000ff
:100ffc00b2ec0000d2ec0000b2ec0000d1ec00002e
:10100c00d2ec0000f1ec0000d2ec0000d1ec0000be
:10101c00b1e4000058ee0000ffff0000daf600001b
:10102c00f1e40000b1e40000b2ec0000d2ec0000ee
:10103c00d2ec0000d1ec0000d2e40000d1e40000be
:10104c00d2ec0000b1ec0000d2e40000f2ec0000a5
:10105c00d1ec0000d2ec0000d1e40000d1ec000097
:10106c00d2ec0000d1ec0000d2ec0000d1ec00007e
:10107c00d1e40000d1ec0000b2ec0000d1ec000097
:10108c00d2ec0000d1ec0000b1ec0000d1e4000087
:10109c00b1ec0000d1ec0000d2ec0000d2ec00006e
:1010ac00d1ec000090ec000057ee0000ffff0000b8
:1010bc00ffff0000ffff0000ffff0000ffff00002c
:1010cc00ffff0000ffff0000ffff0000ffff00001c
:1010dc00ffff0000ffff0000ffff0000ffff00000c
:1010ec00ffff0000ffff0000ffff0000ffff0000fc
:1010fc00ffff0000ffff00009eff0000b6ed0000a8
:10110c00ade3000046da0000c3d90000a3d900000b
:10111c0083d9000082d9000083d9000082d9000055
:10112c0063d1000083d9000063d9000083d900008b
:10113c0083d9000082d9000083d9000083d9000034
:10114c0063d9000083d9000083d9000062d9000064
:10115c006bdb00003cf70000ffff0000ffff00000e
:10116c00ffff0000ffff0000ffff0000ffff00007b
:10117c00ffff0000ffff0000f7ed0000e5d90000c5
:10118c0042d1000083e1000063d1000082d900004d
:10119c0083d9000083d9000082d9000082d90000d5
:1011ac0083d9000082d1000082d9000083d90000cd
:1011bc0083d9000062d9000005da000017f60000a0
:1011cc00ffff0000ffff0000ffff0000ffff00001b
:1011dc00ffff0000ffff0000ffff00007dff00008d
:1011ec008fec000083d9000062d9000083d9000085
:1011fc0083d9000083d9000083d9000083d9000073
:10120c00a3d1000083d9000082d9000063d1000073
:10121c0083e1000063d9000062d9000063d90000ab
:10122c0083d9000082d9000083d9000062d9000064
:10123c0082d9000083d9000061d9000026da0000b1
:10124c0016f600007dff0000cee3000062d900001e
:10125c0082d9000083d90000a3d9000083d90000f3
:10126c0063d9000083d9000063d9000083e100003a
:10127c0082d9000083d9000063d9000083d9000013
:10128c0083d1000082d9000063d9000082d900000c
:10129c0083d9000082d9000082d1000083d90000dc
:1012ac0021d90000c4d9000017ee0000ffff000098
:1012bc00ffff0000ffff0000ffff0000ffff00002a
:1012cc00ffff0000ffff0000ffff0000ffff00001a
:1012dc00ffff0000ffff0000ffff0000ffff00000a
:1012ec00ffff0000ffff0000ffff0000ffff0000fa
:1012fc00ffff0000ffff00009dff0000f7f500005e
:10130c00cde3000046da0000a4d90000a3d9000008
:10131c0083d1000082d9000062d9000063d900009b
:10132c00a3d9000062d9000063d9000083d9000062
:10133c0083d9000082d9000083d9000062d9000053
:10134c0083d9000063d1000083d9000082d900004a
:10135c0082d9000063d9000083d9000063d9000052
:10136c0063d100004fec00005dff0000ffff0000a8
:10137c00ffff0000ffff0000ffff0000ffff000069
:10138c00ffff0000ffff000058f6000067e20000be
:10139c0041d9000083d9000082d9000082d100001d
:1013ac0082d9000062d9000083d9000082d10000ec
:1013bc0062e1000083d9000083d9000063d90000ea
:1013cc0082d9000041d90000c4d9000038f60000d1
:1013dc00ffff0000ffff0000ffff0000ffff000009
:1013ec00ffff0000ffff0000ffff00007ef7000082
:1013fc00eedb000082d1000082d9000063d900002e
:10140c0083d9000082d9000063d9000083d1000089
:10141c0063d9000063d9000063d10000f2ec000036
:10142c00deff0000ffff0000ffff0000ffff0000d9
:10143c00ffff0000dfff000074ed000005d200008c
:10144c0082d9000083d9000082d9000082d9000023
:10145c0083d9000083d9000063d9000082d9000031
:10146c0062d90000e9da00003bff0000ffff00003a
:10147c00ffff00003cf7000074ed00004bdb0000a8
:10148c0026da0000a3d9000083d9000082d900001d
:10149c0083d9000083d9000082d9000063d90000f1
:1014ac0082d9000082d9000082d9000063d10000eb
:1014bc0082d9000082d9000083d9000083d90000b2
:1014cc0082d9000083d1000083d1000083d90000b1
:1014dc0083d9000082d9000042d9000083d10000da
:1014ec0053e50000ffff0000f2e4000062d90000a9
:1014fc0062d9000062d9000083d9000083d90000b2
:10150c0083d9000082d9000082d9000083d9000061
:10151c0083d9000082d9000083d9000083d9000050
:10152c0083d1000083d9000083d9000062d9000068
:10153c0083d9000063d9000063d9000083d900006f
:10154c0083d9000082d9000083d9000063d1000048
:10155c0082d9000083d9000083d1000063d9000038
:10156c0083d1000063d90000a3d9000062d9000028
:10157c0062d1000034ed0000ffff0000ffff00000f
:10158c00ffff0000ffff0000ffff0000ffff000057
:10159c00ffff0000ffff0000ffff0000ffff000047
:1015ac00ffff0000ffff0000ffff0000ffff000037
:1015bc00ffff0000ffff0000ffff0000ffff000027
:1015cc007dff0000b1e4000025da000062d90000c4
:1015dc00c3d90000e4d9000005e20000e4d9000002
:1015ec0004da0000e4e1000004da000005da00008f
:1015fc00e5e1000005e2000004da000005e200006d
:10160c0005e2000004da000005e2000004da000044
:10161c0005da0000e4d9000005e20000f1ec00005e
:10162c00bfff0000ffff0000ffff0000ffff0000f6
:10163c00ffff0000ffff0000ffff0000ffff0000a6
:10164c003dff00008be30000c4d9000005da000068
:10165c0004e2000005e2000004da000025da0000d4
:10166c00e5d9000005e20000e4d9000004e2000026
:10167c0005e2000004e2000005da000005e20000cb
:10168c00c4d9000046da0000f7f50000dfff0000c7
:10169c00ffff0000ffff0000ffff0000ffff000046
:1016ac00ffff0000ffff00001cff00008ce30000a8
:1016bc00c5d90000e4e1000004da0000e5e1000017
:1016cc00e5d9000004da0000e4d9000004e20000cf
:1016dc0005e2000004da000004e2000005da000074
:1016ec0005da000004da000005da000005da000073
:1016fc00e5e1000005da000004da000005e2000074
:10170c0005da0000e5e100008be30000daf60000ea
:10171c00dbf600002ae30000c4e1000005e2000053
:10172c0004e2000005e20000e5d9000004e200003c
:10173c0005e20000e4d9000004da000004da00003d
:10174c0005da000005e2000005da0000e5e1000022
:10175c0005e2000005e20000e5e1000004da00000b
:10176c0005da0000e4e10000e6e1000083d90000a6
:10177c002ae300003cff0000ffff0000ffff000019
:10178c00ffff0000ffff0000ffff0000ffff000055
:10179c00ffff0000ffff0000ffff0000ffff000045
:1017ac00ffff0000ffff0000ffff0000ffff000035
:1017bc00ffff0000ffff0000ffff0000ffff000025
:1017cc007dff0000f2ec000046da000083d9000037
:1017dc00a3e10000e4d90000e4e1000005e2000010
:1017ec0005da000005da000005da000005e2000069
:1017fc00e4d9000005da000004da000004e200007d
:10180c0005e2000004da000005da000005e2000041
:10181c0004da0000e5e1000005da000005da00005a
:10182c00e5e10000e5e1000004da000067da000001
:10183c00f6f50000ffff0000ffff0000ffff0000b7
:10184c00ffff0000ffff0000ffff0000ffff000094
:10185c005cf700008de30000c4d90000e4e1000057
:10186c0005e2000005da000005e2000005da0000e0
:10187c00e4d9000005da000005e2000005da0000fa
:10188c00e5e1000005da0000e5e1000005e20000fa
:10189c00c4e1000004da000018f60000ffff0000ad
:1018ac00ffff0000ffff0000ffff0000ffff000034
:1018bc00ffff0000ffff0000baf600004ae3000043
:1018cc00e5e1000005da0000e4e1000004da0000c4
:1018dc0005da000005da000004da0000e5d90000a2
:1018ec00e4d9000066da000058f60000ffff0000a3
:1018fc00ffff0000ffff0000ffff0000ffff0000e4
:10190c00beff000091e4000025da0000e5d90000dc
:10191c0005da000005e2000004da000005da000038
:10192c0004da000005e2000005e20000c4d9000062
:10193c00d1ec0000beff0000ffff0000dbf6000052
:10194c002fe4000024da0000a3d90000c4d9000061
:10195c00e4d90000e5e1000005da0000e5e1000053
:10196c0005da000004e20000e5d9000005da000009
:10197c00e5e1000005da000005da000004e20000f1
:10198c00e4d9000005e2000004da000005e20000e2
:10199c0005da000005da000005e2000005da0000b7
:1019ac00e5d90000a4d90000c7e20000baf6000097
:1019bc00dfff0000cde3000083d90000e4e100006c
:1019cc00e5d9000005da000004e2000004da0000aa
:1019dc0004da0000e5d90000e5e1000005da0000ba
:1019ec0005e2000004e2000005e2000004da000059
:1019fc00e5d9000005da0000e4d90000e5d90000c3
:101a0c0005e2000005da0000e5e10000e5d9000080
:101a1c00e5d90000e5e1000005da000005e2000070
:101a2c0005e2000004da000005e2000005da00001f
:101a3c0005e2000005e20000a3d90000a8da0000ce
:101a4c00baf60000ffff0000ffff0000ffff0000e0
:101a5c00ffff0000ffff0000ffff0000ffff000082
:101a6c00ffff0000ffff0000ffff0000ffff000072
:101a7c00ffff0000ffff0000ffff0000ffff000062
:101a8c00ffff0000ffff0000beff0000d1e40000dc
:101a9c00c4d90000c3e1000005da000005e2000033
:101aac0005e2000005da0000e5e10000e5e10000d8
:101abc0005e2000005da000005da0000e5d90000b7
:101acc0005da0000e5d90000e5d9000005da0000d0
:101adc0004da000005da000004e2000005e2000070
:101aec00c4e1000046da000017ee0000ffff000022
:101afc00ffff0000ffff0000ffff0000ffff0000e2
:101b0c00ffff0000ffff0000bfff000034e50000f6
:101b1c0005da0000c5d9000005e2000005da000076
:101b2c0005da000005da0000e5d9000005da00004e
:101b3c0005da000005da0000e5d90000e5e1000057
:101b4c0005e2000004da000004da0000e4d9000029
:101b5c0026da000095ed0000dfff0000ffff00001b
:101b6c00ffff0000ffff0000ffff0000ffff000071
:101b7c00ffff000079f6000088e20000e4e10000bd
:101b8c00e5d9000005e2000004da000005e20000df
:101b9c0005e20000e5e1000005e2000004da0000c7
:101bac0004da0000e5d9000005da000005e20000c7
:101bbc0004e2000005e20000e5d9000004da0000b0
:101bcc0004da000005e2000005da000004e200007f
:101bdc0005da000070ec00007dff0000f6f5000057
:101bec0066da0000e4d9000005da0000e5d900004f
:101bfc0005da0000e5d90000e5d90000e5d90000c0
:101c0c0005da000005da0000e5d9000005e2000065
:101c1c00e4d90000e4d90000e4d9000005da0000a2
:101c2c00e4d9000004da000004e20000e5d9000069
:101c3c0004da000005e2000083d900004fe4000044
:101c4c00deff0000ffff0000ffff0000ffff0000b1
:101c5c00ffff0000ffff0000ffff0000ffff000080
:101c6c00ffff0000ffff0000ffff0000ffff000070
:101c7c00ffff0000ffff0000ffff0000ffff000060
:101c8c00ffff0000ffff0000beff000033ed00006f
:101c9c0025da000083d9000005da000005da00001f
:101cac00e5e10000e5e10000e5e1000005e20000ef
:101cbc0005e2000004da000005e20000e5e10000a6
:101ccc00e4d9000004da0000e4d9000004da0000d2
:101cdc00e5d9000005da000004e2000004da000097
:101cec0004da000005da000005e20000e5d9000086
:101cfc0005da0000c5d9000009e3000099f60000e0
:101d0c00ffff0000ffff0000ffff0000ffff0000cf
:101d1c00ffff0000ffff0000dfff000053ed00009d
:101d2c0005da0000c4d9000005da000005da00006d
:101d3c0005da000005da0000e5d9000005e2000034
:101d4c0005e2000005da000005da000005da000003
:101d5c00e5d9000005da000004da0000e4e1000037
:101d6c00c4d10000d6ed0000ffff0000ffff000013
:101d7c00ffff0000ffff0000ffff0000ffff00005f
:101d8c00ffff0000d6ed0000a8da0000e4d9000047
:101d9c0005e2000005da000005e2000005da0000ab
:101dac0005da000005da000005da0000a4d900000d
:101dbc002adb00001cff0000ffff0000ffff0000fb
:101dcc00ffff0000ffff0000ffff00001cff0000f2
:101ddc00ace30000e4d90000e5e10000e5d9000027
:101dec00e5e10000e5e10000e5e1000005da0000b6
:101dfc00e5d90000e5e1000025e20000d6f5000081
:101e0c00dfff00003cf700006fe40000e5d90000a4
:101e1c00e4e1000005da000004da000004e200004e
:101e2c0005da000005e2000004da000004e200001c
:101e3c0005e2000004da0000e5e10000e5e1000045
:101e4c00e4d9000005e2000005e2000005da00001c
:101e5c0005e2000005e2000005da000005da0000ea
:101e6c0004e20000e5d9000005da0000e4d9000026
:101e7c00a4d90000ace300009eff00001bf700009b
:101e8c00c8da000083e1000005e20000e5d900009b
:101e9c0005e2000004e2000005da000005da0000ab
:101eac0004da000005e2000004e2000005da00009c
:101ebc0005e20000e4d90000e5e1000005da0000cd
:101ecc0005e2000005da000005da0000e5e100009b
:101edc00e5d9000005e2000005e2000005da00008b
:101eec00e5d9000005da000004e2000005e200007c
:101efc0005e2000004e2000005e2000005e200003b
:101f0c00e4e10000a3d90000ace300009eff000058
:101f1c00ffff0000ffff0000ffff0000ffff0000bd
:101f2c00ffff0000ffff0000ffff0000ffff0000ad
:101f3c00ffff0000ffff0000ffff0000ffff00009d
:101f4c00ffff0000ffff0000ffff0000ffff00008d
:101f5c00ffff0000f6ed000025da0000a3d9000019
:101f6c00e5d9000005da000005da0000e4e1000024
:101f7c0004da000005e20000e4d90000c4d9000036
:101f8c00e4d90000c4e10000c5d90000e4d9000088
:101f9c00c4e10000c4e10000c5d90000e4d9000090
:101fac00e4e10000e4d90000c4e10000a3d9000082
:101fbc00e9e20000faf60000ffff0000ffff00005e
:101fcc00ffff0000ffff0000ffff0000ffff00000d
:101fdc00ffff00009af60000e9da0000c4d9000007
:101fec00e5e1000004e2000005da0000e5d900009c
:101ffc0005da000004da0000e5e10000e5d9000094
:10200c0005e20000e5d90000e4e1000005da00007b
:10201c0005da000005da0000e4e1000025da000032
:10202c0033ed0000beff0000ffff0000ffff0000cb
:10203c00ffff0000ffff0000ffff00009eff0000fd
:10204c0014ed000005e20000e5d9000005e20000f7
:10205c0005da000005da000005da000005da0000f8
:10206c0005da0000e5d9000005e20000e5e100001a
:10207c00c4d90000c4e10000e4d90000c4d90000b8
:10208c00e4d90000e4e10000e4e10000c4e1000058
:10209c00c4e10000c5d90000c4d9000026da000054
:1020ac0074ed00009eff0000f2ec000006da000068
:1020bc0004da0000e5d9000005da000004e20000b3
:1020cc0005e20000e5e10000e4d9000005e20000b3
:1020dc0005da0000c4d90000c4e10000c4d9000036
:1020ec00c4d90000c5d90000c4d90000c4d900006f
:1020fc00c4d90000c4e10000e5d90000e4d9000017
:10210c00a3e10000c3d1000095ed0000ffff00002b
:10211c00ffff0000ffff0000ffff0000ffff0000bb
:10212c00ffff0000ffff0000ffff0000ffff0000ab
:10213c00ffff0000ffff0000ffff0000ffff00009b
:10214c00ffff0000ffff0000ffff0000ffff00008b
:10215c00ffff000079f60000a8e20000a3e10000f8
:10216c00e5d9000004da000005e2000005e20000f9
:10217c0005e20000e5d9000005da0000e5d9000011
:10218c00e5e10000c4e10000e4d90000e4d900005e
:10219c00e5d90000c5e10000e4d90000e4d9000055
:1021ac00c4d90000c5d90000e5d90000e4d900006d
:1021bc00c4d90000e4e10000c5d90000c3e100006f
:1021cc00c3e10000cde300001cff0000ffff000096
:1021dc00ffff0000ffff0000ffff0000ffff0000fb
:1021ec00ffff0000fbf6000029e30000a4d900006b
:1021fc00e5e1000005da000005e2000005da000068
:10220c0005da000005e2000005e2000005da000036
:10221c00e4e1000005da000005e2000005da000048
:10222c0005da000005da000004da0000c4d9000069
:10223c0095f50000ffff0000ffff0000ffff00000e
:10224c00ffff0000ffff0000ffff0000bfff0000ca
:10225c00f2ec000046da0000e4d90000e4e10000f2
:10226c00e5d9000005da000005da000005da000007
:10227c0004e2000005da0000a3d9000070e40000bd
:10228c009eff0000ffff0000ffff0000ffff0000ab
:10229c00ffff0000ffff000038f60000e8da000046
:1022ac00e4e1000005e2000005da0000e5d90000d9
:1022bc0005e2000005da000004da000005e2000087
:1022cc00c3e10000c8da0000dbf60000bfff00002d
:1022dc0054ed000046da0000e4d9000005e20000ed
:1022ec0005e2000005e2000005da0000e5e100006f
:1022fc00e5d90000e5e1000005da000005da000090
:10230c00e4d90000e4e10000c5d90000c4d9000004
:10231c00c4e10000e4d90000c4e10000c4d900000d
:10232c00e4d90000c4d90000c4d90000e5d90000ec
:10233c00c4d90000c4d90000a4e10000a4d9000055
:10234c00b1ec0000dfff0000f5ed000005da000045
:10235c00c4d9000005e20000e5e1000005da000048
:10236c0004e20000e4e1000005da000005da0000f8
:10237c0004da0000e4e10000c4d90000e4e100004c
:10238c00c4d90000c4e10000c4e10000c5d90000bc
:10239c00e4e10000e5d90000e4d90000c4d9000054
:1023ac00c4d90000e4d90000e4e10000c5d9000064
:1023bc00c4e10000c4d90000e4e10000e4d900004d
:1023cc00c4e10000e4d90000c4d90000a4d9000085
:1023dc00a3d90000b1ec0000ffff0000ffff0000dc
:1023ec00ffff0000ffff0000ffff0000ffff0000e9
:1023fc00ffff0000ffff0000ffff0000ffff0000d9
:10240c00ffff0000ffff0000ffff0000ffff0000c8
:10241c00ffff0000ffff0000ffff00005dff00005a
:10242c008de3000082d9000005da000025da0000f7
:10243c00e5d90000e4e10000e5d9000004e2000069
:10244c0005da000005da000088e200000adb000073
:10245c002be300002be300004be300004ae30000f9
:10246c004be300004be300004be300004ae30000a9
:10247c004ae300002ae300000ae30000d1ec00006c
:10248c009dff0000ffff0000ffff0000ffff0000aa
:10249c00ffff0000ffff0000ffff00009dff00009a
:1024ac0050e40000e5d90000e4e10000e5e10000a3
:1024bc00e5d90000e5e1000005e20000e5e10000df
:1024cc00e4d90000e4d90000e5d9000005da0000e9
:1024dc0004da000004da000005da000005da000076
:1024ec0005da0000e5d9000005da0000f3ec000085
:1024fc00beff0000ffff0000ffff0000ffff000019
:10250c00ffff0000ffff00007eff00002eec00002c
:10251c00e4e10000e4d9000005da0000e5d9000090
:10252c0005da000004da0000e5e1000005e2000035
:10253c0004da000025e20000e9da00002be30000d9
:10254c004be300004ae300002be300004be30000e8
:10255c004be300002be300004be300004be30000d7
:10256c004be300000ae30000cde3000099f6000005
:10257c005dff0000cee3000004e2000005da00007d
:10258c0004e2000005da000005da000005da0000bc
:10259c0005da000005da000005da000025e200008b
:1025ac00c9e200004be300004ae300002be300000b
:1025bc004be300004be300004be300004be3000057
:1025cc004be300004be300004be30000e9e20000aa
:1025dc008bdb0000dbf60000ffff0000ffff0000bc
:1025ec00ffff0000ffff0000ffff0000ffff0000e7
:1025fc00ffff0000ffff0000ffff0000ffff0000d7
:10260c00ffff0000ffff0000ffff0000ffff0000c6
:10261c00ffff0000ffff0000ffff0000beff0000f7
:10262c002ee40000a4d90000e4d9000005e200006b
:10263c0005da0000e5e10000e5e1000005da000044
:10264c0005da000004da0000e5e10000e5d900003d
:10265c0067da0000e9da00004ae300004be300000f
:10266c004be300004be300004be300004be30000a6
:10267c004be300004be300002be300002be30000d6
:10268c004ae300002ae300004ae300004ae30000aa
:10269c0074ed00009eff0000ffff0000ffff000034
:1026ac00ffff0000ffff0000ffff0000bfff000066
:1026bc0091e40000c5d90000e5d9000004da00005f
:1026cc0005da0000e5e1000005e20000e5e10000ac
:1026dc00e5d9000005e20000e5d9000004e20000a5
:1026ec0004da000005da000005da0000e5d9000084
:1026fc0005e20000e4e10000c3d9000053f500003e
:10270c00ffff0000ffff0000ffff0000ffff0000c5
:10271c00ffff0000ffff00005cff00000ee4000064
:10272c0005da000004e20000e5e1000005e200002b
:10273c0004e2000005da000005e2000004e20000fb
:10274c0005e20000c5d9000095ed0000ffff000078
:10275c00ffff0000ffff0000ffff0000ffff000075
:10276c00ffff000074ed000067e20000e4d90000f8
:10277c0005da0000e5e1000005da0000e4d900000c
:10278c0005e20000e5e1000005e20000a3d900002d
:10279c00cce300007eff0000fbfe00008be300009a
:1027ac00c4e1000005e20000e5d9000005e20000ec
:1027bc0005da0000e4d9000005e2000005da0000ab
:1027cc0005e2000004da0000e4d9000067da00003a
:1027dc0029e300004be300004ae300002be3000078
:1027ec002be300002be300004be300004be3000065
:1027fc004be300004be300002be300002be3000055
:10280c002ae300002ae300006cdb000038f600002d
:10281c00beff0000b0ec0000a3d90000e4d900001a
:10282c0005e2000005da000005e2000004e2000009
:10283c0005da0000e5e1000005da000005da000029
:10284c00c8da00002ae300004ae300004be3000072
:10285c002ae300002ae300004be300004be30000f6
:10286c004ae300004ae300004ae300004be30000a7
:10287c004be300002be300004ae300004be30000b5
:10288c004ae300004be300004be300002be30000a5
:10289c004bdb00004be3000009e300006ae300009f
:1028ac0037f60000ffff0000ffff0000ffff0000f5
:1028bc00ffff0000ffff0000ffff0000ffff000014
:1028cc00ffff0000ffff0000ffff0000ffff000004
:1028dc00ffff0000ffff0000ffff0000ffff0000f4
:1028ec00ffff0000ffff000038f6000026e20000aa
:1028fc00a3e1000005e20000e5d9000005da0000c4
:10290c0005e2000005e2000005e2000046da0000e6
:10291c00cde30000d5ed00009af60000baf60000f9
:10292c00dafe0000baf60000baf60000bafe0000ab
:10293c00bafe0000baf60000bbf60000baf60000c2
:10294c00baf60000bafe00005cff0000ffff0000ba
:10295c00ffff0000ffff0000ffff0000ffff000073
:10296c00ffff0000ffff000016ee0000a7e20000d2
:10297c00c5e1000005e2000005da0000e4d9000022
:10298c0004da0000e5d9000005e2000005e20000d1
:10299c0046da000006da000005da000005da00006d
:1029ac00e4d9000005da000005da000005e20000b9
:1029bc00e5e10000e4e10000b1e400009fff00004d
:1029cc00ffff0000ffff0000ffff0000ffff000003
:1029dc00ffff00001bf700004be30000e4d90000f0
:1029ec00e5d9000004e2000005e2000005da000071
:1029fc0005da000005da0000e5d90000e4d9000092
:102a0c00c8da0000f7ed0000daf60000baf60000b4
:102a1c00bafe0000baf60000bbfe0000bafe0000d1
:102a2c00baf60000baf60000baf60000baf60000da
:102a3c00baf60000faf60000beff0000b9f600007e
:102a4c000ae30000c5e10000e4e1000005da000043
:102a5c00e5e1000005da0000e5d9000005da000028
:102a6c0005da0000e4e1000088e20000b6ed0000a9
:102a7c00bafe0000bafe0000dafe0000daf6000032
:102a8c00bbf60000bafe0000baf60000bafe000069
:102a9c00baf60000baf600009af60000faf600004a
:102aac00bfff0000ffff0000ffff0000ffff000062
:102abc00ffff0000ffff0000ffff0000ffff000012
:102acc00ffff0000ffff0000ffff0000ffff000002
:102adc00ffff0000ffff0000ffff0000ffff0000f2
:102aec00ffff0000ffff0000baf60000a8da0000ac
:102afc00a3d9000004da0000e5d9000005e20000cb
:102b0c00e4e1000005e2000005da0000e5e1000068
:102b1c0004e2000004da00002adb000033ed0000c0
:102b2c0058f60000bafe0000bbfe0000baf600002a
:102b3c00baf60000baf60000baf60000bbf60000c8
:102b4c00daf60000dafe0000bafe0000bafe000061
:102b5c00daf60000dafe0000baf600007dff000095
:102b6c00dfff0000ffff0000ffff0000ffff000081
:102b7c00ffff0000ffff000017ee000047da000027
:102b8c00a4e10000e5d9000005da0000e5d9000059
:102b9c0005e2000005da000004e2000025da00007e
:102bac0026da000005e2000005e2000005e2000064
:102bbc0005e20000e4e1000004e20000e5e10000b1
:102bcc00e4d9000083e10000f2ec0000ffff0000fc
:102bdc00ffff0000ffff0000ffff0000ffff0000f1
:102bec00ffff000099fe00002ae30000e4e1000072
:102bfc0005e2000005e2000005e2000005da000035
:102c0c0005e20000e5e1000005da0000c4e1000087
:102c1c0046da000079f60000ffff0000ffff00001d
:102c2c00ffff0000ffff0000ffff00007eff000021
:102c3c006fe4000005da0000e5d90000e4e10000d3
:102c4c0005da000005e2000005e2000005e20000e4
:102c5c0005da0000e5d90000a4d90000f2ec000070
:102c6c00bfff0000d5f5000066e20000c4d90000eb
:102c7c00e5d9000005e2000004e20000e5d90000ff
:102c8c0005da000005e20000e4d90000e5d90000f7
:102c9c0005da00008ce30000b4ed000099fe0000a2
:102cac00daf60000baf60000b9f60000bafe000031
:102cbc00bafe0000baf60000baf60000bbfe000037
:102ccc00bafe0000bafe0000bafe0000baf6000020
:102cdc00bafe0000dafe0000bfff00005dff00003e
:102cec008ce3000082d9000005e2000005da000048
:102cfc00e5e10000e5e1000005e2000005da000076
:102d0c0005da0000e5d9000087da000032ed00009a
:102d1c00baf60000dafe0000bafe0000bafe0000af
:102d2c00bafe0000baf60000baf60000baf60000cf
:102d3c00baf60000bafe0000bafe0000bafe0000af
:102d4c00bbfe0000bafe0000baf60000bafe00009e
:102d5c00bafe0000bafe0000bafe0000baf600008f
:102d6c00baf60000b9f60000dbfe0000beff000062
:102d7c00ffff0000ffff0000ffff0000ffff00004f
:102d8c00ffff0000ffff0000ffff0000ffff00003f
:102d9c00ffff0000ffff0000ffff0000ffff00002f
:102dac00ffff0000ffff0000ffff0000ffff00001f
:102dbc00ffff000012ed0000a3d90000e4d90000d1
:102dcc0005da000004e20000e5d90000e5d90000b6
:102ddc0005e2000005da00008ce3000079f6000043
:102dec00feff0000ffff0000ffff0000ffff0000e0
:102dfc00ffff0000ffff0000ffff0000ffff0000cf
:102e0c00ffff0000ffff0000ffff0000ffff0000be
:102e1c00ffff0000ffff0000ffff0000ffff0000ae
:102e2c00ffff0000ffff0000ffff0000ffff00009e
:102e3c001cff0000ade30000e5d9000004da00003f
:102e4c00e5e1000005e20000e5d9000005e2000024
:102e5c0005da0000e5d9000087da0000ace30000d9
:102e6c0047da0000e4d9000005da000005e20000b2
:102e7c0005da000005e20000e4d90000e4d9000006
:102e8c0004e2000090e40000beff0000ffff000021
:102e9c00ffff0000ffff0000ffff0000dfff00004e
:102eac0017f6000086da0000c4d9000005e2000025
:102ebc0005da0000e5e1000004da0000e5d90000c5
:102ecc0005da000004da0000c4e10000ade3000004
:102edc007dff0000ffff0000ffff0000ffff000070
:102eec00ffff0000ffff0000ffff0000ffff0000de
:102efc00ffff0000ffff0000ffff0000ffff0000ce
:102f0c00ffff0000ffff0000b5f5000087e20000a6
:102f1c0004e20000e4e10000e4d9000005da00005e
:102f2c0005da0000e5d90000e5d9000004e2000054
:102f3c00c4d900008cdb00003cf70000ffff000050
:102f4c00ffff0000ffff0000ffff0000ffff00007d
:102f5c00ffff0000ffff0000ffff0000ffff00006d
:102f6c00ffff0000ffff0000ffff0000ffff00005d
:102f7c00ffff0000ffff0000ffff0000ffff00004d
:102f8c00ffff0000ffff0000ffff0000ffff00003d
:102f9c00ffff0000ffff0000ffff0000ffff00002d
:102fac00ffff0000ffff0000ffff0000ffff00001d
:102fbc00ffff000054ed0000e4d90000c4d900006c
:102fcc0004e2000004e2000005da000004da00006c
:102fdc0005da000004e20000e5d90000e4d90000a5
:102fec000ae30000f7ed0000beff0000ffff000049
:102ffc00ffff0000ffff0000ffff0000ffff0000cd
:10300c00ffff0000ffff0000ffff0000ffff0000bc
:10301c00ffff0000ffff0000ffff0000ffff0000ac
:10302c00ffff0000ffff0000ffff0000ffff00009c
:10303c00ffff0000ffff0000ffff0000ffff00008c
:10304c007df70000ace30000a3d9000004da000017
:10305c0004e20000e5d9000004da000005da000003
:10306c00e5e10000e5e10000e8da00004be30000d8
:10307c0046e2000005e20000e4e10000e5d90000b2
:10308c0005da000005e2000004da000004da0000b2
:10309c0083d90000b1e40000dfff0000ffff000057
:1030ac00ffff0000ffff0000ffff0000ffff00001c
:1030bc00b5f5000087da0000e5e1000005da000054
:1030cc0005da000005da000005da000004da000079
:1030dc0005e2000005e20000a3e100004be3000064
:1030ec003cf70000ffff0000ffff0000ffff0000a7
:1030fc00ffff0000ffff0000faf600008ce3000069
:10310c00c4e1000005da000005da000004da000072
:10311c0005da0000e5e1000005e2000005da000038
:10312c00e4e1000046da000037f600007dff000005
:10313c008fe40000e5e10000e4d9000004e20000a7
:10314c0005da000005e20000e5d9000006da00000f
:10315c0005da000004e20000c4d900006ce30000b2
:10316c00b9f60000deff0000ffff0000ffff0000cb
:10317c00ffff0000ffff0000ffff0000ffff00004b
:10318c00ffff0000ffff0000ffff0000ffff00003b
:10319c00ffff0000ffff0000ffff0000ffff00002b
:1031ac00ffff0000ffff00009af6000087da000026
:1031bc00a3d9000005e2000005e20000e5d90000fb
:1031cc00e5d9000005e2000005e2000005e2000080
:1031dc00e4e100002be3000099f60000ffff000083
:1031ec00ffff0000ffff0000ffff0000ffff0000db
:1031fc00ffff0000ffff0000ffff0000ffff0000cb
:10320c00ffff0000ffff0000ffff0000ffff0000ba
:10321c00ffff0000ffff0000ffff0000ffff0000aa
:10322c00ffff0000ffff0000ffff0000ffff00009a
:10323c00ffff0000ffff0000ffff0000ffff00008a
:10324c00ffff0000ffff0000ffff0000ffff00007a
:10325c00ffff0000ffff0000ffff0000ffff00006a
:10326c00ffff0000ffff0000ffff0000ffff00005a
:10327c00ffff0000ffff0000ffff00007eff0000cb
:10328c00cce3000083d9000005e2000005da000061
:10329c0005da000005da000025da0000e4d90000a8
:1032ac0005da0000d1e40000dfff0000ffff0000a2
:1032bc00ffff0000ffff0000ffff0000ffff00000a
:1032cc00ffff0000ffff0000ffff0000ffff0000fa
:1032dc00ffff0000ffff0000ffff0000ffff0000ea
:1032ec00ffff0000ffff0000ffff0000ffff0000da
:1032fc00ffff0000ffff0000deff000054ed0000a8
:10330c0047e20000e4e1000005e2000005da0000fd
:10331c0005da000005da000005da0000e4d9000047
:10332c00c4d900002ee4000013e5000046da0000ca
:10333c00e5d9000004e2000005da000005da00001f
:10334c0005da000005da000005da0000e4d9000017
:10335c0050e400009eff0000ffff0000ffff000094
:10336c00ffff0000ffff0000bfff000013ed000097
:10337c0005e20000c4d9000004da000005da000000
:10338c0004da000005da000005da000004da0000b7
:10339c00e4d9000005da0000d2ec00009eff00002a
:1033ac00ffff0000ffff0000ffff0000ffff000019
:1033bc00ffff0000ffff0000ffff0000ffff000009
:1033cc00ffff0000ffff0000ffff0000ffff0000f9
:1033dc00beff0000b0e4000026e2000004da0000aa
:1033ec0004da0000e5e1000004e2000005da000068
:1033fc00e5e10000e5d90000e4d90000e4e10000bb
:10340c0091e40000beff0000ffff0000ffff000082
:10341c00ffff0000ffff0000ffff0000ffff0000a8
:10342c00ffff0000ffff0000ffff0000ffff000098
:10343c00ffff0000ffff0000ffff0000ffff000088
:10344c00ffff0000ffff0000ffff0000ffff000078
:10345c00ffff0000ffff0000ffff0000ffff000068
:10346c00ffff0000ffff0000ffff0000ffff000058
:10347c00ffff0000ffff0000ffff0000beff000089
:10348c000ee4000083d9000005da000005da000024
:10349c0005da000004e2000004e2000004da000097
:1034ac0005da0000e5d9000026e2000013ed00006b
:1034bc009eff0000ffff0000ffff0000ffff000069
:1034cc00ffff0000ffff0000ffff0000ffff0000f8
:1034dc00ffff0000ffff0000ffff0000ffff0000e8
:1034ec00ffff0000ffff0000ffff0000ffff0000d8
:1034fc00ffff0000ffff0000ffff0000ffff0000c8
:10350c00ffff0000ffff0000dfff000074ed000074
:10351c0005e20000c4e1000004da000005e200004e
:10352c0005da000005da000005da000005da000013
:10353c0005da00006fe4000090e4000046e20000b1
:10354c00e5d9000004da000005da000005e200000d
:10355c0005da000004e2000026da000082d900003f
:10356c0070e40000dfff0000ffff0000ffff000021
:10357c00ffff0000ffff00009eff0000d2ec0000e8
:10358c0025da0000e5d9000004da0000e5e10000ce
:10359c00e4e1000004da000005da0000e5d90000df
:1035ac0005da000083d90000d1ec0000dfff000039
:1035bc00ffff0000ffff0000ffff0000ffff000007
:1035cc00ffff000017f60000e8e20000e4d900005d
:1035dc00e5d9000005e2000005e2000004da000075
:1035ec00e5d90000e5d9000005e20000a4d90000ef
:1035fc0009db00001bff00003cff00004be3000058
:10360c00e4d9000005da000005da0000e4d9000076
:10361c0004da000005da000004da000005da000024
:10362c00c4d9000087e20000f6f50000ffff00009f
:10363c00ffff0000ffff0000ffff0000ffff000086
:10364c00ffff0000ffff0000ffff0000ffff000076
:10365c00ffff0000ffff0000ffff0000ffff000066
:10366c00ffff0000ffff0000ffff0000ffff000056
:10367c00ffff000075ed0000e4d90000c4e100007c
:10368c0005e2000005da0000e5d9000004e20000c4
:10369c0005da0000e5d9000004da0000e4d90000e6
:1036ac004ee400005cf70000ffff0000ffff00008d
:1036bc00ffff0000ffff0000ffff0000ffff000006
:1036cc00ffff0000ffff0000ffff0000ffff0000f6
:1036dc00ffff0000ffff0000ffff0000ffff0000e6
:1036ec00ffff0000ffff0000ffff0000ffff0000d6
:1036fc00ffff0000ffff0000ffff0000ffff0000c6
:10370c00ffff0000ffff0000ffff0000ffff0000b5
:10371c00ffff0000ffff0000ffff0000ffff0000a5
:10372c00ffff0000ffff0000ffff0000ffff000095
:10373c00ffff0000ffff0000ffff0000ffff000085
:10374c00ffff0000ffff0000bafe0000a8da000037
:10375c00a3e10000e5d90000e5d9000005da00007e
:10376c0004da000005e2000004e2000004da0000c4
:10377c000ee40000baf600009dff00009eff000062
:10378c00beff00009eff00009dff0000bdff00007b
:10379c00deff0000ffff0000ffff0000ffff000046
:1037ac00ffff0000ffff0000ffff0000ffff000015
:1037bc00ffff0000ffff0000ffff0000ffff000005
:1037cc00ffff00009af600004be30000e4d9000074
:1037dc00e5e1000005e2000004da000005da000073
:1037ec0005da000005da0000c3d9000087da000012
:1037fc0017f6000075ed000026da0000c4d90000b1
:10380c0005e2000005da0000e5e1000005da000041
:10381c0004da0000e4d90000e5e100002fe4000028
:10382c007dff0000ffff0000ffff0000ffff000016
:10383c00ffff0000beff00000ee40000c4d9000032
:10384c00e5e1000005da000004e2000005e20000fa
:10385c0005da000005da0000e5d90000e4e100001b
:10386c0087da000017f60000dfff0000ffff000002
:10387c00ffff0000ffff0000ffff0000ffff000044
:10388c00ffff0000ffff0000ffff0000ffff000034
:10389c00ffff0000ffff0000ffff00003dff0000e6
:1038ac00ccdb0000e5d90000e4e1000005e20000fb
:1038bc0005e20000e5d9000005da0000e5e10000b2
:1038cc0004da0000e4d9000046da0000d6ed00006e
:1038dc00ffff0000ffff0000ffff0000ffff0000e4
:1038ec00ffff0000ffff0000ffff0000ffff0000d4
:1038fc00ffff0000ffff0000ffff0000ffff0000c4
:10390c00ffff0000ffff0000ffff0000ffff0000b3
:10391c00ffff0000ffff0000ffff0000ffff0000a3
:10392c00ffff0000ffff0000ffff0000ffff000093
:10393c00ffff0000ffff0000ffff0000ffff000083
:10394c00ffff0000ffff00001bff0000e9e200008a
:10395c0083e1000005da000005e2000004da000053
:10396c0004da0000e5d9000006da000005e20000e8
:10397c00e4e10000e9e2000058ee0000ffff000067
:10398c00ffff0000ffff0000ffff0000ffff000033
:10399c00ffff0000ffff0000ffff0000ffff000023
:1039ac00ffff0000ffff0000ffff0000ffff000013
:1039bc00ffff0000ffff0000ffff0000ffff000003
:1039cc00ffff0000ffff0000ffff0000ffff0000f3
:1039dc00ffff0000b9f60000e9da0000a3d90000ef
:1039ec0005e2000005da0000e5d9000005da000068
:1039fc00e5d9000005da0000e5e1000009db000074
:103a0c0037f60000d2e4000026e2000005da0000e0
:103a1c00e5d90000e5d9000005da000005da000060
:103a2c0005da000005e20000a3e100004fe400000d
:103a3c00beff0000ffff0000ffff0000ffff0000c3
:103a4c00ffff00003bf70000cde30000e4d90000cd
:103a5c0005e20000e4e1000005da000005da0000f0
:103a6c00e5d9000004da000005da0000e4e100000a
:103a7c0005da000017ee0000ffff0000ffff00005a
:103a8c00ffff0000ffff0000ffff0000ffff000032
:103a9c0053ed000046da0000e5e1000005e200000d
:103aac0004e2000005da000005da0000e5e10000a0
:103abc0005da000004e2000083d900002fe40000c6
:103acc009eff000078f6000088e20000e4d90000b8
:103adc0004e2000005da000004e2000005da000050
:103aec0004da000005da000005da0000a3e10000aa
:103afc008be300003cff0000ffff0000ffff000015
:103b0c00ffff0000ffff0000ffff0000ffff0000b1
:103b1c00ffff0000ffff0000ffff0000ffff0000a1
:103b2c00ffff0000ffff0000ffff0000ffff000091
:103b3c00ffff0000ffff0000ffff0000bfff0000c1
:103b4c0050e4000083d90000e4e1000005e200002d
:103b5c0005da000005da000004da000005da0000de
:103b6c00e4d9000005da000067da000054ed00002b
:103b7c00deff0000ffff0000ffff0000ffff000062
:103b8c00ffff0000ffff0000ffff0000ffff000031
:103b9c00ffff0000ffff0000ffff0000ffff000021
:103bac00ffff0000ffff0000ffff0000ffff000011
:103bbc00ffff0000ffff0000ffff0000ffff000001
:103bcc00ffff0000ffff0000ffff0000ffff0000f1
:103bdc00ffff0000ffff0000ffff0000ffff0000e1
:103bec00ffff0000ffff0000ffff0000ffff0000d1
:103bfc00ffff0000ffff0000ffff0000ffff0000c1
:103c0c00ffff0000ffff0000ffff0000ffff0000b0
:103c1c00ffff0000f7ed000006da0000c5d9000038
:103c2c0004da0000e5e10000e5d90000e5d9000068
:103c3c00e5d9000005da000005e2000067e20000ab
:103c4c008ce300002eec00004fec00004fe4000071
:103c5c004fec000050ec00006fec00008fec00000b
:103c6c00d2e4000074f50000baf60000ffff00007b
:103c7c00ffff0000ffff0000ffff0000ffff000040
:103c8c00ffff0000ffff0000ffff00007eff0000b1
:103c9c0091ec000025e2000005e2000005e20000c6
:103cac0005da000005e2000005e2000005e2000074
:103cbc0005da0000a4d9000070e400007cff0000cd
:103ccc0034ed000025e20000c4e1000005e2000034
:103cdc0005e2000005da000005e20000e5d900006d
:103cec0005da0000e5d900000dec00007dff0000b6
:103cfc00ffff0000ffff0000ffff0000ffff0000c0
:103d0c00faf600000ae30000c4d90000e5d900006f
:103d1c00e5e1000005da000004da0000e4d9000057
:103d2c0005da0000e5d9000004e2000047da0000e3
:103d3c006fec000032ed000013f5000032ed0000d6
:103d4c0033f5000013ed000033f5000013ed000017
:103d5c0033ed000013ed0000f6f500009eff0000af
:103d6c00ffff0000ffff000058f60000e9e2000032
:103d7c00c4d9000005e2000005e2000005da0000ed
:103d8c00e5d9000004e2000005e2000005da0000bd
:103d9c00e4e1000046e200006fe4000032ed0000b8
:103dac0033f5000033f5000013ed000013ed0000b7
:103dbc0032ed000012f5000032ed000013ed0000b2
:103dcc00d7f50000beff0000ffff0000ffff000062
:103ddc009eff0000b5ed000033ed000054f500002f
:103dec0053f5000053ed000033f5000034ed0000f6
:103dfc0033f5000053f5000033f5000033f50000f7
:103e0c0034ed000017ee0000beff0000ffff0000c5
:103e1c00ffff000017f6000006d20000c4d9000016
:103e2c0005e20000e5d9000005da0000e5d9000044
:103e3c00e5d9000005da000005e20000e5d9000034
:103e4c00cde30000fbf60000ffff00009dff00002b
:103e5c0095ed000013e5000012f5000033ed0000b5
:103e6c0033ed000013ed000032ed000013f50000ff
:103e7c0013ed000033ed000013ed000033f50000ee
:103e8c0013ed000096f500003dff0000ffff000061
:103e9c00ffff0000ffff0000ffff00009eff00007f
:103eac006fe40000c4d90000e5e10000e5e100008a
:103ebc0005da000004e2000005e2000005da00006b
:103ecc00e4d9000006da000090ec00005cf700007a
:103edc00d1ec000005da000005da000005e2000074
:103eec00e5e1000005da000005e2000005da00005b
:103efc0005da000083d900000ee400009dff0000ed
:103f0c00ffff0000ffff0000ffff0000ffff0000ad
:103f1c0058f6000009e30000c4e1000005da0000d7
:103f2c0004da0000e4d9000004da0000e4e1000047
:103f3c0005da000005da0000a3d90000c9da000098
:103f4c00dbf60000ffff0000ffff0000ffff00009a
:103f5c00ffff0000ffff00005df700004eec0000cb
:103f6c00e5d9000005da000005da000004e20000e3
:103f7c0005da000005e2000005e2000005da0000a9
:103f8c00e4d90000c4d9000054ed0000beff0000cd
:103f9c0034ed000005da0000e3e10000e5d9000093
:103fac0005da0000e5d9000005e2000005da0000a2
:103fbc0005da0000e4d90000e5d9000070e4000047
:103fcc009fff0000ffff00001cff000033ed00000e
:103fdc00f2f4000013f5000013ed000013ed0000e7
:103fec0013ed000012ed000034ed000033f500007d
:103ffc0013ed000033ed000013ed000012ed000096
:10400c0017f60000beff00001bff00002ae30000b3
:10401c00a3d9000005e2000005da0000e5d9000094
:10402c0005da000004da000005da0000e4d900002b
:10403c00e4d9000047e200000ee4000032ed00007d
:10404c0033ed000033f5000033ed000013f50000f4
:10405c0013f5000033ed000032ed000012ed00000e
:10406c0075f500007dff0000ffff0000ffff000062
:10407c00ffff0000ffff0000ffff0000ffff00003c
:10408c00ffff0000ffff0000ffff0000ffff00002c
:10409c00ffff0000ffff0000ffff0000ffff00001c
:1040ac00ffff0000ffff0000ffff0000ffff00000c
:1040bc00ffff0000ffff0000ffff0000ffff0000fc
:1040cc00ffff0000ffff0000ffff0000ffff0000ec
:1040dc00ffff0000ffff0000ffff0000ffff0000dc
:1040ec0095f50000c4d90000e5e1000004da0000f9
:1040fc0005da0000e5d9000005da0000e4e1000073
:10410c0005da0000e5e1000005da0000e5d9000061
:10411c0005e2000025da000005da000005e20000e7
:10412c0025da000026da000025da000046e200005d
:10413c0067da000009db0000b5ed0000dfff0000ce
:10414c00ffff0000ffff0000ffff0000ffff00006b
:10415c00ffff0000ffff0000f7ed0000c9da0000d0
:10416c00e4e1000005da0000e5d9000005da000002
:10417c0005da000005da0000e5d90000a4e1000032
:10418c00c8da000058f600009eff000012ed000097
:10419c0005e20000e5d9000005da0000e5d90000d1
:1041ac0005e20000e4e1000004da000005da00009a
:1041bc00c4d90000cce300007dff0000ffff00002d
:1041cc00ffff0000ffff0000dfff0000d6ed000046
:1041dc0046e20000c4d9000005e2000005e2000040
:1041ec00e5d90000e5e10000e4e1000005da00009b
:1041fc0005e2000005e2000005da000046e20000de
:10420c0046e2000046e2000047e2000066e20000e1
:10421c0046e2000066e2000067e2000046e20000b1
:10422c0046da00004fec00007eff0000ffff0000ac
:10423c00ffff000074ed000067e20000e4e1000005
:10424c0004da000024e20000e5e1000005da0000d9
:10425c0005da000005da000005e2000005e20000c6
:10426c0005e2000046da000047e2000066da0000d2
:10427c0046da000066da000047e2000046e2000081
:10428c0047da000047e2000046da000090e4000044
:10429c009eff0000ffff0000ffff0000b9f60000ca
:1042ac00c9e2000026e2000066e2000046e20000df
:1042bc0066e2000067e2000047e2000067e20000ef
:1042cc0066e2000066e2000046e2000047da000009
:1042dc0090e400007dff0000ffff0000ffff0000e6
:1042ec00f2ec000083d90000e4e10000e5e10000fd
:1042fc0004da000005da000005da000005e200002f
:10430c0005da0000e5d9000005da0000b1e4000090
:10431c009dff0000ffff000058f60000c8e20000ff
:10432c0046da000067e2000047e2000046da0000cf
:10433c0046e2000046e2000046e2000047da0000d8
:10434c0047e2000046e2000046da000026da0000f0
:10435c00cde30000dbf60000ffff0000ffff0000d4
:10436c00ffff0000ffff0000f7ed000066da000021
:10437c00c3e1000005da0000e4e1000005da00000a
:10438c00e4d9000004da0000e4e10000e5e10000fb
:10439c0009e3000058f600009eff0000b1ec00009d
:1043ac0006da0000e4e1000005e2000005da000096
:1043bc0004e2000004da000004da000005da000070
:1043cc0083d90000cce300007dff0000ffff00005c
:1043dc00ffff0000ffff0000ffff000094f500004e
:1043ec0067e20000e5d9000004da000005da0000fd
:1043fc0004da0000e5d9000005da0000e5e1000070
:10440c00e5d9000082d900000ee400009dff0000f9
:10441c00ffff0000ffff0000ffff0000ffff000098
:10442c00ffff0000b9f600004be30000e4e10000e0
:10443c0005da000004da000004da000004da0000f7
:10444c0004da0000e5e1000005da0000a4e1000058
:10445c0046da000078ee00009eff00002fe400001a
:10446c00e5e1000004da000005da0000e5e10000f7
:10447c0005da000005da0000e4d9000004da0000d7
:10448c00e4d9000046e20000b6f50000dfff0000b2
:10449c00ffff0000b5ed000045e2000025e2000042
:1044ac0066e2000046e2000046e2000046e2000040
:1044bc0047e2000047da000067e2000066e2000015
:1044cc0066da000046e2000027da000091ec0000fa
:1044dc009dff000037f6000046da0000c4e1000042
:1044ec00e4d90000e5e1000025da000005da00005f
:1044fc0005da000005da000005e2000004e2000025
:10450c0004e2000046da000046e2000046da000051
:10451c0046e2000066e2000047da000046e20000d6
:10452c0046da000066e2000004da00008ce30000ca
:10453c005cff0000ffff0000ffff0000ffff00001a
:10454c00ffff0000ffff0000ffff0000ffff000067
:10455c00ffff0000ffff0000ffff0000ffff000057
:10456c00ffff0000ffff0000ffff0000ffff000047
:10457c00ffff0000ffff0000ffff0000ffff000037
:10458c00ffff0000ffff0000ffff0000ffff000027
:10459c00ffff0000ffff0000ffff0000ffff000017
:1045ac00ffff0000ffff0000ffff000096f500007a
:1045bc00c5d90000c4e1000005e20000e5e10000ff
:1045cc0004da000005e2000005da0000e4e1000076
:1045dc0004e20000e5e1000005da000005e200005d
:1045ec00e4e10000e4d90000e4d9000004da0000a2
:1045fc00e5d90000e5d90000e5e10000e4e10000a8
:10460c00a4e10000a8da000058f60000ffff00004b
:10461c00ffff0000ffff0000ffff0000ffff000096
:10462c001bff0000eeeb000005da000004e20000c6
:10463c0005da000005da0000e5d9000005da000013
:10464c0026e20000e5d90000a4d90000b1ec00007e
:10465c00deff00009dff0000d1ec0000e5d900005a
:10466c00e4e1000005e2000005e2000004e20000c5
:10467c0005da000005da000005da0000c4d90000f4
:10468c00abe300007dff0000ffff0000ffff000018
:10469c00ffff0000dfff000090e40000c5e1000018
:1046ac00e4d90000e5e1000004e2000005da0000b6
:1046bc0005da000005da000005da000005da000072
:1046cc00e5d9000005da000005e20000c4e10000b5
:1046dc00e5d90000e5d90000e5d90000e5d90000d6
:1046ec00e4e10000e4d90000e5d9000006e2000096
:1046fc00f1ec0000dfff0000ffff00009eff000058
:10470c0090ec000025da000004e2000005da00005d
:10471c0005e20000e5e1000005da0000e4e100003c
:10472c0005da0000e5d9000005e2000005da00001a
:10473c0004da0000e5d9000005da0000e5e100002c
:10474c00e5d90000e4d90000e4d90000e4d9000068
:10475c00c4d9000006da000074ed0000dfff000091
:10476c00ffff0000ffff000073ed0000e4d9000024
:10477c00a3e10000e5e10000e4e10000e5d9000060
:10478c00e4d90000e4d9000005e2000005da0000dd
:10479c00e5d90000e4e1000005e2000054ed000062
:1047ac00beff0000ffff00005dff0000acdb00005f
:1047bc0063d9000005da0000e4d9000005da000036
:1047cc00e4d90000e5e10000e5d9000004da0000be
:1047dc0004da000087da0000d5ed0000dfff0000ee
:1047ec00deff000033e5000005e20000c4e100003c
:1047fc0005da0000e4e10000e5e10000e4d9000086
:10480c00e5e10000e5e1000004e20000e4d900006d
:10481c00e5d90000e4e1000004da00006fe40000d8
:10482c007dff0000ffff0000ffff0000ffff000006
:10483c001cf700008de30000c4d9000005da00006d
:10484c0005da000005da000005da000005da0000e0
:10485c0005e20000e4e1000025e20000b0ec0000fd
:10486c009eff0000beff000090ec000005da000087
:10487c00e4d9000005da000004da000004da0000d4
:10488c0005e20000e5e10000e5d90000a3d9000035
:10489c008be300005cff0000ffff0000ffff000047
:1048ac00ffff00007dff0000b0ec000005e20000ff
:1048bc00e5d90000e5d9000005e2000005e20000a2
:1048cc0004e2000005e2000005e20000e4d900006b
:1048dc00a3d9000032ed0000ffff0000ffff000035
:1048ec00ffff0000ffff0000ffff0000ffff0000c4
:1048fc00f6f50000a7e20000e5d9000005e2000093
:10490c0005da0000e5d90000e4e1000005da00005a
:10491c0005e20000e5e10000a3d900006ce3000013
:10492c005cff00003cf700000ae30000c4d9000063
:10493c0005da0000e4e1000005da000005e2000001
:10494c0004e2000005e2000005da0000c4d9000012
:10495c00eada0000daf60000ffff0000ffff0000bb
:10496c0070e4000082e10000e4e1000005e20000d8
:10497c00e4e10000e5e10000e4d90000e5d9000025
:10498c00e5d90000e4e10000e4e10000e4d9000016
:10499c00c4e1000026da000075ed0000beff000047
:1049ac0053ed0000c4d9000005e20000e4d900007a
:1049bc0005da000005e2000005da000005da000067
:1049cc0005da000005e2000005e2000005da00004f
:1049dc00e5d90000e5d90000e5d90000e4d90000d4
:1049ec00e4e1000004e20000e5e1000004da00006c
:1049fc00e4d9000082d9000070e40000bfff000081
:104a0c00ffff0000ffff0000ffff0000ffff0000a2
:104a1c00ffff0000ffff0000ffff0000ffff000092
:104a2c00ffff0000ffff0000ffff0000ffff000082
:104a3c00ffff0000ffff0000ffff0000ffff000072
:104a4c00ffff0000ffff0000ffff0000ffff000062
:104a5c00ffff0000ffff0000ffff0000ffff000052
:104a6c00ffff0000ffff0000ffff0000ffff000042
:104a7c00ffff0000ffff000099f6000068da00005d
:104a8c00a4d90000e5e1000005e2000005da000011
:104a9c0005da000005da000005da000005da00008e
:104aac0005da0000e5e1000005e2000005e2000087
:104abc0005da0000e5d9000005da000005da00008f
:104acc0005da000005da0000e5e1000005da000077
:104adc00a3d90000b0e40000dfff0000ffff0000de
:104aec00ffff0000ffff0000deff000074ed000080
:104afc0087e20000e5e1000005e20000e5d90000d6
:104b0c0004e20000e5d9000004e2000005da000030
:104b1c00a3e10000c8da00009af60000ffff0000d5
:104b2c009eff000090e40000e4e10000e4e10000de
:104b3c0005da0000e5e1000005e20000e5d900001f
:104b4c0005e20000e4e10000c4d900006aeb0000bb
:104b5c005dff0000ffff0000ffff0000ffff0000f3
:104b6c009dff0000abe30000c3d90000e4e10000ae
:104b7c0005e2000005da0000e4e1000005e20000b7
:104b8c0005da000005e2000005da0000e4d90000b7
:104b9c0004da000004e20000e5d90000e5e10000c1
:104bac0005da000004e2000005da0000e5e100008f
:104bbc0005e20000c4d90000a8da000037ee0000be
:104bcc00ffff0000ffff0000fbf600006cdb0000a5
:104bdc00e4d9000005da0000e5d90000e5d90000b1
:104bec0005e2000005da000004da000005da000036
:104bfc0004da0000e5d9000005e2000004e2000040
:104c0c0005da000005da000005da0000e5e1000035
:104c1c00e5d9000004da000005e20000e4d9000048
:104c2c0088e2000079f60000ffff0000ffff0000a3
:104c3c00bfff00002ee40000a3d90000e4e1000057
:104c4c0005da000004da000005da000005e20000d5
:104c5c0005da000004da0000e5d9000005da0000ee
:104c6c00c4d90000a8e2000079fe0000ffff00009c
:104c7c00ffff0000b9f60000c8da0000a4d900005c
:104c8c0006da000004da0000e4d90000e5e10000d7
:104c9c0005da0000e5d9000004da000004e20000a7
:104cac002ae3000079f60000ffff00009dff0000e2
:104cbc000eec0000e4d90000e5e1000005e2000084
:104ccc0004da000004da000004da000005da00005f
:104cdc0005da000005da000005e2000005e200003c
:104cec00e4e1000067e2000053ed0000dfff00008c
:104cfc00ffff0000ffff0000deff000034ed0000ae
:104d0c0005da0000e4e1000005da000005e200002d
:104d1c0004da000005e2000005da000004e20000fd
:104d2c00e4d900000adb000099f60000ffff000048
:104d3c007dff000070e4000005da000005da0000d9
:104d4c0005da000005da000004da0000e5d90000fd
:104d5c0005da000005e2000083d900002ae3000018
:104d6c001bff0000ffff0000ffff0000ffff000023
:104d7c00daf600008ce30000e4d9000005da00004c
:104d8c0005da000005da0000e5d9000004da0000bd
:104d9c0005e20000e5d90000e3d9000025e200009f
:104dac0037f60000ffff0000ffff0000ffff0000d0
:104dbc00ffff0000ffff0000beff000013ed00002e
:104dcc0026e2000005e2000005da000005e2000022
:104ddc0005da000004da000004e2000004da000046
:104dec0005e2000083d9000090e40000dfff000022
:104dfc0017ee000067e20000c4e1000005da0000d5
:104e0c00e4e1000005e20000e5d9000005e2000045
:104e1c0004da000005da0000e4d90000ede300003c
:104e2c005cff0000ffff00001cf700002ae30000fd
:104e3c00a3d9000005da000005da0000e5e1000066
:104e4c0005da000004da0000e5d9000005da0000fc
:104e5c0005e2000005e20000e5d90000e4d90000fd
:104e6c00c8da0000bafe00005dff0000cde30000d0
:104e7c00a3d9000005e2000005da000005e20000fd
:104e8c00e5e1000005e20000e5d9000004e20000c5
:104e9c00e4d9000005da000005da0000e4e10000c6
:104eac0005da000004da000024da0000e4d900007e
:104ebc00e5d90000e5d9000005da0000c4d90000ee
:104ecc00e3d90000b6ed0000ffff0000ffff00007b
:104edc00ffff0000ffff0000ffff0000ffff0000ce
:104eec00ffff0000ffff0000ffff0000ffff0000be
:104efc00ffff0000ffff0000ffff0000ffff0000ae
:104f0c00ffff0000ffff0000ffff0000ffff00009d
:104f1c00ffff0000ffff0000ffff0000ffff00008d
:104f2c00ffff0000ffff0000ffff0000ffff00007d
:104f3c00ffff0000ffff0000ffff0000ffff00006d
:104f4c00ffff0000deff0000f1e40000e4d90000e8
:104f5c00c3d90000e5d90000e5d90000e4d9000070
:104f6c00e4e10000e4d90000e5d9000004da000017
:104f7c00e5e10000e5e1000004da0000e5d90000fd
:104f8c0004e20000e5d9000005e20000e4d90000cd
:104f9c0005e2000005e2000005da000083d90000fc
:104fac002ee400009eff0000ffff0000ffff00004a
:104fbc00ffff0000baf600006ce30000e4d900002b
:104fcc0005e2000005da000004e20000e5e1000063
:104fdc0004da0000e4e10000e4d90000c4d90000c8
:104fec00f2ec0000dfff0000ffff00009dff00005f
:104ffc0090ec0000e4d90000e4e1000005e20000c0
:10500c0005e20000e5e10000e4e10000e5e100005c
:10501c00e5e10000a4d900004ae300005dff0000b8
:10502c00ffff0000ffff0000ffff000079ee000013
:10503c00a8da0000c3d9000005e2000005da000080
:10504c0004da000005e2000005e2000005e20000c1
:10505c0005da000004e2000005da0000e4d90000e3
:10506c00e4d90000e5d90000e5d90000e5d900003d
:10507c00e5d90000e4e10000e4d90000e4d9000027
:10508c00e4d900004ae300001bf70000ffff00001a
:10509c00ffff000017f60000c8e20000e5e1000089
:1050ac00e4d9000005e2000005e2000005e2000082
:1050bc0005da000005da000004e20000e4d9000083
:1050cc0004e20000e4d90000e5d90000e4d90000b6
:1050dc00e4d90000e4d90000e4d90000e4d90000d0
:1050ec00e4e10000c4e10000c3d900008ce300003f
:1050fc001cff0000ffff0000ffff00001cff000072
:10510c0009db000082d90000e4d90000e4e10000d2
:10511c00e5d90000e5e10000e4d90000e4e100007d
:10512c00e5e10000e5d90000e5d90000c4e100008c
:10513c008ce30000fbfe0000ffff0000ffff0000ff
:10514c00b5ed0000e4d10000e4e1000005da000058
:10515c00e5e1000005e2000005e20000e5d90000f1
:10516c0005da000005e20000e5e10000eee30000d6
:10517c003cff0000ffff0000fafe00002adb0000ed
:10518c00c3e10000e4d90000c4d90000e5e100004f
:10519c00e5d90000e5e1000005da000005da0000c1
:1051ac0004da000004e2000005da000005e2000069
:1051bc0009e3000058f60000ffff0000ffff0000ad
:1051cc00ffff0000baf6000009db0000e4d9000084
:1051dc00e5d9000005e2000005da000004e2000059
:1051ec0004da000005da000005da000025da000018
:1051fc00f1ec0000beff0000ffff00009dff00006f
:10520c0070ec000005da000004da000005da00009a
:10521c0005da000005da000005e2000005e20000f6
:10522c0004e20000a3d90000e9da00001bff000033
:10523c00ffff0000ffff0000ffff000058f600001a
:10524c00c8e20000e5e1000005da000005e200001c
:10525c00e5e1000005da000005da0000e5d9000000
:10526c0004da0000a3d90000eada0000fbfe00001b
:10527c00ffff0000ffff0000ffff0000ffff00002a
:10528c00ffff00001bff0000eee3000005e2000042
:10529c0005da0000e5e1000005e2000005e200008f
:1052ac00e5e1000004e2000005da0000e4e10000a2
:1052bc00e5d90000b6ed0000bfff0000d1ec000006
:1052cc0005e20000e4d9000005da000005da000070
:1052dc00e5e1000005e2000005e2000005da00004f
:1052ec00e5d9000005e20000f3ec0000bfff000070
:1052fc00ffff000058ee000045da0000a3d90000c3
:10530c00e5d9000004e20000e4d90000e5d9000072
:10531c00e4d9000005da0000e5e1000005e2000038
:10532c00e5e1000005da0000e5d90000acdb000087
:10533c001cff0000fbfe0000c9e20000c4d9000005
:10534c0005e20000e5d9000005da0000e5e1000007
:10535c0005da0000e4d90000e5e1000004e20000f9
