:020000040000fa
:0200000400807a
:080000000002040000000000f2
:020000040000fa
:0200000400807a
:0400080016050000d9
:020000040000fa
:0200000400807a
:04000c0016050000d5
:020000040000fa
:0200000400807a
:0400100016050000d1
:020000040000fa
:0200000400807a
:0400140016050000cd
:020000040000fa
:0200000400807a
:0400180016050000c9
:020000040000fa
:0200000400807a
:04001c0016050000c5
:020000040000fa
:0200000400807a
:0400200016050000c1
:020000040000fa
:0200000400807a
:0400240016050000bd
:020000040000fa
:0200000400807a
:0400280016050000b9
:020000040000fa
:0200000400807a
:04002c00600300006d
:020000040000fa
:0200000400807a
:0400300016050000b1
:020000040000fa
:0200000400807a
:0400340016050000ad
:020000040000fa
:0200000400807a
:0400380016050000a9
:020000040000fa
:0200000400807a
:04003c0016050000a5
:020000040000fa
:0200000400807a
:040040009804000020
:020000040000fa
:0200000400807a
:04004400160500009d
:020000040000fa
:0200000400807a
:040048001605000099
:020000040000fa
:0200000400807a
:04004c001605000095
:020000040000fa
:0200000400807a
:040050001605000091
:020000040000fa
:0200000400807a
:04005400fa020000ac
:020000040000fa
:0200000400807a
:040058001605000089
:020000040000fa
:0200000400807a
:04005c001605000085
:020000040000fa
:0200000400807a
:040060001605000081
:020000040000fa
:0200000400807a
:04006400160500007d
:020000040000fa
:0200000400807a
:040068001605000079
:020000040000fa
:0200000400807a
:04006c001605000075
:020000040000fa
:0200000400807a
:040070001605000071
:020000040000fa
:0200000400807a
:04007400160500006d
:020000040000fa
:0200000400807a
:040078001605000069
:020000040000fa
:0200000400807a
:04007c001605000065
:020000040000fa
:0200000400807a
:040080001605000061
:020000040000fa
:0200000400807a
:04008400160500005d
:020000040000fa
:0200000400807a
:040088001605000059
:020000040000fa
:0200000400807a
:04008c001605000055
:020000040000fa
:0200000400807a
:040090001605000051
:020000040000fa
:0200000400807a
:04009400160500004d
:020000040000fa
:0200000400807a
:040098001605000049
:020000040000fa
:0200000400807a
:04009c001605000045
:020000040000fa
:0200000400807a
:0400a0001605000041
:020000040000fa
:0200000400807a
:0400a400160500003d
:020000040000fa
:0200000400807a
:0400a8001605000039
:020000040000fa
:0200000400807a
:0400ac001605000035
:020000040000fa
:0200000400807a
:0400b0001605000031
:020000040000fa
:0200000400807a
:0400b400160500002d
:020000040000fa
:0200000400807a
:0400b8001605000029
:020000040000fa
:0200000400807a
:0400bc001605000025
:020000040000fa
:0200000400807a
:0400c0001605000021
:020000040000fa
:0200000400807a
:0400c400160500001d
:020000040000fa
:0200000400807a
:0400c8001605000019
:020000040000fa
:0200000400807a
:0400cc001605000015
:020000040000fa
:0200000400807a
:0400d0001605000011
:020000040000fa
:0200000400807a
:0400d400160500000d
:020000040000fa
:0200000400807a
:0400d8001605000009
:020000040000fa
:0200000400807a
:0400dc001605000005
:020000040000fa
:0200000400807a
:0400e0001605000001
:020000040000fa
:0200000400807a
:0400e40016050000fd
:020000040000fa
:0200000400807a
:0400e80016050000f9
:020000040000fa
:0200000400807a
:0400ec0016050000f5
:020000040000fa
:0200000400807a
:0400f00016050000f1
:020000040000fa
:0200000400807a
:0400f40016050000ed
:020000040000fa
:0200000400807a
:0400f80016050000e9
:020000040000fa
:0200000400807a
:0400fc0016050000e5
:020000040000fa
:0200000400807a
:0401000016050000e0
:020000040000fa
:0200000400807a
:0401040016050000dc
:020000040000fa
:0200000400807a
:0401080016050000d8
:020000040000fa
:0200000400807a
:04010c0016050000d4
:020000040000fa
:0200000400807a
:0401100016050000d0
:020000040000fa
:0200000400807a
:0401140016050000cc
:020000040000fa
:0200000400807a
:0401180016050000c8
:020000040000fa
:0200000400807a
:04011c0016050000c4
:020000040000fa
:0200000400807a
:0401200016050000c0
:020000040000fa
:0200000400807a
:0401240016050000bc
:020000040000fa
:0200000400807a
:0401280016050000b8
:020000040000fa
:0200000400807a
:04012c0016050000b4
:020000040000fa
:0200000400807a
:0401300016050000b0
:020000040000fa
:0200000400807a
:0401340016050000ac
:020000040000fa
:0200000400807a
:0401380016050000a8
:020000040000fa
:0200000400807a
:04013c0016050000a4
:020000040000fa
:0200000400807a
:0401400016050000a0
:020000040000fa
:0200000400807a
:04014400160500009c
:020000040000fa
:0200000400807a
:040148001605000098
:020000040000fa
:0200000400807a
:04014c001605000094
:020000040000fa
:0200000400807a
:040150001605000090
:020000040000fa
:0200000400807a
:04015400160500008c
:020000040000fa
:0200000400807a
:040158001605000088
:020000040000fa
:0200000400807a
:04015c001605000084
:020000040000fa
:0200000400807a
:040160001605000080
:020000040000fa
:0200000400807a
:04016400160500007c
:020000040000fa
:0200000400807a
:040168001605000078
:020000040000fa
:0200000400807a
:04016c001605000074
:020000040000fa
:0200000400807a
:040170001605000070
:020000040000fa
:0200000400807a
:04017400160500006c
:020000040000fa
:0200000400807a
:040178001605000068
:020000040000fa
:0200000400807a
:04017c001605000064
:020000040000fa
:0200000400807a
:040180001605000060
:020000040000fa
:0200000400807a
:04018400160500005c
:020000040000fa
:0200000400807a
:040188001605000058
:020000040000fa
:0200000400807a
:04018c001605000054
:020000040000fa
:0200000400807a
:040190001605000050
:020000040000fa
:0200000400807a
:04019400160500004c
:020000040000fa
:0200000400807a
:040198001605000048
:020000040000fa
:0200000400807a
:04019c001605000044
:020000040000fa
:0200000400807a
:0401a0001605000040
:020000040000fa
:0200000400807a
:0401a400160500003c
:020000040000fa
:0200000400807a
:0401a8001605000038
:020000040000fa
:0200000400807a
:0401ac001605000034
:020000040000fa
:0200000400807a
:0401b0001605000030
:020000040000fa
:0200000400807a
:0401b400160500002c
:020000040000fa
:0200000400807a
:0401b8001605000028
:020000040000fa
:0200000400807a
:0401bc001605000024
:020000040000fa
:0200000400807a
:0401c0001605000020
:020000040000fa
:0200000400807a
:0401c400160500001c
:020000040000fa
:0200000400807a
:0401c8001605000018
:020000040000fa
:0200000400807a
:0401cc001605000014
:020000040000fa
:0200000400807a
:0401d0001605000010
:020000040000fa
:0200000400807a
:0401d400160500000c
:020000040000fa
:0200000400807a
:0401d8001605000008
:020000040000fa
:0200000400807a
:0401dc001605000004
:020000040000fa
:0200000400807a
:0401e0001605000000
:020000040000fa
:0200000400807a
:0401e40016050000fc
:020000040000fa
:0200000400807a
:0401e80016050000f8
:020000040000fa
:0200000400807a
:0401ec0016050000f4
:020000040000fa
:0200000400807a
:0401f00016050000f0
:020000040000fa
:0200000400807a
:0401f40016050000ec
:020000040000fa
:0200000400807a
:0401f80016050000e8
:020000040000fa
:0200000400807a
:0401fc0016050000e4
:020000040000fa
:0200000400807a
:0402000016050000df
:020000040000fa
:0200000400807a
:0402040016050000db
:020000040000fa
:0200000400807a
:0402080016050000d7
:020000040000fa
:0200000400807a
:04020c0016050000d3
:020000040000fa
:0200000400807a
:0402100016050000cf
:020000040000fa
:0200000400807a
:0402140016050000cb
:020000040000fa
:0200000400807a
:0402180016050000c7
:020000040000fa
:0200000400807a
:04021c0016050000c3
:020000040000fa
:0200000400807a
:0402200016050000bf
:020000040000fa
:0200000400807a
:0402240016050000bb
:020000040000fa
:0200000400807a
:0402280016050000b7
:020000040000fa
:0200000400807a
:04022c0016050000b3
:020000040000fa
:0200000400807a
:0402300016050000af
:020000040000fa
:0200000400807a
:0402340016050000ab
:020000040000fa
:0200000400807a
:0402380016050000a7
:020000040000fa
:0200000400807a
:04023c0016050000a3
:020000040000fa
:0200000400807a
:04024000160500009f
:020000040000fa
:0200000400807a
:04024400160500009b
:020000040000fa
:0200000400807a
:040248001605000097
:020000040000fa
:0200000400807a
:04024c001605000093
:020000040000fa
:0200000400807a
:04025000160500008f
:020000040000fa
:0200000400807a
:04025400160500008b
:020000040000fa
:0200000400807a
:040258001605000087
:020000040000fa
:0200000400807a
:04025c001605000083
:020000040000fa
:0200000400807a
:04026000160500007f
:020000040000fa
:0200000400807a
:04026400160500007b
:020000040000fa
:0200000400807a
:040268001605000077
:020000040000fa
:0200000400807a
:04026c001605000073
:020000040000fa
:0200000400807a
:04027000160500006f
:020000040000fa
:0200000400807a
:04027400160500006b
:020000040000fa
:0200000400807a
:040278001605000067
:020000040000fa
:0200000400807a
:04027c001605000063
:020000040000fa
:0200000400807a
:04028000160500005f
:020000040000fa
:0200000400807a
:04028400160500005b
:020000040000fa
:0200000400807a
:040288001605000057
:020000040000fa
:0200000400807a
:04028c001605000053
:020000040000fa
:0200000400807a
:04029000160500004f
:020000040000fa
:0200000400807a
:04029400160500004b
:020000040000fa
:0200000400807a
:040298001605000047
:020000040000fa
:0200000400807a
:04029c001605000043
:020000040000fa
:0200000400807a
:0402a000160500003f
:020000040000fa
:0200000400807a
:0402a400160500003b
:020000040000fa
:0200000400807a
:0402a8001605000037
:020000040000fa
:0200000400807a
:0402ac001605000033
:020000040000fa
:0200000400807a
:0402b000160500002f
:020000040000fa
:0200000400807a
:0402b400160500002b
:020000040000fa
:0200000400807a
:0402b8001605000027
:020000040000fa
:0200000400807a
:0402bc001605000023
:020000040000fa
:0200000400807a
:0402c000160500001f
:020000040000fa
:0200000400807a
:0402c400160500001b
:020000040000fa
:0200000400807a
:0402c8001605000017
:020000040000fa
:0200000400807a
:0402cc001605000013
:020000040000fa
:0200000400807a
:0402d000160500000f
:020000040000fa
:0200000400807a
:0402d400160500000b
:020000040000fa
:0200000400807a
:0402d8001605000007
:020000040000fa
:0200000400807a
:0402dc001605000003
:020000040000fa
:0200000400807a
:0402e00016050000ff
:020000040000fa
:0200000400807a
:0402e40016050000fb
:020000040000fa
:0200000400807a
:0402e80016050000f7
:020000040000fa
:0200000400807a
:0402ec0016050000f3
:020000040000fa
:0200000400807a
:0402f00016050000ef
:020000040000fa
:0200000400807a
:0402f40016050000eb
:020000040000fa
:0200000400807a
:0402f80016050000e7
:020000040000fa
:0200000400807a
:0402fc0016050000e3
:020000040000fa
:0200000400807a
:0403000016050000de
:020000040000fa
:0200000400807a
:0403040016050000da
:020000040000fa
:0200000400807a
:0403080016050000d6
:020000040000fa
:0200000400807a
:04030c0016050000d2
:020000040000fa
:0200000400807a
:0403100016050000ce
:020000040000fa
:0200000400807a
:0403140016050000ca
:020000040000fa
:0200000400807a
:0403180016050000c6
:020000040000fa
:0200000400807a
:04031c0016050000c2
:020000040000fa
:0200000400807a
:0403200016050000be
:020000040000fa
:0200000400807a
:0403240016050000ba
:020000040000fa
:0200000400807a
:0403280016050000b6
:020000040000fa
:0200000400807a
:04032c0016050000b2
:020000040000fa
:0200000400807a
:10040000cf3a21000eff22000e01880000000000fc
:10041000000020000000e000020032000001200087
:100420002002880014000700820107000000e0009d
:1004300003003a00005221000100200002003700b2
:100440000000200001002000810f70000100320038
:100450000f000700000020000000e0000200320052
:100460000000020000000000e80e02000000000092
:100470000040da000000fe00200020000000e00044
:1004800002003200100020009001880000000600e9
:10049000a1028800800478000000eb001f003700f4
:1004a000e284440054a0b4009905ba00e2844400f8
:1004b00054a0b4009906ba00e284440054a0b400e9
:1004c0000006eb00476fde00fd07b200ae018800ba
:1004d000636ce10003003a000ad801000000eb0061
:1004e0000e003700606ce10008003a00004deb00a0
:1004f0000a05e800020039003420ec000af0a000f0
:100500008b05e900f9ff3e00040037006168e10057
:10051000010032000086eb000b00070019c7ba008b
:100520001905ba000e04e00003003a000a00e000da
:10053000dbff3a0000000600fe07b200ae028800b2
:100540008a047800f5ff37000cd0a300e20f4d00bd
:100550001c003b0089027800354dba000a05e8000e
:10056000020039003420ec000af0a0008b05e900fd
:100570000f003200254dba000a05e80002003900dc
:100580003420ec000af0a0008b05e90008003200de
:100590000c00e0000600320015cdba000a05e800a4
:1005a000020039003420ec000af0a0008b05e900bd
:1005b0008984e80054a0b4000b00e000e2ff3a0098
:1005c000000006009902ba00055d78008b05e9007d
:1005d000f7ff3200c82ade00055d78008b05e900d0
:1005e000f3ff32000c00e000f1ff320019ddba0029
:1005f000eeff3700809fbe00821f78003200f800b7
:100600003400f80010002000a00188001000200035
:1006100000d0fe000200fa00e011800068006000d7
:100620000000e0000300320020128000004f78003c
:100630001d003700e0118000620060000000e00053
:10064000020032003c22a900170037000140800060
:1006500000802000008060000000e00012003200f6
:100660000168a90022888000201280008040780064
:1006700040002100000041000148780020888000ef
:100680000000e8002088880021888000f00f20000a
:10069000808f5000010036000431ef006090800030
:1006a0000000e800609088000080fa003400f90043
:1006b0003200f9004f0178004f00be0000400600f4
:1006c0003600f800809fbe00829fbe00849fbe005f
:1006d000869fbe003200f8003400f80010002000b1
:1006e000a00188001000200000d0fe000000fa00e9
:1006f00000408000620060000000e00083003200e3
:100700000028a90010c0b30052f2b7000ed2bf00fb
:100710000040e8000ef2b7000ed2bf00f84f5000c4
:100720001e0036000e72ef0010c0b3000ff2b700cb
:10073000008080000000e8000080880001808000c8
:10074000f0702200808f50000200360000712200fd
:1007500000808800809080000000e8008090880081
:1007600080908000e40f5000030036001032ef004c
:1007700010c0b30012f2b700a09280000000e800a1
:10078000a0928800a192800000fa2000808f500083
:100790000200360000fa2000a092880022d2bf009a
:1007a0000040e80022f2b7002122210091407800a9
:1007b00030c6b30080cf50000e0036002272ef002a
:1007c00023d2bf000040e80023f2b70023d2bf00cd
:1007d000f34f5000010036002372ef00a5d3bf0095
:1007e0000004e00003003200a5d3bf000040e90090
:1007f000a5f3b700a09080000000e800a09088005a
:10080000a0908000e80f50002d003600c0908000be
:10081000d190800014c0b300720c200003002000af
:10082000820f5000838f580001003e000042eb0011
:1008300061004000e0804800c0908800d1908800ae
:100840000404e0000a0032009099290091992100e7
:100850008091880091918800401f200001002000b5
:10086000c0908800d190880010c0b30017f2b70084
:100870008091800091918000a0918800b1918800c2
:10088000c0918000d1918000a4918000b59180003a
:100890000001be000400be0088080700e091880047
:1008a000f1918800e0918000f1918000c091880072
:1008b000d191880010c0b30016f2b7001432ef00d7
:1008c000f09080000191800061004000e0804800cd
:1008d000f090880001918800f290800003918000e0
:1008e000f07c200001002000800f5100818f590012
:1008f00006003600007d200001002000f0908800f6
:100900000191880010c0b3001cf2b7000080fa000b
:100910003400f9003200f9004f03be004f02be0060
:100920004f01be004f00be003600f9000040060037
:10093000809fbe00829fbe000000fa0000c8a90090
:10094000804b800040928800904b8000509288003d
:10095000804b800060928800904b800070928800ed
:10096000509280008000eb00c001dd0002002000fa
:10097000409280008000eb000000710081807100d7
:100980000092880011928800709280008000eb0035
:10099000c001dd0002002000609280008000eb00ba
:1009a00000007100818071002092880031928800df
:1009b0001772ef001832ef001a32ef002292800017
:1009c000339280000092800011928000000051005c
:1009d000818059008091880091918800e04a8000d0
:1009e000610060000000e00004003200804b8000e5
:1009f00040928800904b800060928800004c8000fc
:100a0000610060000000e00004003200a04c8000a3
:100a100050928800b04c8000709288000080fa00ec
:100a20004f01be004f00be00004006000040da004b
:100a30000000fe00000005000001be001b000700d2
:100a40000470a70003f0a10003f8a30013003a000c
:100a50006509b10010003200090035006928e10085
:100a600002003500010028000000050000004000e1
:100a7000818048008502e900fcff3a000000060082
:100a8000f88f4200050035008100d1000080d300be
:100a90008502e800fcff3a00000006008000eb0041
:100aa000000005006011b80005023700c70ade002b
:100ab000f107b200f50fb20008003200e1cf4200aa
:100ac000020032000170a00024000500810f7000b8
:100ad000010032000408050044000500810f700089
:100ae00002003a00140005008502e9000000400001
:100af00081c04800fcff3b000170a00024000500fd
:100b000007f82700078361000638e10004003a0077
:100b1000f7072000878361008703710001003a0016
:100b200003f0a200889fbe008a9fbe008c9fbe007b
:100b3000470ade000480a100c71ade000580a1007c
:100b4000070028000785600087856100f70f2000f7
:100b50000720e1009e0032000728e1009c003200df
:100b6000010678000400e000b4003200f70720001e
:100b7000878060000170a0000500e000c000320026
:100b8000f7072000878161000370a000050652006e
:100b90000f003a000b50e1000b0032000308e100a7
:100ba00002003a000200e1007e0032000204500020
:100bb00083845800040031000001fd008101fd0024
:100bc0008402fd008a05fd006044b8002100370062
:100bd0000520e10005003d000001fd008101fd0050
:100be0008402fd008a05fd00050652007a60e100de
:100bf000050035000170a1004722dd0084807000ef
:100c00008a807000630037006044b800ef0266001d
:100c100007ff2f00070666000500e000060034000d
:100c2000f08312008714dd000511de00071bdd00d4
:100c3000060171008519de007060e10005003500d5
:100c40000904780082047800030178008001eb0039
:100c5000700656000b50e10003003a00020040000d
:100c6000838048000400370060041400e0841c0006
:100c700002005800838058000188a300060032005b
:100c80008100d1000080d3008984d3000884d30080
:100c90000402e800270037000178a30025003a008d
:100ca0000100e000030032008186cf006986560013
:100cb0000a0037008c0020000000e00004003a0029
:100cc00009007800880478000004eb0070025200ec
:100cd0008086cf000d0646000c06e9007060e1003a
:100ce000060035008000780009007800880478004c
:100cf0000004eb0070065600700252000c00e00089
:100d00000c0034008c08dd00f00316000703de0041
:100d1000868070000c00dd00074bde0006007000ce
:100d20008c4cdd000743de00868474000c44dd003b
:100d30000c0252006120e1002000350061016000da
:100d40000700280087816400f7ff2700878364007d
:100d5000070374000300e000060032008203730002
:100d6000040032000000e800e08048000188a30091
:100d70000e003a00f70f20000720e1004a003d0076
:100d80000170a1004722dd00810072008a8070009e
:100d90000000be004f06be004f05be004f04be005f
:100da000000006006000b800faff37008100d100a3
:100db0000080d3000402e800eeff37000401780051
:100dc00089017400c20007008a807000f1ff3700bb
:100dd00018010700070278000001fd008101fd00f5
:100de0001401070087027800850372000778a300ca
:100df000040032000001fd008101fd002701070011
:100e0000e4ff3700850362000768a3000800320092
:100e10000b50e10003003200f0ff2f00f1ff27002c
:100e2000dcff37000001fd008101fd00d9ff370024
:100e30000468a300d7ff3200faff3700f8ff27004d
:100e4000888360000b003a000000e00009003a00cf
:100e50008303640082837300020032000200be003c
:100e6000ccff37000b50e100ceff3a000200be007d
:100e7000c8ff370014002000810064003eff3700e7
:100e8000f8ff27008883610004003a000200e000b8
:100e900002003a008c007800beff370015002000e9
:100ea0008301640039ff370001f8270000002000ab
:100eb00081007500b7ff3700038368000700280032
:100ec00007036300470ade000480a100c71ade00a2
:100ed0000580a100f70f20000720e100420032004a
:100ee0000728e10040003200889fbe008a9fbe00b4
:100ef0008c1f7800f107b200f307b2000400e00095
:100f0000640032000170a0000500e00068003200bb
:100f10000370a00085054200eb07b1000204b80091
:100f20000302b8008484440060854a00020ab800c5
:100f3000848444000a854a00030ab8000405450079
:100f4000040033000804d0008984d2000a85d2004e
:100f50008b05e9006158e1003d00350002102000da
:100f6000090161000308200089816100f707200062
:100f70008783640008867300c84cde00c853dd0018
:100f8000878474004855de000300e000060032004c
:100f900082037600040032008904e80060054d00f9
:100fa0000a88a3000c003a00f70f20000758e10060
:100fb00044003d000a70a100c75ddd000a85750090
:100fc0008a007300090078004f0678004f05be00c4
:100fd0004f04be00000006000a05d1008984d3003a
:100fe0008b05e800f0ff3700881f780006047800c2
:100ff00090000700070278000001fd008101fd005c
:101000008c00070087027800850372000778a30030
:10101000050032000001fd008101fd009f00070076
:101020004f04780000000600850372000748a30003
:1010300003003200f0ff2f00f1ff2700f8ff370018
:101040000000200001f8270088807000f4ff3700be
:10105000880178004848dd00808171004848de0042
:10106000c850dd0001007000c850de0006047800a2
:101070000b0178001600070088807000d2ff37004f
:101080000500e00005003200170020003a000700cc
:101090009dff370081037000f9ff3a008600780059
:1010a0004f0678004f05be004f04be00000005004b
:1010b00083037100f9ff3200270020002e00070093
:1010c00094ff370001f8270086807000f4ff370096
:1010d0000100e00026003200610111007810e100fb
:1010e00023003c006022b8007010e10004003500cd
:1010f00080027800010078008000eb007001510050
:101100000200e0000900340070031100062add002f
:10111000822ade008603dd00878272000200de0084
:10112000860bdd00070070008208de0084817100fc
:10113000f4ff27000482620084817100040028000b
:10114000848262006102600005f0a60000000600d3
:1011500004827100070032000000e800e0804800cf
:10116000000006000002be006000b800efff37007c
:101170006000b80000000600889fbe000004eb007d
:101180006138e10016003a000100e00008003a0072
:10119000c800de004800dd00880020000100e000fb
:1011a00003003a00c800de004800dd006804440087
:1011b0008184cf00e9845400060034008908dd00f2
:1011c000f08314008703de00878070000900dd00d3
:1011d00009044400610214004f04be000000060030
:1011e0000300e00008003a00c811de004811dd00ed
:1011f000880020000300e00003003a00c811de0070
:101200004811dd00680444008384cf00e984540061
:10121000060034008919dd00f08314008713de0016
:10122000878171000911dd0009044400e102140006
:10123000e9ff37002700200001f0a7001700200079
:10124000470bde00f60fb200040032000643e80050
:101250000a0032004702b3000000060001037800d4
:10126000f607b2000603700002003a000703b3005d
:10127000000006008702b3000000060001037800aa
:10128000f607b20006037000020032000770a000eb
:10129000000006000760a000000006000478a3001c
:1012a000040032000578a300030032000168a300a7
:1012b00001003a000200be000160a000000006002c
:1012c000889fbe008a9fbe000082700004027100e9
:1012d00004827100260032000004be000200be003d
:1012e0006011b8006b092000950220000182cf0038
:1012f0000a0039000541b1000082cf000700390023
:101300000541b1000982cf00040039000541b10058
:101310000882cf00010039000541b10005425200aa
:10132000120032000a003b008281710061016400fa
:101330008100d1000080d3008984d3000884d300c9
:101340008b05e8000442e800f7ff3a000700370089
:101350000804440089844c00000048008180480053
:101360008b05e9000442e900f9ff3a000300070099
:101370004f05be004f04be000000060081002000a3
:10138000618055000b003d000b00200061fe2f0026
:101390000100e1001d0034008281710061016400e0
:1013a0008904d1000884d3000000e800faff3a0065
:1013b0007100200061006400030070000200600002
:1013c0000900320061044400e0844c000988a50053
:1013d000050032008b05e8006808e10002003a00d1
:1013e0008904d1000884d300f20f20000258e100e4
:1013f00005003d00c75ddd00f907b200898075007a
:1014000008007800000006000bf827008b00780029
:0414100000000500d3
:020000040000fa
:0200000400807a
:101414000200fa00004f78001e407800e14f5000af
:1014240002003a00060ea80007003700060ea900c5
:101434002168a9000431ef000631ef000c32ef00ff
:101444000168a9002168a8000080fa0000000600d5
:101454000200fa00004f780000000000e111800053
:1014640000082000008060000000e000fbff320064
:1014740000000000e0718000680060000000e000ef
:10148400fcff3a005432ef001e80fb00401288003b
:101494000080fa00000006000600fa0020479800c9
:1014a40031479800424798000040eb00004f780015
:1014b4002e4090000004e0000c003a003e409000f2
:1014c400e24f500009003a004e4090000004e00052
:1014d40006003a0010c0b300004f780010c0b300fb
:1014e40002f0b7001e407800640037002e409000e0
:1014f4000004e0000f003a003e409000e64f500028
:101504000c003a004e409000e14f500009003a00b0
:1015140020c0b300004f780050c0b300a4f3b7005c
:1015240010c0b30002f0b7000030ef001e40780096
:1015340052003700ae40900000c8b30080cf500086
:101544000c003a003e4090000004e00009003a001c
:101554004e409000e64f500006003a0030c0b30001
:10156400004f780010c0b30002f0b7001e407800ae
:1015740042003700ae40900000c8b30080cf500056
:101584000c003a003e4090000004e00009003a00dc
:101594004e4090000004e00006003a0040c0b30052
:1015a400004f780030c0b300a4f3b7001e407800a9
:1015b40032003700ae40900000c8b30080cf500026
:1015c4000c003a003e409000e24f500009003a00ff
:1015d4004e409000e24f500006003a0060c0b30055
:1015e400004f780070c0b300a4f3b7001e40780029
:1015f40022003700ae40900000c8b30080cf5000f6
:101604000d003a003e409000e34f50000a003a00bb
:101614004e4090000004e00007003a0070c0b300a0
:10162400004f780060c0b300a4f3b7000030ef00af
:101634001e40780011003700ae40900000c8b3008f
:1016440080cf50000c003a003e409000e34f500021
:1016540009003a004e409000e44f500006003a0062
:1016640080c0b300004f780080c0b300a4f3b7007b
:101674001e407800010037001e4078000080fa0008
:10168400000006000200fa00004f780092d3bf0069
:10169400e14f500005003a0000c8b3009e407800b6
:1016a40080cf50005d003a009273ef00a09b800051
:1016b4000000e00007003a001e4178006137210075
:1016c40082487800a09b80000000e800a09b88006e
:1016d40055003700a09b8000e10f500007003a003e
:1016e4001e4178007137210082487800a09b800059
:1016f4000000e800a09b88004b003700a09b8000fe
:10170400e20f500007003a001e41780081372100a3
:1017140082487800a09b80000000e800a09b88001d
:1017240041003700a09b8000e30f500016003a00f0
:101734001e417800913721008248780077d3bf009a
:101744000080fb00d09b8800d09b80000000e0005c
:1017540009003a00923721001241780081372100b4
:101764009140780076d3bf004bff07007cf3b700ad
:101774007433ef002c003700a09b80000000e800c9
:10178400a09b880028003700a09b8000e30f500036
:1017940025003600d09b8000e3004000a09b800021
:1017a400808f50000e003a00a09b8000e40050009f
:1017b40080252100008040001e48780092372100d7
:1017c40012417800813721009140780076d3bf0020
:1017d40031ff07007cf3b7007433ef0012003700c9
:1017e400a09b8000e4005000802521000080400080
:1017f4001e487800a09b80000000e800a09b8800a1
:10180400a19b8000e00f2000808f5000050036006f
:10181400f00f2000a09b88000300370000000000a8
:1018240001003700000000000080fa0000000600fc
:101834000200fa000040eb0005ff070080c1b3007e
:1018440003ff070020c0b30001ff07000040eb00c6
:10185400fffe070080c0b300fdfe07000040eb0060
:10186400fbfe07000040eb00f9fe070040c1b30097
:10187400f7fe07000040eb00004f78000600370039
:101884009e80fb00803521000080400010407800dd
:10189400effe07001e4fe8001e407800f34f500093
:1018a400f7ff36000080fa00000006000000fa008e
:1018b4000040eb00e6fe070020c0b300e4fe070092
:1018c40060c0b300e2fe070010c0b300e0fe0700f2
:1018d40020c0b300defe070020c0b300dcfe07001a
:1018e4000080fa00000006000000fa00a4d3bf0044
:1018f4000080fb00cf80de00920020000300200067
:10190400820f5000838f58001f013e000006010023
:10191400090037000e003700130037001b003700a2
:101924001f003700240037002a003700300037003a
:10193400090137000e01370000808000f40f5000c9
:101944001301360010c0b300a4f3b7001d01370023
:1019540010c0b300aefe07000030ef0020c0b3009b
:10196400a4f3b70017013700018080008002200033
:10197400808f500008013600a473ef000030ef00a0
:101984000040eb00a2fe07000e013700c7ff07006e
:1019940040c0b300a4f3b7000030ef0009013700e2
:1019a40000808000f40f5000fd00360080c0b300ba
:1019b400a4f3b7000301370001808000800c2000ed
:1019c400808f5000f800360080c0b300a4f3b70045
:1019d400fc00370001808000800c2000808f5000c4
:1019e400f300360080c0b300a4f3b700f50037005d
:1019f40012d2bf00e14f5000d0003a001272ef0043
:101a0400c0908000d190800000007800609b880026
:101a1400c0908000d19080004008de000000780073
:101a2400709b8800709b8000004078009af3b70098
:101a3400709b80004800de0000407800a2f3b700ed
:101a4400609b80000040780099f3b700609b8000a1
:101a54004800de0000407800a1f3b700c091800088
:101a6400d191800000007800609b8800c0918000c4
:101a7400d19180004008de0000007800709b88004f
:101a8400709b80000040780098f3b700709b800042
:101a94004800de0000407800a0f3b700609b80009f
:101aa4000040780097f3b700609b80004800de0098
:101ab400004078009ff3b700a0918000b1918000ae
:101ac40000007800609b8800a0918000b1918000a4
:101ad4004008de0000007800709b8800709b800046
:101ae4000040780096f3b700709b80004800de0049
:101af400004078009ef3b700609b800000407800af
:101b040095f3b700609b80004800de000040780039
:101b14009df3b700e0918000f1918000000078000f
:101b2400609b8800e0918000f19180004008de0015
:101b340000007800709b8800709b80000040780053
:101b440094f3b700709b80004800de0000407800ea
:101b54009cf3b700609b80000040780093f3b700cb
:101b6400609b80004800de00004078009bf3b700d3
:101b740070d3bf000040e80070f3b70002d0bf008c
:101b8400e14f50006d003a000030ef0050c1b30047
:101b940058f3b7009bd3bf0059f3b70093d3bf00ea
:101ba4005af3b7009cd3bf005bf3b70094d3bf00d4
:101bb4005cf3b7009dd3bf005df3b70095d3bf00be
:101bc4005ef3b7009ed3bf005ff3b70096d3bf00a8
:101bd40060f3b7009fd3bf0061f3b70097d3bf0092
:101be40062f3b700a0d3bf0063f3b70098d3bf007c
:101bf40064f3b700a1d3bf0065f3b70099d3bf0066
:101c040066f3b700a2d3bf0067f3b7009ad3bf004f
:101c140068f3b700909b80000040780069f3b70038
:101c2400909b8000ea0f500017003200ea0f50002a
:101c340005003e00e80f50000a003200e90f500092
:101c44000d00320028003700ec0f50001e00320057
:101c5400ec0f500014003900ed0f50002700320043
:101c64002100370030c6b3006af3b70030c6b300b2
:101c74006bf3b700280037006a73ef00e0c0b300cd
:101c84006bf3b70024003700309180004800de0079
:101c9400004078006af3b70030918000004078007b
:101ca4006bf3b7001c003700409180004800de0051
:101cb400004078006af3b70040918000004078004b
:101cc4006bf3b70014003700509180004800de0029
:101cd400004078006af3b70050918000004078001b
:101ce4006bf3b7000c00370030c6b3006af3b700db
:101cf40030c6b3006bf3b7000700370020708000d4
:101d040033800a00000000006af3b7002ed2bf003f
:101d14006bf3b70000000000909b80000000e80017
:101d2400909b8800909b8000ec0f500001003600cf
:101d34007233ef00befe07000270ef0001808000e6
:101d4400800c2000808f50001b00360080c0b30040
:101d5400a4f3b7001b0037000040eb00acfd070004
:101d640090c0b300a4f3b7000030ef0015003700b3
:101d740000808000e10f50001100360010c0b30055
:101d8400a4f3b7000f003700000000000d00370077
:101d9400000000000b0037000000000009003700bd
:101da40000000000070037000000000005003700b5
:101db40000000000030037000000000001003700ad
:101dc400000000000080fa00000006000200fa0093
:101dd4000040eb00004f78000060fe001e80fb0016
:101de400e10f500014003200e10f500003003c00ea
:101df4000000e00006003200d4003700e20f50007b
:101e040065003200e30f5000ba003200cf00370003
:101e1400b9010700c502070008020700e101070035
:101e240015020700c3e8a800060ea80010c0b300fe
:101e3400004f7800c6003700990107007e010700b3
:101e4400a9fe0700a5d3bf000004e00011003a007a
:101e540023d2bf00f34f50000b003a00a4d3bf00bd
:101e6400e74f500005003a0020c0b300004f78004f
:101e740020c0b300490207000800370040c0b30087
:101e840046020700050037000040eb00430207004c
:101e94000200370040c0b3004002070010c0b30086
:101ea400ac00070052d2bf00e14f500031003a00ad
:101eb4005272ef00b90007000501070050d2bf00bd
:101ec400e14f50001f003a005072ef002372ef0000
:101ed4000040eb009f0007001500370023d2bf002d
:101ee4000080fb00e70f500011003e0011002000ad
:101ef4000008dd00b10a2000810060000100e0005c
:101f040005003a0041052000010060000000e000e7
:101f140004003a00060037000040eb001f020700ef
:101f24000300370040c0b3001c020700000000009b
:101f340023d2bf00e74f5000e8ff3600068ea90009
:101f4400ffff370051d2bf00e14f500009003a00b3
:101f54005172ef0053d2bf000004e00003003a00c6
:101f64001000200027010700020037000000eb00ea
:101f740024010700e0718000700060000000e000b0
:101f840004003a0030c0b300004f78000040eb007a
:101f9400700007006e0037004101070026010700aa
:101fa40051fe070023d2bf00f34f50000b003a004c
:101fb400a4d3bf00e74f500005003a0020c0b3008f
:101fc400004f780020c0b300f4010700050037007b
:101fd40040c0b300f1010700020037000040eb00ed
:101fe400ee01070010c0b3005a00070052d2bf0030
:101ff400e14f500031003a005272ef0067000700d1
:10200400b300070050d2bf00e14f50001f003a0058
:102014005072ef002372ef000040eb004d00070008
:102024001500370023d2bf000080fb00e70f5000eb
:1020340011003e00110020000008dd00b10a20005c
:10204400810060000100e00005003a004105200025
:10205400010060000000e00004003a0006003700c0
:102064000040eb00cd0107000300370020c0b3009f
:10207400ca0107000000000023d2bf00e74f500050
:10208400e8ff3600068ea900ffff370051d2bf00db
:10209400e14f500009003a005172ef0053d2bf00e3
:1020a4000004e00003003a0010002000d5000700ff
:1020b400020037000000eb00d2000700e07180004e
:1020c400700060000000e00004003a0030c0b3007b
:1020d400004f78000040eb001e000700a4d3bf00af
:1020e400e74f50000200320010c0b300004f7800e8
:1020f40017003700e0718000700060000000e0000d
:102104000f003a00e1718000004020000080600070
:102114000000e0000500320020c0b3009f0107006a
:102124000000eb00b70007000700370010c0b30041
:102134009a0107000000eb00b2000700020037001c
:10214400068ea900ffff37000100370000000000e1
:1021540021ff37000200fa00004f78001e4078008b
:102164000004e00003003a000040eb00bf01070058
:102174000800370053d2bf00e14f500003003a007b
:1021840010c0b300b9010700020037000040eb00a3
:10219400b60107000080fa00000006000000fa0003
:1021a40057d2bf000080fb00e10f50002500320031
:1021b400e10f500003003c000000e0000600320084
:1021c40041003700e20f500026003200e30f5000b8
:1021d4000b0032003c003700207080006800600073
:1021e4000000e0003100320030c0b30057f2b70005
:1021f400a0c0b300a8f3b7005072ef00320037005c
:1022040020708000680060000000e0000b003200d5
:10221400a8d3bf000040e900a8f3b700a8d3bf00cb
:102224000004e00023003a0010c0b30057f2b700e6
:1022340020c0b30050f2b700230037005772ef00fc
:102244002100370020708000680060000000e0007a
:102254001a003a0020c0b30057f2b700a873ef0089
:102264001900370020708000680060000000e00062
:102274000a003a00a8d3bf000040e800a8f3b70062
:10228400a8d3bf00ea4f50000e003a005772ef0087
:1022940010c0b30050f2b7000b00370010c0b300f9
:1022a40057f2b700a873ef000700370000000000e2
:1022b40005003700000000000300370000000000a4
:1022c40001003700000000000080fa000000060052
:1022d4000000fa0056d2bf000080fb00e10f50005e
:1022e40025003200e10f500003003c000000e00034
:1022f4000600320041003700e20f50002600320091
:10230400e30f50000b0032003c00370000718000e6
:10231400680060000000e0003100320030c0b3000b
:1023240056f2b700a0c0b300a7f3b7005172ef0094
:102334003200370000718000680060000000e00097
:102344000b003200a7d3bf000040e900a7f3b70099
:10235400a7d3bf000004e00023003a0010c0b3007c
:1023640056f2b70020c0b30051f2b7002300370083
:102374005672ef0021003700007180006800600091
:102384000000e0001a003a0020c0b30056f2b70083
:10239400a773ef0019003700007180006800600027
:1023a4000000e0000a003a00a7d3bf000040e800a4
:1023b400a7f3b700a7d3bf00ea4f50000e003a00be
:1023c4005672ef0010c0b30051f2b7000b00370093
:1023d40010c0b30056f2b700a773ef000700370030
:1023e4000000000005003700000000000300370073
:1023f4000000000001003700000000000080fa0027
:10240400000006000200fa00000f78001e007800a9
:10241400e10f500004003a003eeea80010c0b300e3
:1024240053f2b700020037003eeea9005372ef00ea
:102434000080fa00000006000200fa0021888000f3
:1024440030888000808f5000130032002168a9007a
:10245400318880004000210000804000104f780047
:10246400308880000000e8003088880031888000cf
:10247400f00f2000808f5000010036000631ef007d
:10248400609080000000e900609088002168a80046
:102494001e4078007bfc07000080fa000000060064
:1024a4000000fa006190800000082000808f500036
:1024b400020036003ecea800010037003ecea9003f
:1024c4000080fa00000006000000fa00aad3bf0052
:1024d4000004e00004003a0010c0b300aaf3b700ff
:1024e400228ea80002003700aa73ef00228ea900f2
:1024f4000080fa00000006000000fa00100023002b
:10250400307c880080032000407c88008c2fef0002
:1025140010072000507c880010102000707c880078
:1025240040052000807c880060072000907c8800a3
:102534009a2fef00b82fef00ba2fef00be2fef0055
:10254400002def00a02fef00a42fef00a62fef0027
:10255400a82fef00aa2fef00ae2fef00b02fef004f
:10256400b22fef002200200080072000a1092000e4
:1025740053f8200080497800814978008249780026
:102584000001eb00600420007105200043f82000e6
:102594008049780081497800824978000080fa00f7
:1025a400000006000200fa002188a9002168a900a1
:1025b40000082000c01188003a22ef003c22ef00fe
:1025c40020022000f0118800500120000012880031
:1025d4004222ef004c22ef004e22ef005022ef0087
:1025e4005222ef005422ef005622ef005822ef004f
:1025f4005a22ef005c22ef0021428000f0ff280005
:1026040080806000000026000100700020428800e5
:102614000168a9002168a8000188a9002188a900ef
:1026240020128000004f780039e2a80038a2a800e8
:102634003882a8000080fa00000006000000fa00ba
:102644000421ef00703821004008880000002800b1
:102654000008880001428000f0f82f00008060002c
:102664000040a000004288000028a9002028a800fb
:102674000080fa00000006000000fa00562ea800b0
:102684000000eb0051052000b1468800a10a20009b
:10269400b14688000068880010c4b3000bedb70091
:1026a4000080200051052000b1468800a10a2000c6
:1026b400b14688000068880075e9a90051e9a900bd
:1026c400a14b8000f08f2f0000806000a04b880099
:1026d400a14b8000f0f32f0000806000a04b880025
:1026e40074a9a8007489a800a14b800000ff2f00e2
:1026f400008060000000a000a04b8800b14b800067
:10270400f00f2f00008060000080a000b04b880014
:10271400814a8000f08f2f0000806000804a88008a
:10272400814a8000f0f32f0000806000804a880016
:1027340050a9a8005089a800814a800000ff2f00fa
:10274400008060000000a000804a8800b14a800038
:1027540080ff2f0000806000b04a8800914a80000a
:10276400f00f2f00008060000080a000904a8800d5
:1027740011428000f08f2f000080600000a0a000b4
:102784001042880000c8a90020c8a80075e9a80064
:1027940051e9a8000080fa00000006000200fa00d7
:1027a400004f78001e80fb0061006000004078004c
:1027b4000004e0000200320023cea800010037002c
:1027c40023cea9001e80fb00620060000000e00030
:1027d4000200320023eea8000100370023eea90016
:1027e4001e80fb00640060000000e0000200320074
:1027f4003f8ea800010037003f8ea9000080fa0038
:10280400000006000200fa00004f78001e80fb0062
:1028140061006000004078000004e0000200320023
:102824003faea900010037003faea8001e80fb00a8
:10283400620060000000e0000200320023aea90044
:102844000100370023aea8001e80fb006400600076
:102854000000e00002003200238ea90001003700ce
:10286400238ea8000080fa00000006000200fa008f
:10287400004f78001e80fb0061006000004078007b
:102884000004e000020032003faea900010037005e
:102894003faea8001e80fb00620060000000e00064
:1028a4000200320023aea9000100370023aea800c5
:1028b4001e80fb00640060000000e00002003200a3
:1028c400238ea90001003700238ea8000080fa009f
:1028d400000006000400fa00100798000000eb0056
:1028e400000f78000b00370000000000000000001b
:1028f40000000000000000000000000000000000d4
:1029040000000000000000000000000000000000c3
:102914001e0fe8001e0090009e007800808f50007b
:10292400f1ff39000080fa00000006000000fa0000
:10293400002eef001c2eef00382eef00542eef0077
:10294400068ea900028ea90000e22400e1ff070020
:10295400068ea8000040eb0090ff07000040eb004b
:10296400c2ff07003b8ea9001fcea9001feea900dd
:102974001f8ea9003baea9001faea9000000eb000a
:1029840051052000b1468800a10a2000b146880004
:1029940000688800816c8000f00f2c0000806000cb
:1029a4000080a000806c880020c3b30028edb7002d
:1029b4000080200051052000b1468800a10a2000b3
:1029c400b146880000688800022ea900062ea800df
:1029d400020ea900060ea9003acea9003ecea90017
:1029e4003a6ea8003aeea9003eeea900026ea800d5
:1029f4000a6ea8001e6ea800266ea8003a8ea800d3
:102a0400428ea8003b4ea800434ea8001eaea9006b
:102a140022aea800570ea9005b0ea9003b2ea90008
:102a24003f2ea9003b0ea9003f0ea9001e8ea9004f
:0c2a3400228ea8000080fa0000000600be
:020000040000fa
:0200000400807a
:102a40007e1300002600000082000000000102004a
:102a50000304050006070800090a0b000c0d0e0010
:102a60000f10110012130100ffffff00ffffff0016
:102a7000ffffff00ffffff00ffffff00ff00000060
:102a8000581200002601000080000000a41300007e
:102a900006000000820000000114ff000a0a000086
:102aa000001000005802000080000000aa1300007f
:0c2ab00002000000800000000000000098
:020000040000fa
:0200000400807a
:102abc000800fa00889fbe00008fbe002207980015
:102acc00330798001e00be00f3f70700d7f7070086
:102adc00f1f70700f2282c0053cf2300f3f807007e
:102aec000004be002e009000be009000eaf7070024
:102afc00c21e250083f72300ecf807000001be007e
:102b0c000800be0004f80700c8f707004f04be0019
:082b1c000080fa000000060031
:020000040000fa
:0200000400807a
:045e0000ffffff00a1
:020000040000fa
:0200000400807a
:045e2000ffffff0081
:020000040000fa
:0200000400807a
:045e30007affff00f6
:020000040000fa
:0200000400807a
:045e38007af7ff00f6
:020000040000fa
:0200000400807a
:045e4000edffff0073
:020000040000fa
:0200000400807a
:045e4800ffffff0059
:020000040000fa
:0200000400807a
:045e5000dfffff0071
:020000040000fa
:0200000400807a
:045e58000000ff0047
:020000040000fa
:0200000400807a
:045e60000000ff003f
:020000040000fa
:0200000400807a
:045e68000000ff0037
:020000040000fa
:0200000400807a
:045e70000000ff002f
:020000040000fa
:0200000400807a
:045e7800ffffff0029
:020000040000fa
:0200000400807a
:045e8000fffcff0024
:020000040000fa
:0200000400807a
:045e8800ffffff0019
:020000040000fa
:0200000400807a
:045ff800ffffff00a8
:00000001FF
