:0400000011EF00F00C
:100008005282D9CF30F0DACF31F000EC50F031C065
:0E001800DAFF30C0D9FF5292110074EF54F09D
:10400000FFFFFFFFFFFFFFFFFFFFFFFFFFFFFFFFC0
:10401000FFFFFFFFFFFFFFFFFFFFFFFFFFFFFFFFB0
:10402000FFFFFFFFFFFFFFFFFFFFFFFFFFFFFFFFA0
:10403000FFFFFFFFFFFFFFFFFFFFFFFFFFFFFFFF90
:10404000FFFFFFFFFFFFFFFFFFFFFFFFFFFFFFFF80
:10405000FFFFFFFFFFFFFFFFFFFFFFFFFFFFFFFF70
:10406000FFFFFFFFFFFFFFFFFFFFFFFFFFFFFFFF60
:10407000FFFFFFFFFFFFFFFFFFFFFFFFFFFFFFFF50
:10408000FFFFFFFFFFFFFFFFFFFFFFFFFFFFFFFF40
:10409000FFFFFFFFFFFFFFFFFFFFFFFFFFFFFFFF30
:1040A000FFFFFFFFFFFFFFFFFFFFFFFFFFFFFFFF20
:1040B000FFFFFFFFFFFFFFFFFFFFFFFFFFFFFFFF10
:1040C000FFFFFFFFFFFFFFFFFFFFFFFFFFFFFFFF00
:1040D000FFFFFFFFFFFFFFFFFFFFFFFFFFFFFFFFF0
:1040E000FFFFFFFFFFFFFFFFFFFFFFFFFFFFFFFFE0
:1040F000FFFFFFFFFFFFFFFFFFFFFFFFFFFFFFFFD0
:10410000000E0001D16F000ED06F000ED36F000EB5
:10411000D26F000ED56F000ED46F010EFF6E000E31
:104120000F01116F000E196F000E216F000E266F28
:10413000DAEC57F0EBEC57F0A9EC57F0550E000114
:10414000DC19D8A4A6EF20F0A8EF20F0B1EF20F002
:10415000AA0EDB19D8B4AFEF20F0B1EF20F0C1EF19
:1041600020F0000E4F6E000E4E6E000E4D6E000ED3
:104170004C6E000E4B6E000E4A6E550EDC6FAA0E92
:10418000DB6FBBEC54F0E806D8A4C9EF20F0CBEF0E
:1041900020F0B0EF21F0BD8EBD508F0B5009BD6EE9
:1041A000F00EBD16BF50F00B0409BF6E90AADBEFF6
:1041B00020F0DDEF20F04AEF21F08694000E0001A0
:1041C000D96F000ED86F04000001D84BD92BF40E24
:1041D000D85D010ED959D8A0F0EF20F0F2EF20F011
:1041E000E3EF20F08684859087908C90888888867D
:1041F00088828884000E0F01106F888AD59E9E9A4F
:104200009D9E000E70EC56F00400BBEC54F00009CB
:10421000D8A40DEF21F00FEF21F011EF21F00FEFF7
:1042200021F090AA16EF21F018EF21F046EF21F0CF
:104230000E01CEA31EEF21F020EF21F004EF21F0BC
:10424000CE930001D04BD12B600ED05D090ED15919
:10425000D8A02DEF21F02FEF21F004EF21F0000E78
:10426000D16F000ED06F4C4A4D2AE90E4C5CFD0E0A
:104270004D58D8A03EEF21F040EF21F048EF21F05B
:10428000FD0E4D6EE80E4C6E04EF21F046EF21F06E
:1042900004EF21F00400858090A051EF21F053EF4E
:1042A00021F064EF21F0020E70EC56F0000E4F6E1C
:1042B000000E4E6E000E4D6E000E4C6E000E4B6EDC
:1042C000000E4A6E95EF21F0010E70EC56F00E01D3
:1042D000CEA36DEF21F06FEF21F095EF21F0CE939B
:1042E0000001D24BD32BD35109E1F00ED25DD8A0FF
:1042F0007CEF21F07EEF21F095EF21F0000ED36FDF
:10430000000ED26F4E4A4F2AE90E4E5CFD0E4F58FA
:10431000D8A08DEF21F08FEF21F095EF21F0FD0E69
:104320004F6EE80E4E6E95EF21F090AA9AEF21F0B5
:104330009CEF21F0A1EF21F0000E70EC56F09FEF02
:1043400021F0BBEC54F00009D8A4A9EF21F0ABEFA9
:1043500021F04AEF21F0000E70EC56F0AEEF21F0A4
:104360001C04D8B4B6EF21F0B8EF21F0BCEF21F077
:10437000010E1C6E93EC56F0858087808C9067EC64
:1043800057F0B6EC57F015EC57F0C2EC57F079EC5B
:1043900057F02BEC57F001EC56F07BEC55F028EC85
:1043A00056F03A0E2C18D8A4D8EF21F0DAEF21F00D
:1043B000F3EF21F02B50D8A4E0EF21F0E2EF21F051
:1043C000F3EF21F0880E2A18D8A4E9EF21F0EBEFE3
:1043D00021F0F3EF21F02950D8B4F1EF21F0F3EF01
:1043E00021F0F6EF21F0030E70EC56F0000E000104
:1043F000DA6F080EE8EC56F00001DA2B090EDA65E8
:1044000004EF22F006EF22F0F9EF21F02DC024F0A6
:104410002EC025F0F28E86848580BBEC54F0E80631
:10442000D8A415EF22F017EF22F027EF22F0000EAC
:1044300070EC56F08590F29E020EE8EC56F0609E0D
:104440000F01339F319FB1EC56F025EF22F0085059
:1044500009E1810E075CD8A030EF22F032EF22F0A4
:1044600036EF22F0F4EC57F038EF22F0F2EC57F090
:104470001DEC55F04DEC52F004001904D8A443EFA4
:1044800022F045EF22F086EF22F0000E196E60B0A8
:104490004CEF22F04EEF22F063EF22F063CFD6F024
:1044A00064CFD7F0D6C048F0D7C049F0D890493291
:1044B0004832D8904932483248C0D6F049C0D7F087
:1044C000D6C023F060800001D44BD52BD55109E133
:1044D0003C0ED45DD8A06FEF22F071EF22F086EF92
:1044E00022F0000ED56F000ED46F4A4A4B2AE80E18
:1044F0004A5CFD0E4B58D8A080EF22F082EF22F0EC
:1045000086EF22F0FD0E4B6EE80E4A6E1550161027
:10451000D8B48DEF22F08FEF22F09AEF22F0B80E90
:104520002824D96EDA6A000EDA22DF5070EC56F0D9
:104530000CEF22F0130E1A18D8A4A1EF22F0A3EF6B
:1045400022F0B6EF22F0070E5118D8A4AAEF22F0FD
:10455000ACEF22F0B1EF22F0020E70EC56F00CEF4F
:1045600022F0040E70EC56F00CEF22F0000E70EC0E
:0A45700056F00CEF22F011EF00F0FE
:10A000009DA405EF50F007EF50F00AEF50F0995083
:10A01000A6EF50F09DA20FEF50F011EF50F015EFAA
:10A0200050F09D989D88A6EF50F00E01CDAB1BEF30
:10A0300050F01DEF50F038EF50F0000E0B24D96EA9
:10A04000020E0C20DA6E99CFDFFF0B4A0C2A000EAD
:10A050000B5C010E0C58D8A030EF50F032EF50F0EE
:10A0600036EF50F0000E0C6E000E0B6E074A082AF9
:10A07000CAAB3DEF50F03FEF50F0A6EF50F0CA9B57
:10A080001E2A180E1E6447EF50F049EF50F07DEF86
:10A0900050F0000E1E6E010E1D6E174A182A100E8B
:10A0A000175C270E1858D8A058EF50F05AEF50F010
:10A0B0005EEF50F0270E186E100E176E155016102A
:10A0C000D8B465EF50F067EF50F06AEF50F0150626
:10A0D000D8A016060D4A0E2A0E5009E1050E0D5C99
:10A0E000D8A075EF50F077EF50F07DEF50F0000EF4
:10A0F0000E6E000E0D6E010E266E1B2A630E1B6483
:10A1000084EF50F086EF50F093EF50F0000E1B6E8E
:10A110001A2A130E1A648FEF50F091EF50F093EF5C
:10A1200050F0000E1A6E054A062AD10E055C030E89
:10A130000658D8A09EEF50F0A0EF50F0A6EF50F0D8
:10A14000000E066E000E056E010E196E1200000064
:10A15000AA55AA55AA55AA556263646566676664DE
:10A160006362FF003C6E3C50D8A4B9EF50F0BBEFE7
:10A1700050F0D1EF50F0020E3818D8A4C2EF50F0D2
:10A18000C4EF50F0D1EF50F03950D8A4CAEF50F0DE
:10A19000CCEF50F0D1EF50F0010E276E010E4CEFD6
:10A1A00052F03C50D8A4D7EF50F0D9EF50F0F5EF73
:10A1B00050F0060E3818D8A4E0EF50F0E2EF50F05F
:10A1C000F5EF50F03904D8A4E8EF50F0EAEF50F082
:10A1D000F5EF50F0050E516E010E276E000E186E51
:10A1E000000E176E020E4CEF52F0800E3C18D8A4F1
:10A1F000FCEF50F0FEEF50F014EF51F03850D8A4BF
:10A2000004EF51F006EF51F014EF51F0060E39183B
:10A21000D8A40DEF51F00FEF51F014EF51F0010EF3
:10A22000276E030E4CEF52F0800E3C18D8A41BEFA3
:10A2300051F01DEF51F032EF51F03850D8A423EF18
:10A2400051F025EF51F032EF51F03950D8A42BEFF7
:10A2500051F02DEF51F032EF51F0030E516E040E1C
:10A260004CEF52F0800E3C18D8A439EF51F03BEF80
:10A2700051F0EBEF51F0020E3818D8A442EF51F034
:10A2800044EF51F0EBEF51F03950D8A44AEF51F0C0
:10A290004CEF51F0EBEF51F0050E3E6E000E3D6EAF
:10A2A000070E3D24D96EDA6A010EDA22740E3D24BF
:10A2B000E16EE26A000EE222DFCFE7FF3D2A130ED5
:10A2C0003D6465EF51F067EF51F050EF51F0010E32
:10A2D0003D6E740E3D24D96EDA6A000EDA22DF502C
:10A2E0003A6E4F0E3D24F66EF76AA10EF722F86A19
:10A2F000000EF8220800F5503A18D8B482EF51F059
:10A3000084EF51F087EF51F0000E4CEF52F03D2AF0
:10A31000130E3D648EEF51F090EF51F069EF51F064
:10A32000BAEF51F0000EEDEC54F0E8EF51F0010EF1
:10A33000EDEC54F0E8EF51F0020EEDEC54F0E8EFE4
:10A3400051F0030EEDEC54F0E8EF51F0040EEDEC9B
:10A3500054F0E8EF51F0050EEDEC54F0E8EF51F059
:10A36000060EEDEC54F0E8EF51F0070EEDEC54F072
:10A37000E8EF51F0000174513A6E3B6A3B50000A1D
:10A38000D8B4C5EF51F0E8EF51F03A50F10AD8B423
:10A3900092EF51F0030AD8B497EF51F0010AD8B404
:10A3A0009CEF51F0070AD8B4A1EF51F0010AD8B4DC
:10A3B000A6EF51F0030AD8B4ABEF51F0010AD8B4BC
:10A3C000B0EF51F00F0AD8B4B5EF51F0E8EF51F00B
:10A3D0003E504CEF52F0800E3C18D8A4F2EF51F0F2
:10A3E000F4EF51F00BEF52F0020E3818D8A4FBEF47
:10A3F00051F0FDEF51F00BEF52F0020E3918D8A4D6
:10A4000004EF52F006EF52F00BEF52F0070E516ED0
:10A41000060E4CEF52F0800E3C18D8A412EF52F00A
:10A4200014EF52F02EEF52F0030E3818D8A41BEFA1
:10A4300052F01DEF52F02EEF52F03950D8A423EF16
:10A4400052F025EF52F02EEF52F0060E516E000E34
:10A45000186E000E176E070E4CEF52F0800E3C186F
:10A46000D8A435EF52F037EF52F084EF51F0030EDD
:10A470003818D8A43EEF52F040EF52F084EF51F07C
:10A48000040E3918D8A447EF52F049EF52F084EF88
:10A4900051F0080E516E080E1200A0EF53F0185044
:10A4A00009E1150E175CD8A058EF52F05AEF52F0A0
:10A4B000D5EF53F0010E516ED5EF53F0010E506EF3
:10A4C0008684010E9BEC57F0000E186E000E176E7E
:10A4D000020E516ED5EF53F0185009E1290E175CAA
:10A4E000D8A075EF52F077EF52F0D5EF53F0000E91
:10A4F000516E000E186E000E176E8694000E9BECC7
:10A5000057F0D5EF53F054EC57F0040E516E000E97
:10A51000186E000E176ED5EF53F0185009E1150EA6
:10A52000175CD8A096EF52F098EF52F0D5EF53F0A9
:10A53000080E516ED5EF53F0185009E1C90E175CA3
:10A54000D8A0A5EF52F0A7EF52F0D5EF53F098EF57
:10A5500052F0185009E1C90E175CD8A0B2EF52F0C2
:10A56000B4EF52F0D5EF53F098EF52F02604D8A490
:10A57000BCEF52F0BEEF52F07EEF53F0000E266EAD
:10A58000080EE8EC56F0CEC0CFF0C6C0C7F0CDC084
:10A59000CEF0C5C0C6F0CCC0CDF0C4C0C5F0CBC0B5
:10A5A000CCF0C3C0C4F0CAC0CBF0C2C0C3F0C9C0B5
:10A5B000CAF0C1C0C2F0C8C0C9F0C0C0C1F02DC04F
:10A5C000C8F02EC0C0F0202A2704D8A4EAEF52F029
:10A5D000ECEF52F07EEF53F0000E186E000E176E87
:10A5E000070E0001606FC0C061F0C8C062F0C1C05A
:10A5F00063F0C9C064F0C2C065F0CAC066F0C3C0F1
:10A6000067F0CBC068F0C4C069F0CCC06AF0C5C0C8
:10A610006BF0CDC06CF0C6C06DF0CEC06EF0C7C0A0
:10A620006FF0CFC070F00FC071F047EF53F025C04E
:10A6300072F024C073F069EF53F023C072F0010E82
:10A64000736F69EF53F04F50726F4EC073F069EF44
:10A6500053F04D50726F4CC073F069EF53F04B5094
:10A66000726F4AC073F069EF53F0900E0F24D96EE9
:10A67000000E1020DA6EDF50726F980E0F24D96E24
:10A68000000E1020DA6EDF50736F69EF53F00FC0C9
:10A6900036F010C037F03750000AD8B452EF53F0FC
:10A6A00035EF53F03650080AD8B417EF53F0010ACB
:10A6B000D8B41DEF53F0030AD8B423EF53F0010AC6
:10A6C000D8B429EF53F0070AD8B42FEF53F035EF81
:10A6D00053F00F4A102A105009E10D0E0F5CD8A05C
:10A6E00074EF53F076EF53F07AEF53F0000E106EE4
:10A6F000000E0F6EA9EC55F0000E276E185009E100
:10A70000C90E175CD8A087EF53F089EF53F0D5EF4F
:10A7100053F098EF52F08694000E9BEC57F0090E20
:10A72000516E87EF52F0185009E1020E175CD8A065
:10A730009CEF53F09EEF53F0D5EF53F05AEF52F0E9
:10A740005150366E376A3750000AD8B4AAEF53F02A
:10A75000D5EF53F03650000AD8B44FEF52F0010A4B
:10A76000D8B45EEF52F0030AD8B46CEF52F0010A8D
:10A77000D8B483EF52F0070AD8B48DEF52F0010A33
:10A78000D8B49CEF52F0030AD8B4A9EF52F0010AF2
:10A79000D8B4B6EF52F00F0AD8B48BEF53F0010AD9
:10A7A000D8B493EF53F0D5EF53F01200416E50043C
:10A7B000D8A4DDEF53F0DFEF53F0EAEF53F0800E53
:10A7C0004118D8A4E6EF53F0E8EF53F073EF54F0DC
:10A7D000000E506E13501410D8A4F1EF53F0F3EFA5
:10A7E00053F0F9EF53F041C001F0134A142A73EF0C
:10A7F00054F013041410D8A400EF54F002EF54F0F6
:10A8000006EF54F041C002F0F5EF53F0020E1318BA
:10A810001410D8A40EEF54F010EF54F014EF54F0CD
:10A8200041C003F0F5EF53F0030E13181410D8A431
:10A830001CEF54F01EEF54F03AEF54F041C004F016
:10A8400002C011F0126A11501210D8A42AEF54F06D
:10A850002CEF54F0F5EF53F003C038F004C039F09A
:10A860000150B2EC50F0226E000E146E000E136E0A
:10A8700073EF54F0145009E1040E135CD8A043EFB9
:10A8800054F045EF54F073EF54F0030E11243F6E73
:10A89000000E1220406E13503F1807E1145040186C
:10A8A000D8A455EF54F057EF54F069EF54F0FC0E74
:10A8B0001324D96E000E1420DA6E41C0DFFF03C0EE
:10A8C00038F004C039F00150B2EC50F0226E34EF91
:10A8D00054F0FC0E1324D96E000E1420DA6E41C021
:10A8E000DFFFF5EF53F01200FE0EF66EAD0EF76EC1
:10A8F000000EF86E00EEA4F010EE2CF00900F5CF7B
:10A90000EEFFE550E150FAE1EC0EF66EAF0EF76E99
:10A91000000EF86E0900F5CF50F00900F5CF51F0A8
:10A9200003EE00F011EE00F0EE6AE550E150FCE1BC
:10A93000E250FAE102EE00F011EE00F0EE6AE550AE
:10A94000E150FCE1E250FAE101EE00F03C0EEE6A6B
:10A95000E806FDE100EE60F0440EEE6AE806FDE177
:10A9600000EE01F02E0EEE6AE806FDE152905292E2
:10A97000000180EF20F0838C889C1C50D8A4C3EF8A
:10A9800054F0C5EF54F0D3EF54F0000E326E00F0E7
:10A99000322A090E3264CFEF54F0D1EF54F0C7EFF2
:10A9A00054F0DFEF54F0000E326E00F0322AC70E82
:10A9B0003264DDEF54F0DFEF54F0D5EF54F08EA8A1
:10A9C000E4EF54F0E6EF54F0EAEF54F0888C010E17
:10A9D000ECEF54F0888C000E1200376E000E70EC15
:10A9E00056F037C032F0336A2DC034F04CEC56F0DC
:10A9F000080E3724326E336A000E33222EC034F034
:10AA00004CEC56F0980E3724D96EDA6A000EDA2232
:10AA10002DC0DFFF900E3724D96EDA6A000EDA22DD
:10AA20002EC0DFFF000E186E000E176E000E166EA1
:10AA3000640E156E37C028F0120009500B1809E19A
:10AA40000A500C18D8B427EF55F029EF55F04BEF0A
:10AA500055F00E01C29B000E0924D96E020E0A2089
:10AA6000DA6EDF50426E094A0A2A000E095C010EB6
:10AA70000A58D8A03EEF55F040EF55F044EF55F09E
:10AA8000000E0A6E000E096E0706D8A00806C28BDB
:10AA90004250D6EC53F01200326E800E346E000E2F
:10AAA000336E8AEC57F0325034143418D8A45BEF6C
:10AAB00055F05DEF55F060EF55F0838461EF55F090
:10AAC00083948AEC57F08386D8903430346E8AECC5
:10AAD00057F083968AEC57F0332A070E336473EFEE
:10AAE00055F075EF55F051EF55F08AEC57F083941F
:10AAF0008AEC57F01200000E376E000E366E980E7C
:10AB00003624D96E000E3720DA6E36C032F037C0E8
:10AB100033F040EC57F0DF6E900E3624D96E000E05
:10AB20003720DA6E080E3624326E000E3720336E70
:10AB300040EC57F0DF6E364A372A375009E1080EED
:10AB4000365CD8A0A6EF55F0A8EF55F07FEF55F092
:10AB50001200000ECDEC56F0180ECDEC56F0020EA1
:10AB6000CDEC56F0000ECDEC56F0080ECDEC56F0C4
:10AB7000000ECDEC56F0000ECDEC56F0140ECDECE0
:10AB800056F0000E336E600E3324D96EDA6A000E72
:10AB9000DA22DF50CDEC56F0332A130E3364D3EFB4
:10ABA00055F0D5EF55F0C3EF55F012008AEC57F091
:10ABB0008394000E336E800E346E000E326E8AEC7B
:10ABC00057F083868AEC57F08DA2E9EF55F0EBEF52
:10ABD00055F0EEEF55F033503410336ED8903430DA
:10ABE000346E8AEC57F083968AEC57F0322A070EBF
:10ABF0003264FDEF55F0FFEF55F0DFEF55F03350C5
:10AC0000120083948398060E4CEC55F0000E366EBD
:10AC1000000E356E354A362AF40E355C010E365874
:10AC2000D8A015EF56F017EF56F00AEF56F0430E86
:10AC30004CEC55F03A0E4CEC55F0000E4CEC55F047
:10AC4000880E4CEC55F0000E4CEC55F08388120049
:10AC500083948398000E366E000E356E354A362A80
:10AC6000F40E355C010E3658D8A039EF56F03BEFA4
:10AC700056F02EEF56F0230E4CEC55F0D6EC55F076
:10AC80002C6ED6EC55F02B6ED6EC55F02A6ED6EC29
:10AC900055F0296E83881200819C819E32C07EFF10
:10ACA00032C035F033C036F0D89036323532D890D5
:10ACB000363235323550030B7F6E34C080FF8184CD
:10ACC000F29E550E826EAA0E826E818281B26BEF69
:10ACD00056F06DEF56F066EF56F0F28E819412004A
:10ACE000326E32A076EF56F078EF56F07BEF56F0EA
:10ACF00084827CEF56F0849232A281EF56F083EF8B
:10AD000056F086EF56F0848487EF56F0849432A490
:10AD10008CEF56F08EEF56F091EF56F0848692EF5E
:10AD200056F0849612000E01D8518F0B6009D86F2F
:10AD3000050EDE6FF00ED81700F000F000F000F006
:10AD400000F000F000F000F000F000F00E01DAA9D1
:10AD5000ACEF56F0AEEF56F0A6EF56F0010E1C6EBB
:10AD600012000E01D8518F0B5009D86FF00ED81772
:10AD700000F000F000F000F000F000F000F000F053
:10AD800000F000F00E01DAA9C8EF56F0CAEF56F055
:10AD9000C2EF56F0000E1C6E1200326ED1EF56F06C
:10ADA00004009EA2D6EF56F0D8EF56F0D0EF56F042
:10ADB000DBEF56F00400CEEC57F0E806D8B4E3EF32
:10ADC00056F0E5EF56F0DAEF56F032C09AFF120077
:10ADD000356E8AEC57F083988AEC57F035504CEC7E
:10ADE00055F0E3EC57F0D6EC55F02E6ED6EC55F05E
:10ADF0002D6E8AEC57F083888AEC57F01200000120
:10AE000002030405060708090A0B0C0D0E0F1011AA
:10AE100012130701040302050600FFFFFFFFFFFFF7
:10AE2000FFFFFFFFFFFFFFFFFFFF000E0F01116F8E
:10AE3000000E196F000E216F000E266F60983F0EF6
:10AE4000576F5899FC0E58173E0E5F6F6084000EC6
:10AE50005C6F608E12009E8E9E9C9E989E969E8435
:10AE60009E8A9D9C9D9A9D889D969F989F869F9067
:10AE7000440E9B6E9D8EF28C99500E01C58B120074
:10AE8000819C819E32C07EFF32C034F033C035F0E9
:10AE9000D89035323432D890353234323450030BB6
:10AEA0007F6E818080501200000ECDEC56F0020EB5
:10AEB000CDEC56F0060ECDEC56F0010ECDEC56F072
:10AEC000020ECDEC56F0020ECDEC56F012000F0142
:10AED000318F319B31993151F30B0409316FFC0EE5
:10AEE000311731AD76EF57F078EF57F071EF57F03B
:10AEF0001200D598F00ED516D6501F0B6009D66EED
:10AF0000D698D650F00B0609D66ED58E0E01CA9192
:10AF1000C28B120000F000F000F000F000F000F032
:10AF200000F000F000F000F000F000F000F000F0A1
:10AF300000F000F01200326E3204D8A4A2EF57F0F5
:10AF4000A4EF57F0A7EF57F08684A8EF57F0869448
:10AF500012008A9C090E0E01FD6F8A8E170EB56FC6
:10AF60008A8A85988A9886948B9412000F01339B65
:10AF700033993351F30B0809336F33911F0E346F3C
:10AF8000338F12008388889883968896888283946A
:10AF90008894200E0F01106F888A12008FAAD3EFB9
:10AFA00057F0D5EF57F0D8EF57F0010ED9EF57F023
:10AFB000000E120085908A90899289948996000EDD
:10AFC00070EC56F012008DBAE8EF57F0EAEF57F048
:10AFD000E3EF57F0120089888B8A8B80210E0F01D6
:0EAFE000256F1200859812008588120001016D
:020000040020DA
:10000000FFFFFFFFFFFFFFFFFFFFFFFFFFFFFFFF00
:020000040030CA
:0C000000DCFF3CEFEBC7F0EFFFFFFFFF61
:00000001FF
