:020000040000fa
:080000000001040000000000f3
:020000040000fa
:0400080016060000d8
:020000040000fa
:04000c0016060000d4
:020000040000fa
:0400100016060000d0
:020000040000fa
:0400140016060000cc
:020000040000fa
:0400180016060000c8
:020000040000fa
:04001c0016060000c4
:020000040000fa
:0400200016060000c0
:020000040000fa
:0400240016060000bc
:020000040000fa
:0400280016060000b8
:020000040000fa
:04002c0016060000b4
:020000040000fa
:0400300016060000b0
:020000040000fa
:040034004404000080
:020000040000fa
:0400380016060000a8
:020000040000fa
:04003c0016060000a4
:020000040000fa
:0400400016060000a0
:020000040000fa
:04004400160600009c
:020000040000fa
:040048001606000098
:020000040000fa
:04004c001606000094
:020000040000fa
:040050001606000090
:020000040000fa
:040054009204000012
:020000040000fa
:040058004605000059
:020000040000fa
:04005c001606000084
:020000040000fa
:040060001606000080
:020000040000fa
:04006400160600007c
:020000040000fa
:040068001606000078
:020000040000fa
:04006c001606000074
:020000040000fa
:040070001606000070
:020000040000fa
:04007400160600006c
:020000040000fa
:040078001606000068
:020000040000fa
:04007c001606000064
:020000040000fa
:040080001606000060
:020000040000fa
:04008400160600005c
:020000040000fa
:040088001606000058
:020000040000fa
:04008c001606000054
:020000040000fa
:040090001606000050
:020000040000fa
:04009400160600004c
:020000040000fa
:040098001606000048
:020000040000fa
:04009c001606000044
:020000040000fa
:0400a000ec0400006c
:020000040000fa
:0400a400ae050000a5
:020000040000fa
:0400a8001606000038
:020000040000fa
:0400ac001606000034
:020000040000fa
:0400b0001606000030
:020000040000fa
:0400b400160600002c
:020000040000fa
:0400b8001606000028
:020000040000fa
:0400bc001606000024
:020000040000fa
:0400c0001606000020
:020000040000fa
:0400c400160600001c
:020000040000fa
:0400c8001606000018
:020000040000fa
:0400cc001606000014
:020000040000fa
:0400d0001606000010
:020000040000fa
:0400d400160600000c
:020000040000fa
:0400d8001606000008
:020000040000fa
:0400dc001606000004
:020000040000fa
:0400e0001606000000
:020000040000fa
:0400e40016060000fc
:020000040000fa
:0400e80016060000f8
:020000040000fa
:0400ec0016060000f4
:020000040000fa
:0400f00016060000f0
:020000040000fa
:0400f40016060000ec
:020000040000fa
:0400f80016060000e8
:020000040000fa
:0400fc0016060000e4
:020000040000fa
:0401000016060000df
:020000040000fa
:0401040016060000db
:020000040000fa
:0401080016060000d7
:020000040000fa
:04010c0016060000d3
:020000040000fa
:0401100016060000cf
:020000040000fa
:0401140016060000cb
:020000040000fa
:0401180016060000c7
:020000040000fa
:04011c0016060000c3
:020000040000fa
:0401200016060000bf
:020000040000fa
:0401240016060000bb
:020000040000fa
:0401280016060000b7
:020000040000fa
:04012c0016060000b3
:020000040000fa
:0401300016060000af
:020000040000fa
:0401340016060000ab
:020000040000fa
:0401380016060000a7
:020000040000fa
:04013c0016060000a3
:020000040000fa
:04014000160600009f
:020000040000fa
:04014400160600009b
:020000040000fa
:040148001606000097
:020000040000fa
:04014c001606000093
:020000040000fa
:04015000160600008f
:020000040000fa
:04015400160600008b
:020000040000fa
:040158001606000087
:020000040000fa
:04015c001606000083
:020000040000fa
:04016000160600007f
:020000040000fa
:04016400160600007b
:020000040000fa
:040168001606000077
:020000040000fa
:04016c001606000073
:020000040000fa
:04017000160600006f
:020000040000fa
:04017400160600006b
:020000040000fa
:040178001606000067
:020000040000fa
:04017c001606000063
:020000040000fa
:04018000160600005f
:020000040000fa
:04018400160600005b
:020000040000fa
:040188001606000057
:020000040000fa
:04018c001606000053
:020000040000fa
:04019000160600004f
:020000040000fa
:04019400160600004b
:020000040000fa
:040198001606000047
:020000040000fa
:04019c001606000043
:020000040000fa
:0401a000160600003f
:020000040000fa
:0401a400160600003b
:020000040000fa
:0401a8001606000037
:020000040000fa
:0401ac001606000033
:020000040000fa
:0401b000160600002f
:020000040000fa
:0401b400160600002b
:020000040000fa
:0401b8001606000027
:020000040000fa
:0401bc001606000023
:020000040000fa
:0401c000160600001f
:020000040000fa
:0401c400160600001b
:020000040000fa
:0401c8001606000017
:020000040000fa
:0401cc001606000013
:020000040000fa
:0401d000160600000f
:020000040000fa
:0401d400160600000b
:020000040000fa
:0401d8001606000007
:020000040000fa
:0401dc001606000003
:020000040000fa
:0401e00016060000ff
:020000040000fa
:0401e40016060000fb
:020000040000fa
:0401e80016060000f7
:020000040000fa
:0401ec0016060000f3
:020000040000fa
:0401f00016060000ef
:020000040000fa
:0401f40016060000eb
:020000040000fa
:0401f80016060000e7
:020000040000fa
:0401fc0016060000e3
:020000040000fa
:100200004fee23000e7f24000e0188000000000046
:10021000000020000000e000020032000001200089
:100220002002880014000700820207000000e0009e
:1002300003003a0080af22000100200002003700d6
:100240000000200001002000810f7000010032003a
:1002500014000700000020000000e000020032004f
:1002600000000200000000008e26020000000000d6
:100270000040da000000fe004440a90060b3200006
:100280000000e00003003200002020009001880000
:100290004440a800000006008a1f78008b1f7800e9
:1002a00000000600a1028800800478000000eb0036
:1002b0001f003700e284440054a0b4009905ba003e
:1002c000e284440054a0b4009906ba00e2844400d9
:1002d00054a0b4000006eb00476fde00fd07b2003b
:1002e000ae018800636ce10003003a00eaff0700fa
:1002f0000000eb000e003700606ce10008003a00df
:10030000004deb000a05e800020039003420ec0043
:100310000af0a0008b05e900f9ff3e000400370059
:100320006168e100010032000086eb000b0007006d
:1003300019c7ba001905ba000e04e00003003a001c
:100340000a00e000dbff3a0000000600fe07b200f2
:10035000ae0288008a047800f5ff37000cd0a300b5
:10036000e20f4d001c00390089027800354dba00bb
:100370000a05e800020039003420ec000af0a00071
:100380008b05e9000f003200254dba000a05e80090
:10039000020039003420ec000af0a0008b05e900cf
:1003a000080032000c00e0000600320015cdba0053
:1003b0000a05e800020039003420ec000af0a00031
:1003c0008b05e9008984e80054a0b4000b00e0002c
:1003d000e2ff3a00000006009902ba00055d7800cd
:1003e0008b05e900f7ff3200c82ade00055d7800c2
:1003f0008b05e900f3ff32000c00e000f1ff320052
:1004000019ddba00eeff37000e20040000000000e6
:100410007e110400000000008611040000000000ae
:100420008e1104000000000096110400000000007e
:100430009e11040000000000a6110400000000004e
:10044000ae11040000000000b6110400000000001e
:10045000be11040000000000c611040000000000ee
:10046000ce11040000000000d611040000000000be
:10047000de11040000000000e6110400000000008e
:10048000ee11040000000000f6110400000000005e
:10049000fe1104000000000006120400000000002d
:1004a0000e120400000000001612040000000000fc
:1004b0001e120400000000002612040000000000cc
:1004c0002e1204000000000036120400000000009c
:1004d0003e1204000000000046120400000000006c
:1004e0004e1204000000000056120400000000003c
:1004f0005e1204000000000066120400000000000c
:100500006e120400000000007612040000000000db
:100510007e120400000000008612040000000000ab
:100520008e1204000000000096120400000000007b
:100530009e12040000000000a6120400000000004b
:10054000ae12040000000000b6120400000000001b
:10055000be12040000000000c612040000000000eb
:10056000ce12040000000000d612040000000000bb
:10057000de12040000000000e6120400000000008b
:10058000ee12040000000000f6120400000000005b
:10059000fe1204000000000006130400000000002a
:1005a00012130400000000001a13040000000000f1
:1005b00022130400000000002a13040000000000c1
:1005c00032130400000000003a1304000000000091
:1005d00042130400000000004a1304000000000061
:1005e00052130400000000005a1304000000000031
:1005f00062130400000000006a1304000000000001
:1006000072130400000000007a13040000000000d0
:1006100082130400000000008a13040000000000a0
:1006200092130400000000009e130400000000006c
:10063000aa13040000000000c4130400000000001e
:10064000cc13040000000000d413040000000000dc
:10065000dc13040000000000e413040000000000ac
:10066000ec13040000000000f4130400000000007c
:10067000fc1304000000000004140400000000004b
:100680000c1404000000000014140400000000001a
:100690001c140400000000002414040000000000ea
:1006a0002c140400000000003414040000000000ba
:1006b0003c1404000000000044140400000000008a
:1006c0004c1404000000000054140400000000005a
:1006d0005c1404000000000064140400000000002a
:1006e0006c140400000000007414040000000000fa
:1006f0007c140400000000008414040000000000ca
:100700008c14040000000000941404000000000099
:100710009c14040000000000a41404000000000069
:10072000ac14040000000000b41404000000000039
:10073000bc14040000000000c41404000000000009
:10074000cc14040000000000d414040000000000d9
:10075000dc14040000000000e414040000000000a9
:10076000ec14040000000000f41404000000000079
:10077000fc14040000000000081504000000000044
:10078000101504000000000018150400000000000f
:1007900020150400000000002815040000000000df
:1007a00030150400000000003815040000000000af
:1007b000401504000000000048150400000000007f
:1007c000501504000000000058150400000000004f
:1007d000d015040000000000d8150400000000003f
:1007e000e015040000000000e8150400000000000f
:1007f00008160400000000001016040000000000ad
:100800006a16040000000000221704000000000027
:100810002a170400000000002a180400000000004d
:100820009c18040000000000a41804000000000050
:10083000ac18040000000000b41804000000000020
:10084000bc18040000000000c418040000000000f0
:10085000cc1804000000000078190400000000001b
:100860008019040000000000881904000000000046
:100870009019040000000000981904000000000016
:10088000a019040000000000809fbe003200f800a4
:100890003400f80010002000a00188000020200093
:1008a000900188000000fa008860a90020418000c3
:1008b0000000e80020418800214180001003200052
:1008c000808f5000120036002428ef0010c0b300c3
:1008d00026e8b700f04080000000e800f040880003
:1008e000f1408000f0702200808f5000020036003e
:1008f00000712200f0408800504180000000e000bc
:1009000003003200504180000000e900504188009f
:100910000080fa003400f9003200f9004f00be00f8
:1009200000400600809fbe00821f78003200f80061
:100930003400f80010002000a001880000202000f2
:10094000900188000000fa008960a9004240800000
:10095000f01c8000804078006015230002004000f9
:1009600001487800404080000000e80040408800d6
:1009700041408000f01f2000808f500001003600b1
:100980000828ef00d01c8000620060000000e0003a
:10099000010032009a23a900d01c8000640060008e
:1009a0000000e000010032009a43a900d01c800042
:1009b000680060000000e000010032009a63a900b6
:1009c0000080fa003400f9003200f9004f0178008d
:1009d0004f00be0000400600809fbe00821f7800ce
:1009e0003200f8003400f80010002000a001880058
:1009f00000202000900188000000fa008bc0a900b0
:100a000002408000a01d80008040780060842000ab
:100a10000200400001487800004080000000e8002b
:100a20000040880001408000f0702200808f50005c
:100a3000010036000028ef00801d80006200600089
:100a40000000e00001003200b023a900801d8000fa
:100a5000640060000000e00001003200b043a90023
:100a6000801d8000680060000000e000010032008e
:100a7000b063a9000080fa003400f9003200f900e8
:100a80004f0178004f00be0000400600809fbe006e
:100a90003200f8003400f80010002000a0018800a7
:100aa00000202000900188000000fa008980a90041
:100ab0006140800070408000808f500011003a003b
:100ac0009980a90020003700714080006035230024
:100ad00001004000104078000000fb00e01c88008e
:100ae000704080000000e800704088007140800085
:100af000f01f2000808f5000030036000e28ef000a
:100b00000100370000000000d11c80000020200000
:100b1000008060000000e00004003a0061408000b6
:100b200070408000808f5000e7ff3a0061408000f5
:100b300070408000808f500002003a009980a90028
:100b4000010037009980a8000080fa003400f90005
:100b50003200f9004f00be0000400600809fbe003a
:100b60003200f8003400f80010002000a0018800d6
:100b700000202000900188000000fa008be0a9000e
:100b80002140800030408000808f500011003a00ea
:100b90009be0a900200037003140800060f5220072
:100ba00001004000104078000000fb00901d88000c
:100bb000304080000000e800304088003140800074
:100bc000f01f2000808f5000030036000628ef0041
:100bd0000100370000000000811d8000002020007f
:100be000008060000000e00004003a002140800026
:100bf00030408000808f5000e7ff3a0021408000a5
:100c000030408000808f500002003a009be0a90035
:100c1000010037009be0a8000080fa003400f900d2
:100c20003200f9004f00be00004006000040da002c
:080c30000000fe0000000500b9
:020000040000fa
:100c380000010000000000000200000000000000a9
:100c48007e1100000000000000010000000000000c
:100c5800000000007e1100000000000000020000fb
:100c680000000000000000007e11000000030000ea
:100c78000003000024000000000000007e110000b6
:100c88000002000000040000040000000000000052
:100c98007e110000000000000005000000000000b8
:100ca800000000007e1100000000000000060000a7
:100cb80000000000000000007e1100000005000098
:100cc8000007000026000000000000007e11000060
:100cd8000000000000080000000000000000000004
:100ce8007e110000000200000009000082000000e0
:100cf800000000007e11000000070000000a00004c
:100d08002a000000000000007e110000000700001b
:100d1800000b00002a000000000000007e11000007
:100d280000000000000c00000000000000000000af
:100d38007e11000000020000000d000022000000eb
:100d4800000000007e11000000030000000e0000fb
:100d580022020000000000007e11000000010000d7
:100d6800000f000008000000000000007e110000d5
:100d78000001000000100000080000000000000052
:100d88007e110000000100000011000008000000b2
:100d9800000000007e1100000000000001000000bb
:100da80000000000000000007e11000000000000ac
:100db8000101000000000000000000007e1100009a
:100dc8000000000001020000000000000000000018
:100dd8007e110000000300000103000084000000f1
:100de800000000007e110000000200000104000065
:100df80004000000000000007e1100000002000056
:100e08000105000004000000000000007e11000041
:100e180000010000010600000200000000000000c0
:100e28007e11000000050000010700008600000098
:100e3800000000007e11000000050000010800000d
:100e480026000000000000007e11000000040000e1
:100e58000200000024080000000000007e110000cd
:100e6800000400000201000044000000000000002f
:100e78007e110000000200000202000004000000d1
:100e8800000000007e1100000003000002030000c3
:100e980022080000000000007e110000000200008f
:100ea8000204000022000000000000007e11000083
:100eb80000040000020500004208000000000000d5
:100ec8007e11000000010000030000000200000085
:100ed800000000007e110000000100000301000076
:100ee80002000000000000007e1100000009000060
:100ef8000302000042440000040000007e110000cc
:100f080000010000030300000200000000000000d0
:100f18007e11000000010000030400000200000030
:100f2800000000007e110000000200000305000020
:100f380082000000000000007e1100000001000097
:100f48000306000002000000000000007e110000ff
:100f5800000100000307000002000000000000007c
:100f68007e1100000002000003080000820000005b
:100f7800000000007e1100000001000003090000cd
:100f880002000000000000007e11000000080000c0
:100f98000400000042440000080000007e11000028
:100fa8000006000004010000428400000000000068
:100fb8007e110000000600000402000042840000c8
:100fc800000000007e11000000050000040300007e
:100fd80042040000000000007e1100000003000031
:100fe8000404000042000000000000007e11000020
:100ff8000004000004050000420800000000000092
:101008007e110000000400000406000042080000f1
:10101800000000007e11000000010000040700002d
:1010280002000000000000007e1100000003000024
:101038000408000042000000000000007e110000cb
:1010480000060000040900004284000000000000bf
:101058007e11000000020000040a000022000000c7
:10106800000000007e11000000020000040b0000d8
:1010780082000000000000007e1100000002000055
:101088000500000022000000000000007e110000a2
:10109800000100000501000002000000000000003f
:1010a8007e1100000001000005020000020000009f
:1010b800000000007e11000000030000050300008e
:1010c80022020000000000007e1100000005000060
:1010d8000504000062000000000000007e1100000e
:1010e80000000000050500000000000000000000ee
:1010f8007e11000000010000050600000800000045
:10110800000000007e11000000000000050700003c
:1011180000000000000000007e1100000002000036
:101128000600000022000000000000007e11000000
:10113800000200000601000022000000000000007c
:101148007e110000000100000602000002000000fd
:10115800000000007e110000000f000006030000e0
:101168002a440000440000007e1100000000000036
:101178000604000000000000000000007e110000ce
:1011880000080000060500004444000000000000bc
:101198007e11000000030000060600002202000085
:1011a800000000007e110000000500000607000096
:1011b80044020000000000007e110000000500004d
:1011c8000608000044020000000000007e11000034
:1011d8000002000006090000820000000000000074
:1011e8007e11000000070000060a00002a00000027
:1011f800000000007e11000000040000060b000043
:1012080044000000000000007e1100000003000000
:101218000700000022020000000000007e1100000c
:101228000006000007010000260200000000000080
:101238007e110000000300000702000022020000e7
:10124800000000007e1100000002000007030000fb
:1012580022000000000000007e11000000020000d3
:101268000704000022000000000000007e110000ba
:101278000003000007050000220200000000000033
:101288007e11000000030000070600002202000093
:10129800000000007e1100000002000007070000a7
:1012a80022000000000000007e110000000600007f
:1012b8000708000022220000220000007e11000022
:1012c8000002000007090000820000000000000082
:1012d8007e11000000030000070a0000220200003f
:1012e800000000007e11000000030000070b000052
:1012f80022080000000000007e110000000100002c
:10130800070c000002000000000000007e11000031
:1013180000050000070d0000224200000000000048
:101328007e11000000020000070e000022000000ed
:10133800000000007e11000000020000070f0000fe
:1013480022000000000000007e11000000010000e3
:101358000710000002000000000000007e110000dd
:10136800000000000711000000000000000000005d
:101378007e110000000100000712000002000000ba
:10138800000000007e1100000001000007130000ab
:1013980002000000000000007e11000000010000b3
:1013a8000714000002000000000000007e11000089
:1013b80000030000080000002202000000000000f6
:1013c8007e1100000001000008010000020000007a
:1013d800000000007e11000000000000080200006c
:1013e80000000000000000007e1100000000000066
:1013f8000803000000000000000000007e1100004b
:1014080000000000080400000000000000000000c8
:101418007e110000000200000805000082000000a4
:10142800000000007e110000000100000806000016
:1014380002000000000000007e1100000001000012
:101448000900000002000000000000007e110000fa
:101458000004000009010000060000000000000070
:101468007e110000000100000902000008000000d1
:10147800000000007e1100000000000009030000c9
:1014880000000000000000007e11000000000000c5
:1014980000000000000000000000000086110000ad
:1014a8000000000000010000000000000000000033
:1014b8008e11000000060000000200000a00000073
:1014c8000000000096110000000200000003000068
:1014d80004000000000000009e110000000300004e
:1014e800000400002400000000000000a611000015
:1014f8000005000000050000222200000200000094
:10150800ae1100000001000000060000020000000b
:1015180000000000b61100000005000000070000f0
:101528008600000000000000be110000000c000052
:10153800000800004444000024020000c611000016
:101548000002000000090000040000000000000084
:10155800ce11000000020000000a00000400000094
:1015680000000000d611000000020000000b00007f
:101578000400000000000000de1100000000000070
:10158800000c00000000000000000000e611000050
:1015980000030000000d00008400000000000000af
:1015a800ee11000000020000000e00000400000020
:1015b80000000000f611000000000000000f00000d
:1015c8000000000000000000fe1100000001000003
:1015d80000100000080000000000000006120000d3
:1015e80000010000001100000800000000000000d9
:1015f8000e120000000000000100000000000000c2
:1016080000000000161200000000000001010000a8
:1016180000000000000000001e1200000000000092
:101628000102000000000000000000002612000077
:101638000002000001030000040000000000000098
:101648002e120000000300000104000084000000c6
:101658000000000036120000000000000105000034
:1016680000000000000000003e1200000002000020
:1016780001060000040000000000000046120000ff
:101688000002000001070000040000000000000044
:101698004e120000000100000108000008000000d0
:1016a80000000000561200000002000002000000c6
:1016b80004000000000000005e12000000070000a7
:1016c80002010000448400000000000066120000cf
:1016d80000050000020200004408000000000000ad
:1016e8006e1200000000000002030000000000006d
:1016f8000000000076120000000000000204000054
:1017080000000000000000007e120000000200003f
:10171800020500000400000000000000861200001e
:101728000003000003000000420000000000000069
:101738008e120000000200000301000032000000c9
:1017480000000000961200000003000003020000e1
:1017580042000000000000009e120000000300008c
:10176800030300004200000000000000a612000071
:1017780000020000030400008200000000000000d6
:10178800ae12000000030000030500004200000044
:1017980000000000b612000000030000030600006d
:1017a8004200000000000000be120000000100001e
:1017b800030700000200000000000000c61200003d
:1017c8000001000003080000020000000000000003
:1017d800ce1200000002000003090000040000000f
:1017e80000000000d6120000000300000400000002
:1017f8004200000000000000de12000000030000ac
:10180800040100004200000000000000e612000091
:101818000003000004020000420000000000000075
:10182800ee12000000030000040300004200000064
:1018380000000000f612000000030000040400008d
:101848004200000000000000fe120000000300003b
:10185800040500004200000000000000061300001c
:101868000003000004060000420000000000000021
:10187800121300000002000004070000040000002a
:10188800000000001a130000000300000408000014
:1018980042000000000000002213000000030000c6
:1018a8000409000042000000000000002a130000a4
:1018b80000030000040a00004200000000000000cd
:1018c8003213000000030000040b00004200000077
:1018d800000000003a1300000003000005000000ab
:1018e8004200000000000000421300000000000059
:1018f8000501000000000000000000004a1300007d
:1019080000020000050200000400000000000000c2
:101918005213000000000000050300000000000052
:10192800000000005a130000000200000504000037
:101938000400000000000000621300000001000025
:101948000505000002000000000000006a13000006
:101958000000000005060000000000000000000074
:1019680072130000000300000507000024000000b7
:10197800000000007a1300000000000006000000cc
:1019880000000000000000008213000000020000b8
:101998000601000004000000000000008a13000097
:1019a8000002000006020000040000000000000021
:1019b800921300000003000006030000240000004a
:1019c800000000009e130000000200000604000052
:1019d8000400000000000000aa130000000300003b
:1019e800060500002400000000000000c4130000e9
:1019f80000020000060600000400000000000000cd
:101a0800cc130000000200000607000004000000dc
:101a180000000000d41300000002000006080000c7
:101a28000400000000000000dc13000000020000b9
:101a3800060900000400000000000000e413000094
:101a480000020000060a0000040000000000000078
:101a5800ec13000000020000060b00000400000068
:101a680000000000f413000000020000070000005e
:101a78000400000000000000fc1300000002000049
:101a8800070100000400000000000000041400002a
:101a9800000200000702000004000000000000002f
:101aa8000c140000000200000703000004000000fe
:101ab80000000000141400000002000007040000e9
:101ac80004000000000000001c14000000020000d8
:101ad80007050000040000000000000024140000b6
:101ae80000020000070600000400000000000000db
:101af8002c14000000040000070700002402000066
:101b08000000000034140000000200000708000074
:101b180004000000000000003c1400000004000065
:101b28000709000024080000000000004414000019
:101b380000030000070a0000840000000000000005
:101b48004c14000000010000070b00000200000018
:101b5800000000005414000000000000070c000002
:101b680000000000000000005c14000000020000fb
:101b7800070d0000040000000000000064140000cd
:101b880000020000070e0000040000000000000032
:101b98006c14000000020000070f000004000000a1
:101ba800000000007414000000000000071000008e
:101bb80000000000000000007c140000000300008a
:101bc8000711000024000000000000008414000039
:101bd80000020000071200000400000000000000de
:101be8008c14000000000000071300000000000033
:101bf8000000000094140000000200000714000018
:101c080004000000000000009c1400000000000018
:101c1800080000000000000000000000a4140000fc
:101c280000000000080100000000000000000000a3
:101c3800ac140000000200000802000004000000cc
:101c480000000000b41400000000000008030000b9
:101c58000000000000000000bc14000000010000ab
:101c6800080400000800000000000000c414000080
:101c780000020000080500008200000000000000cb
:101c8800cc1400000000000008060000000000005e
:101c980000000000d414000000000000090000004b
:101ca8000000000000000000dc140000000200003a
:101cb800090100000400000000000000e414000016
:101cc80000020000090200000400000000000000fb
:101cd800ec140000000200000903000004000000ea
:101ce80000000000f4140000800c00000000000058
:101cf8004444000024020000fc140000800100009d
:101d080000010000080000000000000008150000a5
:101d18008002000000020000220000000000000015
:101d280010150000800200000003000022000000df
:101d380000000000181500008004000000040000e6
:101d48004400000000000000201500008000000092
:101d58000005000000000000000000002815000039
:101d680080020000000600000400000000000000df
:101d7800301500008003000001000000840000000e
:101d88000000000038150000800700000200000075
:101d980022440000080000004015000080060000f2
:101da8000201000042240000000000004815000065
:101db8008003000002020000240000000000000070
:101dc800501500008010000003000000222a0000c7
:101dd800442400005815000080060000030100009c
:101de8002244000000000000d0150000800200001e
:101df800030200008200000000000000d815000067
:101e080080020000030300008200000000000000c0
:101e1800e0150000800300000304000042000000f9
:101e280000000000e8150000800300000400000026
:101e380042000000000000000816000080050000b5
:101e48000401000042040000000000001016000019
:101e58008006000004020000428400000000000028
:101e68006a160000800700000403000042240000f6
:101e7800080000002217000080040000040400008d
:101e880042080000000000002a170000800500003a
:101e98000405000042820000000000002a1800002b
:101ea800800200000406000082000000000000001c
:101eb8009c180000800300000500000022080000b4
:101ec80000000000a41800008003000005010000c5
:101ed8004200000000000000ac180000800500006f
:101ee800050200006200000000000000b4180000b5
:101ef800800100000503000002000000000000004f
:101f0800bc18000080040000050400002222000024
:101f180000000000c4180000800b0000060000004c
:101f2800232a000082000000cc1800008002000074
:101f380006010000220000000000000078190000df
:101f480080070000070000002622000000000000b3
:101f58008019000080010000070100000200000055
:101f6800000000008819000080030000070200003c
:101f780052000000000000009019000080050000d9
:101f88000703000026000000000000009819000068
:101f980080040000090000000600000000000000a6
:101fa800a019000000000000000000000000000070
:101fb80000000000000000004a8a0000548a000067
:101fc8005e8a0000688a0000728a00007c8a00002d
:101fd800868a0000908a00009a8a0000a48a00007d
:101fe800ae8a0000b88a0000c28a0000cc8a0000cd
:101ff800d68a0000e08a0000ea8a0000f48a00001d
:10200800788e0000828e00008c8e0000968e000074
:10201800a08e0000aa8e0000b48e0000fe8a000088
:10202800088b0000128b00001c8b0000268b000020
:10203800308b00003a8b0000448b00004e8b000070
:10204800be8e0000588b0000628b00006c8b000075
:10205800768b0000808b00008a8b0000c88e000001
:10206800d28e0000dc8e0000948b00009e8b000056
:10207800a88b0000b28b0000bc8b0000c68b000050
:10208800d08b0000da8b0000e48b0000ee8b0000a0
:10209800e68e0000f08e0000fa8e0000048f00002b
:1020a8000e8f0000f88b0000028c00000c8c0000e2
:1020b800168c0000208c00002a8c0000348c000054
:1020c8003e8c0000488c0000528c00005c8c0000a4
:1020d800668c0000188f0000228f00002c8f0000f3
:1020e800368f0000408f00004a8f0000548f000098
:1020f800708c00007a8c0000848c00008e8c0000ac
:10210800988c0000a28c0000ac8c0000b68c0000fb
:102118005e8f0000688f0000728f00007c8f0000c7
:10212800868f0000c08c0000ca8c0000d48c000090
:10213800de8c0000e88c0000f28c0000fc8c0000b3
:10214800068d0000108d00001a8d0000248d0000ff
:102158002e8d0000908f00009a8f0000388d0000af
:10216800428d00004c8d0000568d0000608d0000ef
:102178006a8d0000748d00007e8d0000888d00003f
:10218800928d00009c8d0000a68d0000b08d00008f
:10219800ba8d0000c48d0000ce8d0000d88d0000df
:1021a800e28d0000ec8d0000f68d0000008e00002e
:1021b800a48f0000ae8f0000b88f0000c28f00000f
:1021c8000a8e0000148e00001e8e0000288e00006b
:1021d800328e00003c8e0000468e0000508e0000bb
:1021e8005a8e0000648e00006e8e0000cc8f0000b6
:1021f800e08f0000120000001290000009000000ab
:102208002690000006000000389000000a00000038
:10221800569000000c0000007c90000008000000b0
:10222800969000000c000000b2900000150000001d
:10223800e490000007000000f29000000400000095
:102248000490000007000000249000000100000036
:1022580032900000030000004c90000005000000d0
:102268006e900000070000008c9000000500000040
:10227800ae90000002000000dc90000004000000a6
:102288000000000000000000fa90000001000000bb
:0c2298000100000002000000002800000f
:020000040000fa
:1022a4000600fa000e81e800000978006400470087
:1022b400010878000e80e800100078004800dd0076
:1022c400e400470091007800010f40001e007800f0
:1022d4000000e00003003d00000028001e0f400045
:1022e40002003700000028001e0f40001e00780086
:1022f4000080fa00000006000200fa00000f7800d7
:102304000080fa00000006000200fa00000f7800c6
:102314000080fa00000006000200fa00000f7800b6
:102324000080fa00000006000200fa00000f7800a6
:102334000080fa00000006000200fa00000f780096
:102344000080fa00000006000200fa00000f780086
:102354000080fa00000006000200fa00000f780076
:102364000080fa00000006000200fa00000f780066
:102374000080fa00000006000200fa00000f780056
:102384000080fa00000006000200fa00000f780046
:102394000080fa00000006000200fa00000f780036
:1023a4000080fa00000006000200fa00000f780026
:1023b4000080fa00000006000200fa00000f780016
:1023c4000080fa00000006000200fa00000f780006
:1023d4000080fa00000006000200fa00000f7800f6
:1023e4000080fa00000006000200fa00000f7800e6
:1023f4000080fa00000006000200fa00000f7800d6
:102404000080fa00000006000200fa00000f7800c5
:102414000080fa00000006000200fa00000f7800b5
:102424000080fa00000006000200fa00000f7800a5
:102434000080fa00000006000200fa00000f780095
:102444000080fa00000006000200fa00000f780085
:102454000080fa00000006000200fa00000f780075
:102464000080fa00000006000200fa00000f780065
:102474000080fa00000006000200fa00000f780055
:102484000080fa00000006000200fa00000f780045
:102494000080fa00000006000200fa00000f780035
:1024a4000080fa00000006000200fa00000f780025
:1024b4000080fa00000006000200fa00000f780015
:1024c4000080fa00000006000200fa00000f780005
:1024d4000080fa00000006000200fa00000f7800f5
:1024e4000080fa00000006000200fa00000f7800e5
:1024f4000080fa00000006000200fa00000f7800d5
:102504000080fa00000006000200fa00000f7800c4
:102514000080fa00000006000200fa00000f7800b4
:102524000080fa00000006000200fa00000f7800a4
:102534000080fa00000006000200fa00000f780094
:102544000080fa00000006000200fa00000f780084
:102554000080fa00000006000200fa00000f780074
:102564000080fa00000006000200fa00000f780064
:102574000080fa00000006000200fa00000f780054
:102584000080fa00000006000200fa00000f780044
:102594000080fa00000006000200fa00000f780034
:1025a4000080fa00000006000200fa00000f780024
:1025b4000080fa00000006000200fa00000f780014
:1025c4000080fa00000006000200fa00000f780004
:1025d4000080fa00000006000200fa00000f7800f4
:1025e4000080fa00000006000200fa00000f7800e4
:1025f4000080fa00000006000200fa00000f7800d4
:102604000080fa00000006000200fa00000f7800c3
:1026140070c1b30044e8b7000080fa00000006006f
:102624000200fa00000f78000080fa0000000600a3
:102634000200fa00000f78000080fa000000060093
:102644000200fa00000f78000080fa000000060083
:102654000200fa00000f78000080fa000000060073
:102664000200fa00000f78000080fa000000060063
:102674000200fa00000f78000080fa000000060053
:102684000200fa00000f78000080fa000000060043
:102694000200fa00000f78000080fa000000060033
:1026a4000200fa00000f78000080fa000000060023
:1026b4000200fa00000f78000080fa000000060013
:1026c4000200fa00000f78000080fa000000060003
:1026d4000200fa00000f78000080fa0000000600f3
:1026e4000200fa00000f78000080fa0000000600e3
:1026f4000200fa00000f78000080fa0000000600d3
:102704000200fa00000f78000080fa0000000600c2
:102714000200fa00000f78000080fa0000000600b2
:102724000200fa00000f780050c0b30044e8b7007c
:102734000080fa00000006000200fa00000f780092
:10274400b0c0b30044e8b7000080fa0000000600ff
:102754000200fa00000f780010c8bf000004e00077
:1027640004003a0070c0b30044e8b7001e28ef002c
:102774000200370080c0b30044e8b7000080fa00cc
:10278400000006000200fa00000f78000080fa0042
:10279400000006000200fa00000f78000080fa0032
:1027a400000006000200fa00000f78000080fa0022
:1027b400000006000200fa00000f78000080fa0012
:1027c400000006000200fa00000f78000080fa0002
:1027d400000006000200fa00000f78000080fa00f2
:1027e400000006000200fa00000f78000080fa00e2
:1027f400000006000200fa00000f78000080fa00d2
:10280400000006000200fa00000f78000080fa00c1
:10281400000006000200fa00000f78000080fa00b1
:10282400000006000200fa00000f78000080fa00a1
:10283400000006000200fa00000f78000080fa0091
:10284400000006000200fa00000f78000080fa0081
:10285400000006000200fa00000f78000080fa0071
:10286400000006000200fa00000f78000080fa0061
:10287400000006000200fa00000f78000080fa0051
:10288400000006000200fa00000f78000080fa0041
:10289400000006000200fa00000f78000080fa0031
:1028a400000006000200fa00000f78000080fa0021
:1028b400000006000200fa00000f78000080fa0011
:1028c400000006000200fa00000f78000080fa0001
:1028d400000006000200fa00000f78000080fa00f1
:1028e400000006000200fa00000f78000080fa00e1
:1028f400000006000200fa00000f78000080fa00d1
:10290400000006000200fa00000f78000080fa00c0
:10291400000006000200fa00000f78000080fa00b0
:10292400000006000200fa00000f78000080fa00a0
:10293400000006000200fa00000f78000080fa0090
:10294400000006000200fa00000f78000080fa0080
:10295400000006000200fa00000f78000080fa0070
:10296400000006000200fa00000f78000080fa0060
:10297400000006000200fa00000f78000080fa0050
:10298400000006000200fa00000f78000080fa0040
:10299400000006000200fa00000f78000080fa0030
:1029a400000006000200fa00000f78000080fa0020
:1029b400000006000200fa00000f78000080fa0010
:1029c400000006000200fa00000f78000080fa0000
:1029d400000006000200fa00000f78000080fa00f0
:1029e400000006000200fa00000f78000080fa00e0
:1029f400000006000200fa00000f780030c0b300a7
:102a040044e8b7000080fa00000006000200fa0063
:102a1400000f78000080fa00000006000200fa00af
:102a2400000f78000080fa00000006000200fa009f
:102a3400000f78000080fa00000006000200fa008f
:102a4400000f78000080fa00000006000200fa007f
:102a5400000f78000080fa00000006000200fa006f
:102a6400000f78000080fa00000006000200fa005f
:102a7400000f78000080fa00000006000200fa004f
:102a8400000f78000080fa00000006000200fa003f
:102a9400000f78000080fa00000006000200fa002f
:102aa400000f78000080fa00000006000200fa001f
:102ab400000f78001e00780090407800c057230073
:102ac400014878001e0078000000e800904078007b
:102ad400d0572300014878001e007800e1572300f6
:102ae4006201400005000900b25878001e00780019
:102af4006800400090407800405823000148780066
:102b04001e007800e9004000914078008180fb00bd
:102b14006a004000104078000080fb004800dd009f
:102b24000080700030ac89001e007800eb0040008b
:102b3400914078008180fb006c00400010407800d8
:102b44000080fb004800dd000080700040ac89007c
:102b54001e007800ed004000914078008180fb0069
:102b64006e004000104078000080fb004800dd004b
:102b74000080700050ac89001e0078006f00400097
:102b840090407800c058230001487800c0c0b300ca
:102b940044e8b7000080fa00000006000200fa00d2
:102ba400000f78000080fa00000006000200fa001e
:102bb400000f78000080fa00000006000200fa000e
:102bc400000f78000080fa00000006000200fa00fe
:102bd400000f780030c8bf000004e00005003a0090
:102be40010c0b3002fe8b70090c0b30044e8b700aa
:102bf4000400370050c1b30044e8b7002068ef0078
:102c04002768ef000080fa00000006000200fa00c6
:102c1400000f78000080fa00000006000200fa00ad
:102c2400000f780044c8bf000080fb00f00f500084
:102c340018003200f00f500005003c00ed0f50006a
:102c440008003200ef0f5000090032001e00370068
:102c5400f30f500012003200f70f5000140032003e
:102c640019003700c0c0b30044e8b70016003700ad
:102c740013c8bf00e14f500003003e00e0c0b300a2
:102c840044e8b7001000370000c1b30044e8b700bf
:102c94000d00370020c1b30044e8b7000a00370034
:102ca40040c1b30044e8b7001e28ef000600370017
:102cb40040c1b30044e8b7001e28ef0010c0b300c1
:102cc40020e8b700000000000080fa0000000600c1
:102cd4000400fa008e80e8008008780012c8bf0063
:102ce4000080fb008e80e80091007800114178009c
:102cf4007800b90080007800e0582300008040008c
:102d04000248780012c8bf008080fb000e80e800f3
:102d1400100078000001e800124178000281fb00f5
:102d24000080e800104078000080fb004800dd00cf
:102d340000007100000178007808b9008000780074
:102d440000592300008040000208780012c8bf0028
:102d54008080fb000e80e8001000780063014000d2
:102d6400124178000281fb006400400010407800aa
:102d74000080fb004800dd000000710000017800c5
:102d84007808b900800078002059230000804000b2
:102d94000208780012c8bf000080fb008e80e800a3
:102da40091007800e5804000114178007800b90076
:102db40080007800405923000080400002487800d9
:102dc4000040eb00004f78001200370012c8bf002b
:102dd4000080fb009e81fb009e80fb000e81e800ca
:102de40012017800e4804000810041008180e80005
:102df400114178007800b900000078008300400099
:102e040040592300008040000000e8000248780098
:102e14001e4fe8000e80e8001000780065004000b6
:102e2400104078009e4f5000e8ff3e0012c8bf00db
:102e34000040e80012e8b7000080fa000000060035
:102e44000200fa00000f78000080fa00000006007b
:102e54000400fa008e80e800800878000e80e80004
:102e64001000780063004000104078000080fb00f0
:102e7400e20f500003003200f00f5000390032001e
:102e8400710037000e80e8001000780064004000f4
:102e9400104078000004e00066003a000e80e8006c
:102ea400100078006500400090407800a0c2b30094
:102eb40080cf500061003a000e80e80010007800d6
:102ec4001040780019e8b7000e80e8001000780080
:102ed4008000e800914078008180fb000080e800d9
:102ee400104078000080fb004800dd000080700086
:102ef400d04088000e80e800100078006300400095
:102f0400104078001ce8b7004268ef001100370059
:102f140042c8bf000080fb0021842000914078005b
:102f24008180fb000e81e800120178008180e800b6
:102f3400810041008180e8009140780022692300eb
:102f4400000041000148780042c8bf000040e8008a
:102f540042e8b70042c8bf00e14f5000ecff360022
:102f64003900370010c0b300004f78004268ef000a
:102f74001500370042c8bf000080fb0021ed23008c
:102f8400008040009040780042c8bf000080fb00f1
:102f94006f0010000e81e800120178000080e80044
:102fa400000041000080e8001040780080cf50000d
:102fb400020032000040eb00004f780042c8bf001e
:102fc4000040e80042e8b70042c8bf00ef4f50009d
:102fd400e8ff36001e407800e14f500019003a0027
:102fe4000e80e800100078001040780014e8b70064
:102ff4000e80e800100078008000e800914078001e
:103004008180fb000080e800104078000080fb0015
:103014004800dd0000807000b04088000e80e800a9
:1030240010007800630040001040780018e8b700f2
:103034000500370000000000030037000000000016
:1030440001003700000000000080fa0000000600c4
:103054000400fa008e80e800800878000e80e80002
:10306400100078008000e800914078008180fb0027
:103074000080e800104078000080fb004800dd007c
:1030840000807000d1408000810f500005003a009c
:1030940044c8bf00f14f500002003a0020c1b30001
:1030a40044e8b7002228ef0000c8b3001308070063
:1030b4000000eb00000f7800170037000e80e800d6
:1030c400900078001e0178006400410000804000f8
:1030d4000000e80090407800e06723001e004000f4
:1030e40001487800e06723001e004000104078008b
:1030f4000080fb004400de0000407800ff0707006a
:10310400e06723001e004000104078006f4060001c
:10311400fa0707001e0fe8001e007800f30f5000a6
:10312400e6ff360010c8b300f40707000080fa0079
:10313400000006000200fa00000f78000080fa0088
:10314400000006000200fa00000f78000080fa0078
:10315400000006000200fa00000f78000080fa0068
:10316400000006000200fa00000f78000080fa0058
:10317400000006000200fa00000f78000080fa0048
:10318400000006000200fa00000f78000080fa0038
:10319400000006000400fa008e80e8008008780031
:1031a40011c0b3000e00e800014878000040eb00b5
:1031b400004f7800130037001e80fb0062001000ef
:1031c400f1ec230000804000904078001e80fb005a
:1031d400650040000e81e800120178006a0040009a
:1031e400000041000000e8001040780080cf50004b
:1031f400030032008040eb000e00e8000148780034
:103204001e4fe8001e407800e24f5000eaff3600ef
:103214000040eb00004f7800130037001e80fb00d5
:103224006c00100021ec23000080400090407800e6
:103234001e80fb00680040000e81e8001201780047
:103244006a004000000041000000e80010407800df
:1032540080cf5000030032008040eb000e00e800f5
:10326400014878001e4fe8001e407800ec4f5000e3
:10327400eaff36000e00e80010407800e14f5000ed
:1032840018003a000040eb00004f78000b003700b4
:103294001e80fb009e80fb000e81e8001201780076
:1032a4008180e8008100410091407800625723004a
:1032b40000004100014878001e4fe8001e407800dd
:1032c400e54f5000f2ff36000e80e8001000780051
:1032d400680040001040780011e8b70010c0b30047
:1032e40010e8b7000080fa00000006000200fa00af
:1032f400000f78000080fa00000006000200fa00c7
:10330400000f78000080fa00000006000200fa00b6
:10331400000f78000080fa00000006000200fa00a6
:10332400000f78000080fa00000006000200fa0096
:10333400000f78000080fa00000006000200fa0086
:10334400000f78000080fa00000006000200fa0076
:10335400004f78001e80fb006a00b90080007800ee
:10336400c0612800008040000080fa0000000600d0
:103374000600fa000e81e8000009780064004700a6
:1033840001087800c0612800000f78001d00370094
:103394001e007800104078008080fb000e80e8005a
:1033a400104078000080fb0080806800800f2000bf
:1033b400008060000000e00010003a001e00780069
:1033c4000080e800904078006400470010407800d6
:1033d40080cf500009003a001e00780063004000ce
:1033e40090407800650047001040780080cf50007e
:1033f40002003a001e007800080037009e007800a2
:103404006a8f40001e0078006800400010007800b9
:103414000000e000deff3a000000eb000080fa004c
:10342400000006000600fa000e81e800000978009a
:10343400640047000108780060fd2800000f780050
:103444001e007800104078008080fb000e80e800a9
:10345400104078000080fb0080806800800f20000e
:10346400008060000000e00010003a001e007800b8
:103474000080e80090407800640047001040780025
:1034840080cf500009003a001e007800630040001d
:1034940090407800650047001040780080cf5000cd
:1034a40002003a001e007800070037009e007800f2
:1034b4006a8f5000c06128009e007800808f500001
:1034c400dfff3a000000eb000080fa000000060075
:1034d4000400fa00000f78000e80e800010878006c
:1034e4001e4078000004e00022003d000e80e80049
:1034f40010407800e94f5000020036000000eb0055
:103504004500370063004700904078000e80e800d3
:10351400104078000080fb004200dd000081e800dc
:1035240040122900000041001040780080cf500074
:10353400020039000000eb00370037000e80e8007d
:10354400104078000080fb00c200dd00401229001a
:10355400008040009000780063004700104078002d
:103564000080fb0000004000008040001000780054
:10357400290037001e4078000004e00022003500d6
:103584000e80e80010407800e94f50000200360039
:103594000000eb00200037006300470090407800f3
:1035a4000e80e800104078000080fb004200dd003f
:1035b4000081e800c00f290000004100104078009d
:1035c40080cf5000020039000000eb0012003700e9
:1035d4000e80e800104078000080fb00c200dd008f
:1035e400c00f29000080400090007800630047006d
:1035f400104078000080fb00000040000080400084
:1036040010007800040037001e0078008e80e80067
:103614009100780056ff07000080fa0000000600c1
:103624002a00fa0074004700e400400064004700e8
:10363400010878008000eb0066004700010878006c
:103644008000eb006800470001087800e80057009c
:10365400800220000e004000010878006800570036
:10366400104078000080fb006a00b9000000780078
:10367400e4004000c061280000804000301f780052
:103684002017780068005700104078000080fb0085
:103694006a00b90080007800c06128008080400082
:1036a400740047003118780021107800a501370014
:1036b4001e00be00000078006f0060008001eb0077
:1036c400000178000202be00e0ff2f00f1ff2f008e
:1036d400040040008580480094002000050020007c
:1036e400840f5000858f580090013e000060010057
:1036f40085003700840037005a003700590037002e
:1037040005003700040037009600370095003700a5
:10371400d00037003d013700800220000e00400039
:1037240010007800e4005000800220000e004000e9
:1037340001087800800220000e004000100078008c
:10374400800078006a004700311878002110780062
:103754006a0047001000780000407800e400470049
:1037640091007800804878006400470010007800d9
:103774008000e80064004700010878006a00470000
:103784001000be00480add004800de0000007200a0
:10379400c808de006a024700008abe006a004700cb
:1037a4001000780000407800e400470091007800a1
:1037b4008048780064004700100078008000e8002a
:1037c40064004700010878006a0047001000be004a
:1037d400480add004800de0000007200c808de0070
:1037e4006a024700008abe006a00470010007800a1
:1037f40000407800e4004700910078008048780099
:1038040064004700100078008000e800640047006e
:10381400010878006a0047001000be00480add0075
:103824004800de0000007200c808de006a0247009b
:10383400008abe006a00470010007800004078004b
:10384400e400470091007800804878006400470055
:10385400100078008000e800640047000108780048
:1038640032013700800220000e0040001000780072
:103874008080e900800220000e00400001087800ea
:10388400800220000e0040001000780080007800c4
:103894006e004700110878006e00470010007800a1
:1038a40000407800e40047009100780080487800e8
:1038b40064004700100078008000e80064004700be
:1038c400010878006e00470010007800c800de0090
:1038d4006e004700010878006e0047001000780071
:1038e40000407800e40047009100780080487800a8
:1038f40064004700100078008000e800640047007e
:103904000108780009013700800220000e00400001
:10391400100078008080e900800220000e00400042
:1039240001087800800220000e004000100078009a
:103934009000780070004700014878006400470058
:1039440090007800700047009048780064004700b9
:10395400100078008000e800640047000108780047
:10396400f2003700800220000e00400010007800b2
:103974008080e900800220000e00400001087800e9
:10398400800220000e0040001000780090007800b3
:1039940068004700010878006800470010007800bc
:1039a40000407800e40047009100780080487800e7
:1039b40064004700100078008000e80064004700bd
:1039c4000108780075004700104078000080fb0073
:1039d400e800470091007800810040006e00470035
:1039e400010878006e0047001000780080407800dd
:1039f4007500470001487800740047009040780043
:103a04006e004700100078004800de000040780097
:103a140080c07000740047000148780080022000d4
:103a24000e004000100078008080e9008002200031
:103a34000e00400001087800800220000e004000c3
:103a440010007800800078006600470011087800b4
:103a5400b6003700800220000e00400010007800fd
:103a64008080e900800220000e00400001087800f8
:103a7400800220000e0040001000780080007800d2
:103a840072004700110878007200470010007800a7
:103a940010407800e40047009100780080487800e6
:103aa40064004700100078008000e80064004700cc
:103ab4000108780072004700100078008000e800d8
:103ac4007200470001087800720047001000780077
:103ad40010407800e40047009100780080487800a6
:103ae40064004700100078008000e800640047008c
:103af4000108780072004700100078008000e80098
:103b04007200470001087800720047001000780036
:103b140010407800e4004700910078008048780065
:103b240064004700100078008000e800640047004b
:103b34000108780072004700100078008000e80057
:103b440072004700010878007200470010007800f6
:103b540010407800e4004700910078008048780025
:103b640064004700100078008000e800640047000b
:103b74000108780072004700100078008000e80017
:103b840072004700010878007200470010007800b6
:103b940010407800e40047009100780080487800e5
:103ba40064004700100078008000e80064004700cb
:103bb4000108780072004700100078008000e800d7
:103bc4007200470001087800720047001000780076
:103bd40010407800e40047009100780080487800a5
:103be40064004700100078008000e800640047008b
:103bf4000108780072004700100078008000e80097
:103c04007200470001087800480037008002200055
:103c14000e004000100078008080e900800220003f
:103c24000e00400001087800800220000e004000d1
:103c340010007800900078006800470001087800c0
:103c4400680047001000780000407800e400470056
:103c540091007800804878006400470010007800e4
:103c64008000e8006400470001087800680047000d
:103c7400100078004800de0000407800e4004700af
:103c840091007800804878006400470010007800b4
:103c94008000e800640047000108780075004700d0
:103ca400104078000080fb00e80047009100780095
:103cb400810040006e004700010878006e00470054
:103cc40010007800804078007500470001487800b3
:103cd40074004700904078006e00470010007800a0
:103ce4004800de000040780080c070007400470087
:103cf40001487800800220000e0040001000780087
:103d04008080e900800220000e0040000108780055
:103d1400800220000e00400010007800800078002f
:103d24006600470011087800000000001e00be0075
:103d34004c0add004400de0000007200c408de000e
:103d4400008fbe001e00be00e00f5000e08f580040
:103d540057fe3a00004280000000e00011003200eb
:103d64000442800068005700104078000080fb0087
:103d74006a00b90080007800c0612800008040001b
:103d84000000e8001040780064404000f400470060
:103d9400660147009201780068014700120178002b
:103da400040001000080fa00000006000400fa008c
:103db4008e80e8008048780045c8bf00e14f50007d
:103dc40006003a000e80e8009040780000c8b30076
:103dd40080cf500089003a004568ef00b041800070
:103de4000000e00007003a00e0db23008e80e800da
:103df40011487800b04180000000e800b04188001c
:103e040083003700b0418000e10f500007003a0002
:103e1400f0db23008e80e80011487800b041800078
:103e24000000e800b041880079003700b04180000c
:103e3400e20f500007003a0000dc23008e80e80007
:103e440011487800b04180000000e800b0418800cb
:103e54006f003700b0418000e30f500024003a00a7
:103e640010dc23008e80e80011487800e0db23009a
:103e7400104078000080fb0067006000c800dd008f
:103e8400f0db2300104078000080fb00008040003d
:103e9400c0418800c04180000000e00010003a00ea
:103ea400f0ed810001ee810089fd0700000f78002c
:103eb4001e0078000000e00002003a003628ef00ff
:103ec400530037001e00780068004000900078001e
:103ed40020dc2300010001003628ef004c003700ed
:103ee400b04180000000e800b0418800480037007d
:103ef400b0418000e30f500045003600c14180000e
:103f0400c0032000808f50002b003e00c041800081
:103f140063004000b1418000810f500016003a0058
:103f2400b04180006400500021dc23000080400088
:103f34008e80e80011487800f0ed810001ee8100e8
:103f440063fd0700000f78001e0078000000e00009
:103f540002003a003628ef002d0037001e007800da
:103f6400680040009000780020dc2300010001007c
:103f74003628ef0026003700b0418000640050006e
:103f840021dc2300008040008e80e8001148780086
:103f9400b04180000000e800b0418800b1418000d9
:103fa400e00f2000808f500016003600a010200083
:103fb400b041880016003700c04180006300400013
:103fc400b1418000810f500002003a003628ef0012
:103fd4000f003700b04180000000e800b0418800c5
:103fe400b1418000e00f2000808f500007003600b0
:103ff400f00f2000b04188000500370000000000e9
:10400400030037000000000001003700000000003a
:104014000080fa00000006000a00fa000e82e800a0
:10402400004a7800640047000108780066004700f1
:104034000208780068004700030878000040eb009d
:10404400004f7800070037001e80fb00e4004700a3
:10405400910078000080400010407800f8030700c9
:104064001e4fe8000e80e800104078009e40780063
:1040740080cf5000f4ff39000e80e800104f780024
:104084000b0037009e80fb000e80e8001040780093
:104094000080fb0000805000e80047009100780099
:1040a4000080400010407800e50307001e4fe80040
:1040b4009e80fb000e80e800104078000080fb002a
:1040c400660147001201780002004000808f500012
:1040d400ecff39000080fa00000006000800fa0036
:1040e40041842000914078003ec8bf0080cf50003a
:1040f4000200320044c8bf003ee8b70044c8bf0015
:104104000080fb006101b900e0ff2f00f1ff2f00e8
:104114000200400083804800620120000300200068
:10412400820f5000838f580075013e00006001002b
:10413400750137005e0037006e00370074003700e9
:104144007101370080003700850037000f00370009
:10415400b0003700b7003700be0037006a013700ef
:10416400de003700680137001101370066013700af
:104174001d013700640137002e0137005801370054
:1041840061013700600137005f0137007ba6a90099
:104194000040eb00004f78000200370000000000f0
:1041a4001e4fe80070ccb3009e40780080cf5000d2
:1041b400faff36007ba6a800e00022000042880037
:1041c4000040eb00004f7800090037001e80fb0020
:1041d4009e80fb00625523008100410091407800dd
:1041e40022ec230000004100014878001e4fe80043
:1041f4001e407800ec4f5000f4ff36000040eb0006
:10420400004f7800090037001e80fb009e80fb00f1
:10421400325623008100410091407800f2ec2300e3
:1042240000004100014878001e4fe8001e4078005d
:10423400e24f5000f4ff36000040eb00004f7800de
:10424400090037001e80fb009e80fb00625623009d
:10425400810041009140780022ed230000004100dc
:10426400014878001e4fe8001e407800ef4f5000d0
:10427400f4ff360010c0b30045e8b7001e28ef0075
:104284001068ef001268ef001368ef001d68ef007c
:104294002fc8bf00e14f500002003a002f68ef0022
:1042a4003068ef0020c0b30044e8b70023013700b2
:1042b4002cc8bf00e14f500004003a002c68ef0006
:1042c40090c0b30044e8b7001c0137002000200070
:1042d400801f780010c4b300801f7800d0fc070052
:1042e400e487570040c0b30044e8b7001e28ef003d
:1042f40012013700f140800040062000808f5000fa
:104304000301360090c0b30044e8b7000b01370046
:10431400f140800080022000808f5000fe003600b3
:1043240030c4b300801f7800bdfc07008f87e9000c
:1043340060c0b30044e8b7001268ef001368ef00f0
:104344001d68ef00fd003700f0408000e10f5000d1
:10435400f300360090c0b30044e8b700f70037001c
:1043640060572300904078000e00e8000148780070
:1043740070572300904078000e80e80001487800d0
:10438400805723009040780063004700014878007c
:10439400905723009040780064004700014878005b
:1043a400a05723009040780065004700014878003a
:1043b400b057230090407800660047000148780019
:1043c40011c8bf000080fb0041002000811f78005d
:1043d40001322000811f780081022000811f7800b3
:1043e40001012000811f7800801f78000e00e80082
:1043f400801f780020c4b300801f780088fc070069
:10440400ee8757001e28ef00a0c0b30044e8b700b1
:10441400ca003700f140800040062000808f500021
:10442400c10036001e28ef0090c0b30044e8b70076
:10443400c2003700f140800040062000808f500009
:10444400bb0036001e28ef0090c0b30044e8b7005c
:10445400ba0037001dc8bf000080fb000000e00068
:1044640003003200e10f500016003200190037003b
:10447400c0572300104078000080fb00011529007c
:10448400811f780021002000811f78008080eb00cc
:10449400811f780011002000811f7800801f7800a0
:1044a400c0c2b300801f78005dfc0700ec87570092
:1044b400d0c0b30044e8b70010c0b3001de8b70093
:1044c40004003700e0c0b30044e8b7001d68ef0003
:1044d400000000001e28ef00980037003181200002
:1044e4009140780012c8bf0080cf500026003100f0
:1044f40013c8bf000080fb007800b90000007800fa
:10450400e4004000e058230000804000900178005f
:1045140013c8bf000080fb007800b90000007800d9
:104524008080e800e05823000080400010017800fb
:1045340013c8bf000080fb007800b9008000780039
:10454400e058230000804000104078000080fb0009
:10455400831f7800821f7800801f7800e0c2b300b8
:10456400801f78002efc0700e8875700f0c0b300d6
:1045740044e8b70013c8bf000040e80013e8b700e0
:104584001e28ef006d003700f14080004006200037
:10459400808f5000680036001e28ef0090c0b300e2
:1045a40044e8b70010c0b3002ce8b700630037003c
:1045b400d1408000c0572300104078000080fb00e9
:1045c400811f7800801f7800f0c2b300801f78003c
:1045d40013fc0700e687570010c1b30044e8b70096
:1045e4001e28ef0055003700b04080008000e8002e
:1045f400c0572300104078000080fb00c21429003b
:10460400821f780022002000821f7800811f78001a
:10461400801f780000c3b300801f780000fc0700ef
:10462400ea87570030c1b30044e8b7001e28ef0002
:104634004200370020c8bf00e14f500025003a0077
:1046440027c8bf00e14f500013003a002768ef006d
:104654001e28ef00b2408000c057230010407800ad
:104664000080fb00816a2300811f78004101200043
:10467400811f7800821f7800801f780000c3b30078
:10468400801f7800e6fb0700ea87570060c1b3008b
:1046940044e8b7000f0037002dc8bf00e14f5000b9
:1046a4000c003a002d68ef00c0572300104078003a
:1046b4000080fb00801f780010c2b300801f7800c8
:1046c400d7fb0700e487570080c1b30044e8b70074
:1046d4001e28ef0010c0b30030e8b7001700370001
:1046e4002cc8bf00e14f500003003a002c68ef00d3
:1046f40090c0b30044e8b7001e28ef000f00370055
:10470400000000000d003700000000000b0037001f
:104714000000000009003700000000000700370017
:10472400000000000500370000000000030037000f
:104734000000000001003700000000000080fa00c3
:10474400000006000200fa000140800010408000d2
:10475400808f5000420132009bc0a90011408000ac
:104764006084200001004000904078000e00e800c2
:1047740001487800104080000000e80010408800e4
:1047840011408000f0702200808f5000010036003c
:104794000228ef009bc0a8000e00e800104078003b
:1047a4000004e00098003d000e00e800104178008d
:1047b400118320008248780031c8bf000080fb00cc
:1047c40071082000810f500047003200710820005a
:1047d400810f500011003c0011082000810f50008f
:1047e4003300320011082000810f500004003c0007
:1047f40001082000810f50002a0032001801370000
:1048040021082000810f50001d00320051082000b3
:10481400810f50001200320011013700f10820000e
:10482400810f500074003200f1082000810f500005
:1048340004003c00c1082000810f50002c0032000d
:104844000701370021092000810f500006003200c3
:1048540031092000810f50000600320000013700aa
:10486400ae030700fe00370020c9b300230207008f
:10487400fb00370010c0b3002ee8b700f800370083
:1048840020c8bf00e14f500003003a0040c8b30005
:104894001a020700f200370030c8b30017020700fd
:1048a400ef0037002868ef003268ef00ec003700b3
:1048b40028c8bf00f44f5000e0003a0032c8bf00df
:1048c4000004e000df003a0010c0b30027e8b7009e
:1048d400504180000000e000dc003a00a00020000d
:1048e40050418800de0037003368ef00dc003700f9
:1048f400c0c8b300010207000040eb00004f78007d
:104904000f0037001e80fb0021ec230000804000d4
:10491400104078000080fb004400de000040780076
:10492400f60107001e80fb0021ec230000804000fc
:10493400104078006f406000f00107001e4fe8004f
:104944001e407800ec4f5000eeff36000040eb00b4
:10495400004f78000f0037001e80fb00f1ec2300ad
:1049640000804000104078000080fb004400de001e
:1049740000407800e10107001e80fb00f1ec2300f9
:1049840000804000104078006f406000db010700a9
:104994001e4fe8001e407800e24f5000eeff360044
:1049a4000040eb00004f78000f0037001e80fb0032
:1049b40021ed230000804000104078000080fb00bf
:1049c4004400de0000407800cc0107001e80fb009c
:1049d40021ed230000804000104078006f4060000b
:1049e400c60107001e4fe8001e407800ef4f50003c
:1049f400eeff36009a00370010c0b3002de8b70070
:104a0400000000009600370031c8bf000080fb00a2
:104a140001082000810f50000400320071082000ba
:104a2400810f50001f0032008d00370028c8bf00de
:104a3400f34f500087003e0032c8bf000004e0007e
:104a440007003a000e00e80010417800418320007e
:104a54008248780010c0b30032e8b7008000370005
:104a640028c8bf008080fb004283200012417800e8
:104a74006f416100c411dd000e01e80012417800ad
:104a84006f41610002c14100836a230081804100bb
:104a9400824878000040e80028e8b7003268ef0058
:104aa4006f00370033c8bf000080fb00c16b2300d8
:104ab400008040008e00e800114878003183200017
:104ac40091407800f0c3b30080cf500050003a000a
:104ad4000040eb00004f7800120037001e81fb00fd
:104ae4001e80fb0000004000c16b230000804000da
:104af40010407800c400dd001e80fb000000400070
:104b04000000e800c36b23000080410010407800df
:104b140080c0400060552300020040000148780036
:104b24001e4fe8001e407800ec4f5000ebff3600ab
:104b3400d0c0b300004f7800130037001e80fb0084
:104b44006d0150001e80fb0000004000c16b23007b
:104b54000080400010407800c400dd001e80fb008f
:104b6400000040000000e800c36b23000080410007
:104b74001040780080c040003056230002004000fe
:104b8400014878001e4fe8001e407800ef4f5000a7
:104b9400eaff360000c1b300004f7800130037006d
:104ba4001e80fb00700150001e80fb0000004000ce
:104bb400c16b23000080400010407800c400dd0079
:104bc4001e80fb00000040000000e800c36b2300cf
:104bd400008041001040780080c0400060562300ef
:104be40002004000014878001e4fe8001e40780093
:104bf400ff4f5000eaff360010c0b3002ce8b700a6
:104c040010c0b3002ee8b70010c0b3002fe8b700ff
:104c140033c8bf000040e80033e8b7003183200008
:104c240091407800f0c3b30080cf50000b003600f1
:104c340000c4b30033e8b7000900370000000000e7
:104c440007003700000000000500370000000000e6
:104c540003003700000000000100370000000000de
:104c64000080fa00000006000200fa0041408000c3
:104c740050408000808f5000110032009960a900dc
:104c8400514080006015230001004000104078006e
:104c9400004f7800504080000000e8005040880039
:104ca40051408000f01f2000808f5000010036002a
:104cb4000a28ef009960a8001e4078003bfc07001a
:104cc4000080fa00000006000000fa0020c8bf00bf
:104cd400e14f50000b003a0050418000e50f5000b6
:104ce400040036006606a9006626a9007a46a900d3
:104cf400070037006606a9006626a9007a46a800c0
:104d0400030037006606a8006626a9007a46a900b3
:104d14000080fa00000006000400fa00000f78008a
:104d24000e80e80001087800230107004d00070009
:104d34005f0007009000070027c8bf000004e000e0
:104d440001003a007ffe07002ec8bf00e14f50006b
:104d540002003a00c4ff0700e0fc0700daff070086
:104d6400f5ff37000000fa003cc8bf000080fb00dc
:104d7400e30f50001e003200e30f500007003c0018
:104d8400e10f500012003200e10f500014003c000b
:104d94000000e0000a00320029003700e50f50004f
:104da4001b003200e50f500015003500e60f5000df
:104db4001b003200e70f50001d00320020003700b6
:104dc4006606a9006626a9007a46a9001c003700d9
:104dd4006606a9006626a9007a46a80018003700ce
:104de4006606a9006626a8007a46a90014003700c2
:104df4006606a9006626a8007a46a80010003700b7
:104e04006606a8006626a9007a46a9000c003700a9
:104e14006606a8006626a9007a46a800080037009e
:104e24006606a8006626a8007a46a9000400370092
:104e34006606a8006626a8007a46a80000000000be
:104e44003cc8bf000040e8003ce8b7003cc8bf00d5
:104e5400e74f5000010036003c68ef000080fa0084
:104e6400000006000000fa009421ef009421a9003c
:104e7400a10c8000f0fc2f0000806000a00c8800d2
:104e840000e82300900c880041058000f0ff280012
:104e94000080600000c0a000400588008860a90070
:104ea4009860a80095e1a8000080fa0000000600c0
:104eb4000000fa0099e3a80099a3a9009983a90026
:104ec4009963a900c11c8000f0cf2f00008060000e
:104ed4000090a000c01c880098e3a80098c3a90013
:104ee40098a3a9009883a9009863a800400420000f
:104ef400001d8800c11c800090ff2f00008060000e
:104f0400c01c88009803a9009ba3a9009be3a900e7
:104f14009bc3a9009b63a900d11c8000f0f32f0060
:104f240000806000d01c88009aa3a900700580004e
:104f34007000b30070058800610580000000270040
:104f4400010070006005880061058000f0ff280002
:104f54000080600000c0a000600588008960a9008e
:104f64009960a8008980a9009980a9009b43a800a2
:104f74000080fa00000006000000fa00afe3a80079
:104f8400afa3a900af83a900af63a800711d80007f
:104f9400f0cf2f0000806000701d8800aee3a800f1
:104fa400aec3a900aea3a900ae83a900ae63a80056
:104fb40000342000b01d8800711d800090ff2f0078
:104fc40000806000701d8800ae03a900b1a3a90091
:104fd400b1e3a900b1c3a900b163a900811d800098
:104fe400f0f32f0000806000801d8800b0a3a900aa
:104ff400b10580000000270001007000b0058800a2
:10500400b10580000070200001007000b005880028
:10501400b1058000f08f2f00008060000080a000a8
:10502400b00588008bc0a9009bc0a8008be0a90034
:105034009be0a900b143a8000080fa00000006002c
:105044000200fa00004f7800614080007040800048
:10505400808f500018003a00d11c800000202000ee
:10506400008060000000e00003003a001e80fb00a6
:10507400e01c88001f0037009980a900624080006e
:105084009e4078006035230002004000014878000b
:10509400604080000000e8006040880061408000bb
:1050a400f01f2000808f5000010036000c28ef0014
:1050b4009980a8000f0037009980a9006240800001
:1050c4009e407800603523000200400001487800cb
:1050d400604080000000e80060408800614080007b
:1050e400f01f2000808f5000010036000c28ef00d4
:1050f4009980a8000080fa00000006000200fa006f
:10510400004f78002140800030408000808f5000a4
:1051140018003a00811d80000020200000806000fb
:105124000000e00003003a001e80fb00901d880090
:105134001f0037009be0a900224080009e407800b9
:1051440060f5220002004000014878002040800001
:105154000000e8002040880021408000f01f20006b
:10516400808f5000010036000428ef009be0a80067
:105174000f0037009be0a900224080009e40780089
:1051840060f52200020040000148780020408000c1
:105194000000e8002040880021408000f01f20002b
:1051a400808f5000010036000428ef009be0a80027
:1051b4000080fa00000006000000fa006a26ef00f2
:1051c4007e26ef006206a9006226a9007646a900a1
:1051d4006606a9006626a8007a46a9007ba6a9004f
:1051e40077a6a9007be6a80077e6a9006004200062
:1051f40000088800700520000008880000c1a9008c
:1052040000502000c03e880040002000b03d8800cf
:1052140030002000103f880000402000d03e88006d
:1052240080602000a03d880011088000f08f2f00ce
:10523400008060001008880011088000f0f32f003f
:10524400008060001008880011088000f0ff28002a
:1052540000806000100888000361a9006004200039
:1052640000088800700520000008880000c1a8001c
:1052740083e0a8000080fa00000006001600fa008f
:10528400889fbe00f0004700800878007200470045
:105294000288be000000eb00000f78008000eb00e5
:1052a4000e80e800010878005a0037000e80e800fc
:1052b4009000780070004700100078000100400062
:1052c4009040780064004700014878000e80e800b0
:1052d400100078000000e800f0004700910078001a
:1052e4000080400090407800650047000148780045
:1052f4000e80e800100078000080e800f00047000d
:1053040091007800008040009040780066004700db
:10531400014878008040eb006700470001487800ae
:105324000e80e80010007800e30040000e80e800e2
:105334000108780064004700900178006600470087
:105344001001780072004700900078007400470054
:1053540010007800e9000700720047001000be004a
:10536400000078007f0060008004eb0000047800f7
:105374000801be008001200001002000800f5100c0
:10538400818f590008003a00720047001000be00e7
:10539400680147000089be00640047001000be0099
:1053a4006c0147000089be001e0078000000e00088
:1053b400110032001e00e80080007800f003200095
:1053c400008060000000e0000b003a006c00470021
:1053d400900178006e0047001001780068004700d3
:1053e400900078006a00470010007800c3000700ae
:1053f40010002400b6000700720047001000be0031
:1054040062004000e0804800720147000089be004d
:105414001e0fe800f01f20009e007800808f5000cf
:10542400a2ff34004f04be000080fa000000060012
:105434001000fa00ea004700800878006c0047007a
:105444000288be008000eb000e80e80001087800ae
:105454001100200064004700010878000000eb0000
:10546400000f7800360037006c0047009000780089
:105474006e00470010007800a40007006601470092
:105484000089be0066004700904078006a0047002b
:10549400100178000e80e800100078000000410040
:1054a4001040780080cf500016003a006700470093
:1054b400904078000e80e800100078000000e800ba
:1054c4006a01470012017800000041001040780092
:1054d40080cf50000b003a006800470090407800ed
:1054e4000e80e800100078000080e8006a014700a0
:1054f40012017800000041001040780080cf500075
:10550400030032008000eb006400470001087800cb
:105514000e80e80010007800e30040000e80e800f0
:10552400010878006c0047001000be0062004000d3
:10553400e08048006c0147000089be001e0fe800af
:10554400f01f20009e007800808f5000c6ff3600b8
:105554006400470010007800004078000080fa00e2
:10556400000006000400fa003ac8bf000081fb00f6
:105574008001eb004a18dd00c610de0081007000d7
:105584004a10dd00008fbe009e0078000e80e80007
:105594001000780022042400630007001e01be00ee
:1055a400c07b230035ff07001e01be00c07b230023
:1055b4009fff07000080fa00000006000800fa00c0
:1055c400640147000089be00640047009000780031
:1055d40066004700100078004c000700008fbe00f2
:0c55e4001e4078000080fa000000060065
:020000040000fa
:1055f000bc37000002060000800000003a080000ee
:1056000002000000800000003c08000002000000d2
:1056100080000000be3d000004010000800000008a
:105620003e0800000200000082000000ff000000b1
:105630003608000004000000800000004008000060
