:0400000011EF00F00C
:100008005C82D9CF42F0DACF43F081EC2DF043C0C7
:0E001800DAFF42C0D9FF5C9211002BEF2EF0F0
:10400000FFFFFFFFFFFFFFFFFFFFFFFFFFFFFFFFC0
:10401000FFFFFFFFFFFFFFFFFFFFFFFFFFFFFFFFB0
:10402000FFFFFFFFFFFFFFFFFFFFFFFFFFFFFFFFA0
:10403000FFFFFFFFFFFFFFFFFFFFFFFFFFFFFFFF90
:10500000AA55AA55AA55AA5562636465666766647F
:105010006362FF00010E006E000E0F01116F000EA3
:10502000196F000E216F000E266FAEEC31F0BFEC51
:1050300031F066EC31F083EC2EF0E806D8A423EFD3
:1050400028F025EF28F0B4EF28F0BD8EBD508F0B6F
:105050005009BD6EF00EBD16BF50F00B0409BF6EB7
:1050600090AA35EF28F037EF28F07FEF28F08694EC
:10507000000E0001F06F000EEF6F04000001EF4B17
:10508000F02BF40EEF5D010EF059D8A04AEF28F096
:105090004CEF28F03DEF28F08684859087908C9027
:1050A0008888888688828884000E0F01106F888A1D
:1050B000D59E9E9A9D9E000E41EC30F0040083EC3C
:1050C0002EF00009D8A467EF28F069EF28F06BEF05
:1050D00028F069EF28F090AA70EF28F072EF28F01E
:1050E0007DEF28F00E01CEA378EF28F07AEF28F0BC
:1050F0005EEF28F0CE935EEF28F07DEF28F00400FD
:10510000858090A086EF28F088EF28F08DEF28F0BA
:10511000020E41EC30F099EF28F0010E41EC30F036
:105120000E01CEA396EF28F098EF28F099EF28F023
:10513000CE9390AA9EEF28F0A0EF28F0A5EF28F0DC
:10514000000E41EC30F0A3EF28F083EC2EF00009C4
:10515000D8A4ADEF28F0AFEF28F07FEF28F0000ED5
:1051600041EC30F0B2EF28F08580000E0001F06FC6
:10517000000EEF6F04000001EF4BF02BF40EEF5D1B
:10518000010EF059D8A0C7EF28F0C9EF28F0BAEF08
:1051900028F0BB05D8B4CFEF28F0D1EF28F0D5EF39
:1051A00028F0010EBB6F64EC30F087808C9024EC0B
:1051B00031F080EC31F0D2EC30F08CEC31F036ECA8
:1051C00031F0E8EC30F0F6EC2FF048EC2FF0CEECBC
:1051D0002FF03A0E0001CB19D8A4F1EF28F0F3EF2D
:1051E00028F00CEF29F0CA51D8A4F9EF28F0FBEF12
:1051F00028F00CEF29F0880EC919D8A402EF29F085
:1052000004EF29F00CEF29F0C851D8B40AEF29F0C7
:105210000CEF29F00FEF29F0030E41EC30F0000EF7
:105220000001EE6F080EBBEC30F00001EE2B090E12
:10523000EE651DEF29F01FEF29F012EF29F059C09C
:10524000C3F05AC0C4F0F28E8684858083EC2EF0C1
:10525000E806D8A42EEF29F030EF29F040EF29F02E
:10526000000E41EC30F08590F29E020EBBEC30F067
:10527000609E0F01339F319F83EC30F03EEF29F0A9
:105280000001A75109E1810EA65DD8A04AEF29F0DF
:105290004CEF29F050EF29F0C8EC31F052EF29F033
:1052A000C6EC31F0B6EC2EF053EC2BF0040000010C
:1052B000B805D8A45EEF29F060EF29F07EEF29F061
:1052C000000EB86F60B067EF29F069EF29F07EEF4C
:1052D00029F063CFECF064CFEDF0ECC0EAF0EDC064
:1052E000EBF0D890EB33EA33D890EB33EA33EAC0F3
:1052F000ECF0EBC0EDF0ECC0C2F06080B651B7113D
:10530000D8B485EF29F087EF29F092EF29F0CC0E81
:10531000C725D96EDA6A000EDA22DF5041EC30F090
:1053200025EF29F0130EB919D8A499EF29F09BEFB6
:1053300029F0AEEF29F0070E5B18D8A4A2EF29F0F0
:10534000A4EF29F0A9EF29F0020E41EC30F025EF8F
:1053500029F0040E41EC30F025EF29F0000E41EC6D
:1053600030F025EF29F011EF00F04E6E4E50D8A42A
:10537000BCEF29F0BEEF29F0D5EF29F0020E4A1854
:10538000D8A4C5EF29F0C7EF29F0D5EF29F04B508D
:10539000D8A4CDEF29F0CFEF29F0D5EF29F0010EF9
:1053A0000001C66F010E52EF2BF04E50D8A4DBEF78
:1053B00029F0DDEF29F0FAEF29F0060E4A18D8A4FB
:1053C000E4EF29F0E6EF29F0FAEF29F04B04D8A436
:1053D000ECEF29F0EEEF29F0FAEF29F0050E5B6E05
:1053E000010E0001C66F000E586E000E576E020EC1
:1053F00052EF2BF0800E4E18D8A401EF2AF003EFE5
:105400002AF01AEF2AF04A50D8A409EF2AF00BEF3D
:105410002AF01AEF2AF0060E4B18D8A412EF2AF041
:1054200014EF2AF01AEF2AF0010E0001C66F030EE6
:1054300052EF2BF0800E4E18D8A421EF2AF023EF64
:105440002AF038EF2AF04A50D8A429EF2AF02BEF9F
:105450002AF038EF2AF04B50D8A431EF2AF033EF7E
:105460002AF038EF2AF0030E5B6E040E52EF2BF099
:10547000800E4E18D8A43FEF2AF041EF2AF0F1EF4A
:105480002AF0020E4A18D8A448EF2AF04AEF2AF070
:10549000F1EF2AF04B50D8A450EF2AF052EF2AF047
:1054A000F1EF2AF0050E506E000E4F6E070E4F24DE
:1054B000D96EDA6A030EDA22740E4F24E16EE26AC4
:1054C000000EE222DFCFE7FF4F2A130E4F646BEF8F
:1054D0002AF06DEF2AF056EF2AF0010E4F6E740E8F
:1054E0004F24D96EDA6A000EDA22DF504C6EFF0EBE
:1054F0004F24F66EF76A4F0EF722F86A000EF82274
:105500000800F5504C18D8B488EF2AF08AEF2AF03A
:105510008DEF2AF0000E52EF2BF04F2A130E4F643E
:1055200094EF2AF096EF2AF06FEF2AF0C0EF2AF0FE
:10553000000EE8EC2EF0EEEF2AF0010EE8EC2EF073
:10554000EEEF2AF0020EE8EC2EF0EEEF2AF0030E5A
:10555000E8EC2EF0EEEF2AF0040EE8EC2EF0EEEF81
:105560002AF0050EE8EC2EF0EEEF2AF0060EE8EC3D
:105570002EF0EEEF2AF0070EE8EC2EF0EEEF2AF018
:10558000000174514C6E4D6A4D50000AD8B4CBEFF7
:105590002AF0EEEF2AF04C50F10AD8B498EF2AF036
:1055A000030AD8B49DEF2AF0010AD8B4A2EF2AF07A
:1055B000070AD8B4A7EF2AF0010AD8B4ACEF2AF052
:1055C000030AD8B4B1EF2AF0010AD8B4B6EF2AF032
:1055D0000F0AD8B4BBEF2AF0EEEF2AF0505052EF8A
:1055E0002BF0800E4E18D8A4F8EF2AF0FAEF2AF02C
:1055F00011EF2BF0020E4A18D8A401EF2BF003EFA5
:105600002BF011EF2BF0020E4B18D8A40AEF2BF061
:105610000CEF2BF011EF2BF0070E5B6E060E52EF26
:105620002BF0800E4E18D8A418EF2BF01AEF2BF0A9
:1056300034EF2BF0030E4A18D8A421EF2BF023EF00
:105640002BF034EF2BF04B50D8A429EF2BF02BEF9D
:105650002BF034EF2BF0060E5B6E000E586E000E32
:10566000576E070E52EF2BF0800E4E18D8A43BEF6A
:105670002BF03DEF2BF08AEF2AF0030E4A18D8A446
:1056800044EF2BF046EF2BF08AEF2AF0040E4B1874
:10569000D8A44DEF2BF04FEF2BF08AEF2AF0080E35
:1056A0005B6E080E12009DEF2CF0585009E1150EAC
:1056B000575CD8A05EEF2BF060EF2BF0D2EF2CF010
:1056C000010E5B6ED2EF2CF0010E0001E46F8684B8
:1056D000010E58EC31F0000E586E000E576E020E9F
:1056E0005B6ED2EF2CF0585009E1290E575CD8A020
:1056F0007CEF2BF07EEF2BF0D2EF2CF0000E5B6EE8
:10570000000E586E000E576E8694000E58EC31F065
:10571000D2EF2CF011EC31F0040E5B6E000E586EDF
:10572000000E576ED2EF2CF0585009E1150E575C61
:10573000D8A09DEF2BF09FEF2BF0D2EF2CF0080EAE
:105740005B6ED2EF2CF0585009E1C90E575CD8A01F
:10575000ACEF2BF0AEEF2BF0D2EF2CF09FEF2BF055
:10576000585009E1C90E575CD8A0B9EF2BF0BBEF38
:105770002BF0D2EF2CF09FEF2BF00001C505D8A441
:10578000C4EF2BF0C6EF2BF07BEF2CF0000EC56FB3
:10579000080EBBEC30F0E2C0E3F0DAC0DBF0E1C0B1
:1057A000E2F0D9C0DAF0E0C0E1F0D8C0D9F0DFC053
:1057B000E0F0D7C0D8F0DEC0DFF0D6C0D7F0DDC053
:1057C000DEF0D5C0D6F0DCC0DDF0D4C0D5F059C0D5
:1057D000DCF05AC0D4F00001BF2BC605D8A4F3EF0B
:1057E0002BF0F5EF2BF07BEF2CF0000E586E000E37
:1057F000576E010E606FD4C061F0DCC062F0D5C09E
:1058000063F0DDC064F0D6C065F0DEC066F0D7C0DE
:1058100067F0DFC068F0D8C069F0E0C06AF0D9C0B6
:105820006BF0E1C06CF0DAC06DF0E2C06EF0DBC08E
:105830006FF0E3C070F0B2C071F043EF2CF0C4C061
:1058400072F0C3C073F065EF2CF0C2C072F0010EAD
:10585000736F65EF2CF0000E726F000E736F65EFC3
:105860002CF0900EB225D96E000EB321DA6EDF5007
:10587000726F980EB225D96E000EB321DA6EDF502A
:10588000736F65EF2CF0B2C048F0B3C049F04950D7
:10589000000AD8B44EEF2CF031EF2CF04850080A33
:1058A000D8B41FEF2CF0010AD8B425EF2CF0030A6E
:1058B000D8B42BEF2CF0010AD8B42BEF2CF0070A48
:1058C000D8B42BEF2CF031EF2CF0B24BB32BB351FB
:1058D00009E10D0EB25DD8A070EF2CF072EF2CF044
:1058E00076EF2CF0000EB36F000EB26F76EC2FF057
:1058F000000E0001C66F585009E1C90E575CD8A0D0
:1059000084EF2CF086EF2CF0D2EF2CF09FEF2BF0F1
:105910008694000E58EC31F0090E5B6E8EEF2BF082
:10592000585009E1020E575CD8A099EF2CF09BEF7C
:105930002CF0D2EF2CF060EF2BF05B50486E496AF0
:105940004950000AD8B4A7EF2CF0D2EF2CF0485001
:10595000000AD8B455EF2BF0010AD8B464EF2BF04D
:10596000030AD8B473EF2BF0010AD8B48AEF2BF0F6
:10597000070AD8B494EF2BF0010AD8B4A3EF2BF0A8
:10598000030AD8B4B0EF2BF0010AD8B4BDEF2BF066
:105990000F0AD8B488EF2CF0010AD8B490EF2CF09D
:1059A000D2EF2CF01200536E0001E405D8A4DBEF17
:1059B0002CF0DDEF2CF0E8EF2CF0800E5318D8A47B
:1059C000E4EF2CF0E6EF2CF080EF2DF0000EE46F0A
:1059D00055505610D8A4EFEF2CF0F1EF2CF0F7EF64
:1059E0002CF053C0A0F0554A562A80EF2DF05504F4
:1059F0005610D8A4FEEF2CF000EF2DF004EF2DF0A0
:105A000053C0A1F0F3EF2CF0020E55185610D8A495
:105A10000CEF2DF00EEF2DF012EF2DF053C0A2F091
:105A2000F3EF2CF0030E55185610D8A41AEF2DF0F2
:105A30001CEF2DF039EF2DF053C0A3F0A1C0B4F04E
:105A4000B56BB451B511D8A428EF2DF02AEF2DF085
:105A5000F3EF2CF0A2C04AF0A3C04BF0A051B5EC7C
:105A600029F00001C16F000E566E000E556E80EFDA
:105A70002DF0565009E1040E555CD8A042EF2DF0F0
:105A800044EF2DF080EF2DF0030EB425516E000E83
:105A9000B521526E5550511807E156505218D8A4EE
:105AA00054EF2DF056EF2DF069EF2DF0FC0E55243C
:105AB000D96E020E5620DA6E53C0DFFFA2C04AF044
:105AC000A3C04BF0A051B5EC29F00001C16F33EF3A
:105AD0002DF0FC0E5524D96E020E5620DA6E53C0FE
:105AE000DFFF554A562A565008E15528D8A07BEFCB
:105AF0002DF07DEF2DF080EF2DF0000E566E5568E5
:105B000012009DA486EF2DF088EF2DF08BEF2DF085
:105B100099502AEF2EF09DA290EF2DF092EF2DF0EC
:105B200096EF2DF09D989D882AEF2EF00E01CDABBB
:105B30009CEF2DF09EEF2DF0BAEF2DF0000E00013E
:105B4000AE25D96E020EAF21DA6E99CFDFFFAE4BD4
:105B5000AF2B000EAE5D010EAF59D8A0B2EF2DF005
:105B6000B4EF2DF0B8EF2DF0000EAF6F000EAE6F5A
:105B7000A64BA72B0E01CAABC0EF2DF0C2EF2DF044
:105B80002AEF2EF0CA9B0001BD2B180EBD65CBEF8E
:105B90002DF0CDEF2DF001EF2EF0000EBD6F010EB8
:105BA000BC6F574A582A100E575C270E5858D8A079
:105BB000DCEF2DF0DEEF2DF0E2EF2DF0270E586E2A
:105BC000100E576EB651B711D8B4E9EF2DF0EBEFC8
:105BD0002DF0EEEF2DF0B607D8A0B707B04BB12BE4
:105BE000B15109E1050EB05DD8A0F9EF2DF0FBEF42
:105BF0002DF001EF2EF0000EB16F000EB06F010E10
:105C0000C56FBA2B630EBA6508EF2EF00AEF2EF0BF
:105C100017EF2EF0000EBA6FB92B130EB96513EF04
:105C20002EF015EF2EF017EF2EF0000EB96FA44BEB
:105C3000A52BD10EA45D030EA559D8A022EF2EF0FE
:105C400024EF2EF02AEF2EF0000EA56F000EA46FA9
:105C5000010EB86F1200480EF66E630EF76E000E5E
:105C6000F86E01EE00F010EE14F00900F5CFEEFF33
:105C7000E550E150FAE1E60EF66E620EF76E000EA8
:105C8000F86E00EECCF010EE19F00900F5CFEEFF43
:105C9000E550E150FAE1940EF66E630EF76E000ED9
:105CA000F86E0900F5CF5BF004EE00F011EE00F0A5
:105CB000EE6AE550E150FCE1E250FAE103EE00F05B
:105CC00011EE00F0EE6AE550E150FCE1E250FAE13D
:105CD00002EE00F011EE00F0EE6AE550E150FCE15A
:105CE000E250FAE100EE60F06C0EEE6AE806FDE1CB
:105CF0005A6A596A586A576A566A556A5C905C9241
:105D000000010AEF28F0838C889C0001BB51D8A4C5
:105D10008CEF2EF08EEF2EF09CEF2EF0000E446EE6
:105D200000F0442A090E446498EF2EF09AEF2EF00A
:105D300090EF2EF0A8EF2EF0000E446E00F0442AF3
:105D4000C70E4464A6EF2EF0A8EF2EF09EEF2EF0C3
:105D50008EA8ADEF2EF0AFEF2EF0B3EF2EF0888CC3
:105D6000010EB5EF2EF0888C000E12000001AC5130
:105D7000AE1909E1AD51AF19D8B4C1EF2EF0C3EFA0
:105D80002EF0E7EF2EF00E01C29B000E0001AC25B5
:105D9000D96E020EAD21DA6EDF50546EAC4BAD2BD6
:105DA000000EAC5D010EAD59D8A0D9EF2EF0DBEF9F
:105DB0002EF0DFEF2EF0000EAD6F000EAC6FA607D9
:105DC000D8A0A7070E01C28B5450D3EC2CF01200C0
:105DD000496E000E41EC30F049C044F0456A59C0AC
:105DE00046F01DEC30F0080E4924446E456A000E62
:105DF00045225AC046F01DEC30F0980E4924D96E69
:105E0000DA6A000EDA2259C0DFFF900E4924D96EFB
:105E1000DA6A000EDA225AC0DFFF000E586E000E5A
:105E2000576E000E0001B76F640EB66F49C0C7F021
:105E30001200446E800E466E000E456E47EC31F047
:105E4000445046144618D8A428EF2FF02AEF2FF01C
:105E50002DEF2FF083842EEF2FF0839447EC31F059
:105E60008386D8904630466E47EC31F0839647ECF7
:105E700031F0452A070E456440EF2FF042EF2FF036
:105E80001EEF2FF047EC31F0839447EC31F0120015
:105E9000000E496E000E486E980E4824D96E000E12
:105EA0004920DA6E48C044F049C045F0FDEC30F0BE
:105EB000DF6E900E4824D96E000E4920DA6E080E6F
:105EC0004824446E000E4920456EFDEC30F0DF6E34
:105ED000484A492A495009E1080E485CD8A073EFA6
:105EE0002FF075EF2FF04CEF2FF01200000EA0EC0A
:105EF00030F0180EA0EC30F0020EA0EC30F0000EE6
:105F0000A0EC30F0080EA0EC30F0000EA0EC30F069
:105F1000000EA0EC30F0140EA0EC30F0000E456E38
:105F2000600E4524D96EDA6A000EDA22DF50A0EC4A
:105F300030F0452A130E4564A0EF2FF0A2EF2FF0AA
:105F400090EF2FF0120047EC31F08394000E456E75
:105F5000800E466E000E446E47EC31F0838647ECAF
:105F600031F08DA2B6EF2FF0B8EF2FF0BBEF2FF08E
:105F700045504610456ED8904630466E47EC31F09D
:105F8000839647EC31F0442A070E4464CAEF2FF0A1
:105F9000CCEF2FF0ACEF2FF0455012008394839894
:105FA000000E486E000E476E474A482AF40E475CC2
:105FB000010E4858D8A0DFEF2FF0E1EF2FF0D4EF1B
:105FC0002FF0230E19EC2FF0A3EC2FF00001CB6F74
:105FD000A3EC2FF00001CA6FA3EC2FF00001C96FF2
:105FE000A3EC2FF00001C86F83881200839483987C
:105FF000060E19EC2FF0000E486E000E476E474A51
:10600000482AF40E475C010E4858D8A00AEF30F039
:106010000CEF30F0FFEF2FF0430E19EC2FF03A0E9B
:1060200019EC2FF0000E19EC2FF0880E19EC2FF060
:10603000000E19EC2FF083881200819C819E44C0D1
:106040007EFF44C047F045C048F0D8904832473200
:10605000D890483247324750030B7F6E46C080FFCE
:106060008184F29E550E826EAA0E826E818281B26A
:106070003CEF30F03EEF30F037EF30F0F28E8194AD
:106080001200446E44A047EF30F049EF30F04CEF7F
:1060900030F084824DEF30F0849244A252EF30F021
:1060A00054EF30F057EF30F0848458EF30F08494A0
:1060B00044A45DEF30F05FEF30F062EF30F08486A3
:1060C00063EF30F0849612000E01D8518F0B6009F7
:1060D000D86F050EDE6FF00ED81700F000F000F05C
:1060E00000F000F000F000F000F000F000F00E0111
:1060F000DAA97DEF30F07FEF30F077EF30F0010E6E
:106100000001BB6F12000E01D8518F0B5009D86FE0
:10611000F00ED81700F000F000F000F000F000F0F2
:1061200000F000F000F000F00E01DAA99AEF30F074
:106130009CEF30F094EF30F0000E0001BB6F1200C6
:10614000446EA4EF30F004009EA2A9EF30F0ABEF54
:1061500030F0A3EF30F0AEEF30F0040098EC31F007
:10616000E806D8B4B6EF30F0B8EF30F0ADEF30F06D
:1061700044C09AFF1200476E47EC31F0839847EC19
:1061800031F0475019EC2FF0B7EC31F0A3EC2FF0C1
:106190005A6EA3EC2FF0596E47EC31F0838847EC30
:1061A00031F01200000E0F01116F000E196F000E7A
:1061B000216F000E266F60983F0E576F5899FC0EA6
:1061C00058173E0E5F6F6084000E5C6F608E120089
:1061D0009E8E9E9C9E989E969E849E8A9D9C9D9A35
:1061E0009D889D969F989F869F90440E9B6E9D8E46
:1061F000F28C99500E01C58B1200819C819E44C087
:106200007EFF44C046F045C047F0D8904732463242
:10621000D890473246324650030B7F6E81808050C3
:106220001200000EA0EC30F0020EA0EC30F0060ED2
:10623000A0EC30F0010EA0EC30F0020EA0EC30F03B
:10624000020EA0EC30F012000F01318F319B31991A
:106250003151F30B0409316FFC0E311731AD33EFBF
:1062600031F035EF31F02EEF31F01200D598F00E0D
:10627000D516D6501F0B6009D66ED698D650F00BA7
:106280000609D66ED58E0E01CA91C28B120000F09F
:1062900000F000F000F000F000F000F000F000F07E
:1062A00000F000F000F000F000F000F000F012004C
:1062B000446E4404D8A45FEF31F061EF31F064EF35
:1062C00031F0868465EF31F0869412008A9C090EC5
:1062D0000E01FD6F8A8E170EB56F8A8A85988A988F
:1062E00086948B9412000701040302050600FFFF49
:0F62F000FFFFFFFFFFFFFFFFFFFFFFFFFFFF01AC
:106300000F01339B33993351F30B0809336F3391EA
:106310001F0E346F338F1200838888988396889677
:10632000888283948894200E0F01106F888A12004F
:106330008FAA9DEF31F09FEF31F0A2EF31F0010E07
:10634000A3EF31F0000E120000010203040506075E
:1063500008090A0B0C0D0E0F1011121385908A906C
:10636000899289948996000E41EC30F012008DBA22
:10637000BCEF31F0BEEF31F0B7EF31F01200898899
:106380008B8A8B80210E0F01256F120085981200D9
:056390008588120001E8
:02FFFE00010000
:020000040020DA
:10000000FFFFFFFFFFFFFFFFFFFFFFFFFFFFFFFF00
:020000040030CA
:0C000000DCFF3CEFEBC7FFEFFFFFFFFF52
:00000001FF
